{"abi":[{"inputs":[{"internalType":"uint256","name":"min","type":"uint256"}],"name":"createCampaign","outputs":[],"stateMutability":"nonpayable","type":"function"},{"inputs":[{"internalType":"uint256","name":"","type":"uint256"}],"name":"deployedCampaigns","outputs":[{"internalType":"address payable","name":"","type":"address"}],"stateMutability":"view","type":"function"},{"inputs":[],"name":"getDeployedContracts","outputs":[{"internalType":"address payable[]","name":"","type":"address[]"}],"stateMutability":"view","type":"function"}],"devdoc":{"kind":"dev","methods":{},"version":1},"evm":{"assembly":"    /* \"Campaign.sol\":25:431  contract CampaignFactory {... */\n  mstore(0x40, 0x80)\n  callvalue\n  dup1\n  iszero\n  tag_1\n  jumpi\n  0x00\n  dup1\n  revert\ntag_1:\n  pop\n  dataSize(sub_0)\n  dup1\n  dataOffset(sub_0)\n  0x00\n  codecopy\n  0x00\n  return\nstop\n\nsub_0: assembly {\n        /* \"Campaign.sol\":25:431  contract CampaignFactory {... */\n      mstore(0x40, 0x80)\n      callvalue\n      dup1\n      iszero\n      tag_1\n      jumpi\n      0x00\n      dup1\n      revert\n    tag_1:\n      pop\n      jumpi(tag_2, lt(calldatasize, 0x04))\n      shr(0xe0, calldataload(0x00))\n      dup1\n      0x339d50a5\n      eq\n      tag_3\n      jumpi\n      dup1\n      0xa3303a75\n      eq\n      tag_4\n      jumpi\n      dup1\n      0xaa9a068f\n      eq\n      tag_5\n      jumpi\n    tag_2:\n      0x00\n      dup1\n      revert\n        /* \"Campaign.sol\":56:98  address payable[] public deployedCampaigns */\n    tag_3:\n      tag_6\n      0x04\n      dup1\n      calldatasize\n      sub\n      dup2\n      add\n      swap1\n      tag_7\n      swap2\n      swap1\n      tag_8\n      jump\t// in\n    tag_7:\n      tag_9\n      jump\t// in\n    tag_6:\n      mload(0x40)\n      tag_10\n      swap2\n      swap1\n      tag_11\n      jump\t// in\n    tag_10:\n      mload(0x40)\n      dup1\n      swap2\n      sub\n      swap1\n      return\n        /* \"Campaign.sol\":105:306  function createCampaign(uint min) public {... */\n    tag_4:\n      tag_12\n      0x04\n      dup1\n      calldatasize\n      sub\n      dup2\n      add\n      swap1\n      tag_13\n      swap2\n      swap1\n      tag_8\n      jump\t// in\n    tag_13:\n      tag_14\n      jump\t// in\n    tag_12:\n      stop\n        /* \"Campaign.sol\":312:429  function getDeployedContracts()public view returns(address payable[] memory){... */\n    tag_5:\n      tag_15\n      tag_16\n      jump\t// in\n    tag_15:\n      mload(0x40)\n      tag_17\n      swap2\n      swap1\n      tag_18\n      jump\t// in\n    tag_17:\n      mload(0x40)\n      dup1\n      swap2\n      sub\n      swap1\n      return\n        /* \"Campaign.sol\":56:98  address payable[] public deployedCampaigns */\n    tag_9:\n      0x00\n      dup2\n      dup2\n      sload\n      dup2\n      lt\n      tag_19\n      jumpi\n      0x00\n      dup1\n      revert\n    tag_19:\n      swap1\n      0x00\n      mstore\n      keccak256(0x00, 0x20)\n      add\n      0x00\n      swap2\n      pop\n      sload\n      swap1\n      0x0100\n      exp\n      swap1\n      div\n      0xffffffffffffffffffffffffffffffffffffffff\n      and\n      dup2\n      jump\t// out\n        /* \"Campaign.sol\":105:306  function createCampaign(uint min) public {... */\n    tag_14:\n        /* \"Campaign.sol\":185:204  address newCampaign */\n      0x00\n        /* \"Campaign.sol\":228:238  msg.sender */\n      caller\n        /* \"Campaign.sol\":240:243  min */\n      dup3\n        /* \"Campaign.sol\":215:244  new Campaign(msg.sender, min) */\n      mload(0x40)\n      tag_22\n      swap1\n      tag_23\n      jump\t// in\n    tag_22:\n      tag_24\n      swap3\n      swap2\n      swap1\n      tag_25\n      jump\t// in\n    tag_24:\n      mload(0x40)\n      dup1\n      swap2\n      sub\n      swap1\n      0x00\n      create\n      dup1\n      iszero\n      dup1\n      iszero\n      tag_26\n      jumpi\n      returndatasize\n      0x00\n      dup1\n      returndatacopy\n      revert(0x00, returndatasize)\n    tag_26:\n      pop\n        /* \"Campaign.sol\":185:245  address newCampaign = address(new Campaign(msg.sender, min)) */\n      swap1\n      pop\n        /* \"Campaign.sol\":255:272  deployedCampaigns */\n      0x00\n        /* \"Campaign.sol\":286:297  newCampaign */\n      dup2\n        /* \"Campaign.sol\":255:299  deployedCampaigns.push(payable(newCampaign)) */\n      swap1\n      dup1\n      0x01\n      dup2\n      sload\n      add\n      dup1\n      dup3\n      sstore\n      dup1\n      swap2\n      pop\n      pop\n      0x01\n      swap1\n      sub\n      swap1\n      0x00\n      mstore\n      keccak256(0x00, 0x20)\n      add\n      0x00\n      swap1\n      swap2\n      swap1\n      swap2\n      swap1\n      swap2\n      0x0100\n      exp\n      dup2\n      sload\n      dup2\n      0xffffffffffffffffffffffffffffffffffffffff\n      mul\n      not\n      and\n      swap1\n      dup4\n      0xffffffffffffffffffffffffffffffffffffffff\n      and\n      mul\n      or\n      swap1\n      sstore\n      pop\n        /* \"Campaign.sol\":146:306  {... */\n      pop\n        /* \"Campaign.sol\":105:306  function createCampaign(uint min) public {... */\n      pop\n      jump\t// out\n        /* \"Campaign.sol\":312:429  function getDeployedContracts()public view returns(address payable[] memory){... */\n    tag_16:\n        /* \"Campaign.sol\":363:387  address payable[] memory */\n      0x60\n        /* \"Campaign.sol\":405:422  deployedCampaigns */\n      0x00\n        /* \"Campaign.sol\":398:422  return deployedCampaigns */\n      dup1\n      sload\n      dup1\n      0x20\n      mul\n      0x20\n      add\n      mload(0x40)\n      swap1\n      dup2\n      add\n      0x40\n      mstore\n      dup1\n      swap3\n      swap2\n      swap1\n      dup2\n      dup2\n      mstore\n      0x20\n      add\n      dup3\n      dup1\n      sload\n      dup1\n      iszero\n      tag_29\n      jumpi\n      0x20\n      mul\n      dup3\n      add\n      swap2\n      swap1\n      0x00\n      mstore\n      keccak256(0x00, 0x20)\n      swap1\n    tag_30:\n      dup2\n      0x00\n      swap1\n      sload\n      swap1\n      0x0100\n      exp\n      swap1\n      div\n      0xffffffffffffffffffffffffffffffffffffffff\n      and\n      0xffffffffffffffffffffffffffffffffffffffff\n      and\n      dup2\n      mstore\n      0x20\n      add\n      swap1\n      0x01\n      add\n      swap1\n      dup1\n      dup4\n      gt\n      tag_30\n      jumpi\n    tag_29:\n      pop\n      pop\n      pop\n      pop\n      pop\n      swap1\n      pop\n        /* \"Campaign.sol\":312:429  function getDeployedContracts()public view returns(address payable[] memory){... */\n      swap1\n      jump\t// out\n    tag_23:\n      dataSize(sub_0)\n      dup1\n      dataOffset(sub_0)\n      dup4\n      codecopy\n      add\n      swap1\n      jump\t// out\n        /* \"#utility.yul\":88:205   */\n    tag_32:\n        /* \"#utility.yul\":197:198   */\n      0x00\n        /* \"#utility.yul\":194:195   */\n      dup1\n        /* \"#utility.yul\":187:199   */\n      revert\n        /* \"#utility.yul\":334:411   */\n    tag_34:\n        /* \"#utility.yul\":371:378   */\n      0x00\n        /* \"#utility.yul\":400:405   */\n      dup2\n        /* \"#utility.yul\":389:405   */\n      swap1\n      pop\n        /* \"#utility.yul\":334:411   */\n      swap2\n      swap1\n      pop\n      jump\t// out\n        /* \"#utility.yul\":417:539   */\n    tag_35:\n        /* \"#utility.yul\":490:514   */\n      tag_56\n        /* \"#utility.yul\":508:513   */\n      dup2\n        /* \"#utility.yul\":490:514   */\n      tag_34\n      jump\t// in\n    tag_56:\n        /* \"#utility.yul\":483:488   */\n      dup2\n        /* \"#utility.yul\":480:515   */\n      eq\n        /* \"#utility.yul\":470:533   */\n      tag_57\n      jumpi\n        /* \"#utility.yul\":529:530   */\n      0x00\n        /* \"#utility.yul\":526:527   */\n      dup1\n        /* \"#utility.yul\":519:531   */\n      revert\n        /* \"#utility.yul\":470:533   */\n    tag_57:\n        /* \"#utility.yul\":417:539   */\n      pop\n      jump\t// out\n        /* \"#utility.yul\":545:684   */\n    tag_36:\n        /* \"#utility.yul\":591:596   */\n      0x00\n        /* \"#utility.yul\":629:635   */\n      dup2\n        /* \"#utility.yul\":616:636   */\n      calldataload\n        /* \"#utility.yul\":607:636   */\n      swap1\n      pop\n        /* \"#utility.yul\":645:678   */\n      tag_59\n        /* \"#utility.yul\":672:677   */\n      dup2\n        /* \"#utility.yul\":645:678   */\n      tag_35\n      jump\t// in\n    tag_59:\n        /* \"#utility.yul\":545:684   */\n      swap3\n      swap2\n      pop\n      pop\n      jump\t// out\n        /* \"#utility.yul\":690:1019   */\n    tag_8:\n        /* \"#utility.yul\":749:755   */\n      0x00\n        /* \"#utility.yul\":798:800   */\n      0x20\n        /* \"#utility.yul\":786:795   */\n      dup3\n        /* \"#utility.yul\":777:784   */\n      dup5\n        /* \"#utility.yul\":773:796   */\n      sub\n        /* \"#utility.yul\":769:801   */\n      slt\n        /* \"#utility.yul\":766:885   */\n      iszero\n      tag_61\n      jumpi\n        /* \"#utility.yul\":804:883   */\n      tag_62\n      tag_32\n      jump\t// in\n    tag_62:\n        /* \"#utility.yul\":766:885   */\n    tag_61:\n        /* \"#utility.yul\":924:925   */\n      0x00\n        /* \"#utility.yul\":949:1002   */\n      tag_63\n        /* \"#utility.yul\":994:1001   */\n      dup5\n        /* \"#utility.yul\":985:991   */\n      dup3\n        /* \"#utility.yul\":974:983   */\n      dup6\n        /* \"#utility.yul\":970:992   */\n      add\n        /* \"#utility.yul\":949:1002   */\n      tag_36\n      jump\t// in\n    tag_63:\n        /* \"#utility.yul\":939:1002   */\n      swap2\n      pop\n        /* \"#utility.yul\":895:1012   */\n      pop\n        /* \"#utility.yul\":690:1019   */\n      swap3\n      swap2\n      pop\n      pop\n      jump\t// out\n        /* \"#utility.yul\":1025:1151   */\n    tag_37:\n        /* \"#utility.yul\":1062:1069   */\n      0x00\n        /* \"#utility.yul\":1102:1144   */\n      0xffffffffffffffffffffffffffffffffffffffff\n        /* \"#utility.yul\":1095:1100   */\n      dup3\n        /* \"#utility.yul\":1091:1145   */\n      and\n        /* \"#utility.yul\":1080:1145   */\n      swap1\n      pop\n        /* \"#utility.yul\":1025:1151   */\n      swap2\n      swap1\n      pop\n      jump\t// out\n        /* \"#utility.yul\":1157:1261   */\n    tag_38:\n        /* \"#utility.yul\":1202:1209   */\n      0x00\n        /* \"#utility.yul\":1231:1255   */\n      tag_66\n        /* \"#utility.yul\":1249:1254   */\n      dup3\n        /* \"#utility.yul\":1231:1255   */\n      tag_37\n      jump\t// in\n    tag_66:\n        /* \"#utility.yul\":1220:1255   */\n      swap1\n      pop\n        /* \"#utility.yul\":1157:1261   */\n      swap2\n      swap1\n      pop\n      jump\t// out\n        /* \"#utility.yul\":1267:1409   */\n    tag_39:\n        /* \"#utility.yul\":1370:1402   */\n      tag_68\n        /* \"#utility.yul\":1396:1401   */\n      dup2\n        /* \"#utility.yul\":1370:1402   */\n      tag_38\n      jump\t// in\n    tag_68:\n        /* \"#utility.yul\":1365:1368   */\n      dup3\n        /* \"#utility.yul\":1358:1403   */\n      mstore\n        /* \"#utility.yul\":1267:1409   */\n      pop\n      pop\n      jump\t// out\n        /* \"#utility.yul\":1415:1669   */\n    tag_11:\n        /* \"#utility.yul\":1524:1528   */\n      0x00\n        /* \"#utility.yul\":1562:1564   */\n      0x20\n        /* \"#utility.yul\":1551:1560   */\n      dup3\n        /* \"#utility.yul\":1547:1565   */\n      add\n        /* \"#utility.yul\":1539:1565   */\n      swap1\n      pop\n        /* \"#utility.yul\":1575:1662   */\n      tag_70\n        /* \"#utility.yul\":1659:1660   */\n      0x00\n        /* \"#utility.yul\":1648:1657   */\n      dup4\n        /* \"#utility.yul\":1644:1661   */\n      add\n        /* \"#utility.yul\":1635:1641   */\n      dup5\n        /* \"#utility.yul\":1575:1662   */\n      tag_39\n      jump\t// in\n    tag_70:\n        /* \"#utility.yul\":1415:1669   */\n      swap3\n      swap2\n      pop\n      pop\n      jump\t// out\n        /* \"#utility.yul\":1675:1797   */\n    tag_40:\n        /* \"#utility.yul\":1750:1756   */\n      0x00\n        /* \"#utility.yul\":1784:1789   */\n      dup2\n        /* \"#utility.yul\":1778:1790   */\n      mload\n        /* \"#utility.yul\":1768:1790   */\n      swap1\n      pop\n        /* \"#utility.yul\":1675:1797   */\n      swap2\n      swap1\n      pop\n      jump\t// out\n        /* \"#utility.yul\":1803:1995   */\n    tag_41:\n        /* \"#utility.yul\":1910:1921   */\n      0x00\n        /* \"#utility.yul\":1944:1950   */\n      dup3\n        /* \"#utility.yul\":1939:1942   */\n      dup3\n        /* \"#utility.yul\":1932:1951   */\n      mstore\n        /* \"#utility.yul\":1984:1988   */\n      0x20\n        /* \"#utility.yul\":1979:1982   */\n      dup3\n        /* \"#utility.yul\":1975:1989   */\n      add\n        /* \"#utility.yul\":1960:1989   */\n      swap1\n      pop\n        /* \"#utility.yul\":1803:1995   */\n      swap3\n      swap2\n      pop\n      pop\n      jump\t// out\n        /* \"#utility.yul\":2001:2141   */\n    tag_42:\n        /* \"#utility.yul\":2076:2080   */\n      0x00\n        /* \"#utility.yul\":2099:2102   */\n      dup2\n        /* \"#utility.yul\":2091:2102   */\n      swap1\n      pop\n        /* \"#utility.yul\":2129:2133   */\n      0x20\n        /* \"#utility.yul\":2124:2127   */\n      dup3\n        /* \"#utility.yul\":2120:2134   */\n      add\n        /* \"#utility.yul\":2112:2134   */\n      swap1\n      pop\n        /* \"#utility.yul\":2001:2141   */\n      swap2\n      swap1\n      pop\n      jump\t// out\n        /* \"#utility.yul\":2147:2279   */\n    tag_43:\n        /* \"#utility.yul\":2240:2272   */\n      tag_75\n        /* \"#utility.yul\":2266:2271   */\n      dup2\n        /* \"#utility.yul\":2240:2272   */\n      tag_38\n      jump\t// in\n    tag_75:\n        /* \"#utility.yul\":2235:2238   */\n      dup3\n        /* \"#utility.yul\":2228:2273   */\n      mstore\n        /* \"#utility.yul\":2147:2279   */\n      pop\n      pop\n      jump\t// out\n        /* \"#utility.yul\":2285:2496   */\n    tag_44:\n        /* \"#utility.yul\":2370:2380   */\n      0x00\n        /* \"#utility.yul\":2391:2453   */\n      tag_77\n        /* \"#utility.yul\":2449:2452   */\n      dup4\n        /* \"#utility.yul\":2441:2447   */\n      dup4\n        /* \"#utility.yul\":2391:2453   */\n      tag_43\n      jump\t// in\n    tag_77:\n        /* \"#utility.yul\":2485:2489   */\n      0x20\n        /* \"#utility.yul\":2480:2483   */\n      dup4\n        /* \"#utility.yul\":2476:2490   */\n      add\n        /* \"#utility.yul\":2462:2490   */\n      swap1\n      pop\n        /* \"#utility.yul\":2285:2496   */\n      swap3\n      swap2\n      pop\n      pop\n      jump\t// out\n        /* \"#utility.yul\":2502:2623   */\n    tag_45:\n        /* \"#utility.yul\":2580:2584   */\n      0x00\n        /* \"#utility.yul\":2612:2616   */\n      0x20\n        /* \"#utility.yul\":2607:2610   */\n      dup3\n        /* \"#utility.yul\":2603:2617   */\n      add\n        /* \"#utility.yul\":2595:2617   */\n      swap1\n      pop\n        /* \"#utility.yul\":2502:2623   */\n      swap2\n      swap1\n      pop\n      jump\t// out\n        /* \"#utility.yul\":2675:3471   */\n    tag_46:\n        /* \"#utility.yul\":2810:2813   */\n      0x00\n        /* \"#utility.yul\":2839:2901   */\n      tag_80\n        /* \"#utility.yul\":2895:2900   */\n      dup3\n        /* \"#utility.yul\":2839:2901   */\n      tag_40\n      jump\t// in\n    tag_80:\n        /* \"#utility.yul\":2917:3011   */\n      tag_81\n        /* \"#utility.yul\":3004:3010   */\n      dup2\n        /* \"#utility.yul\":2999:3002   */\n      dup6\n        /* \"#utility.yul\":2917:3011   */\n      tag_41\n      jump\t// in\n    tag_81:\n        /* \"#utility.yul\":2910:3011   */\n      swap4\n      pop\n        /* \"#utility.yul\":3035:3099   */\n      tag_82\n        /* \"#utility.yul\":3093:3098   */\n      dup4\n        /* \"#utility.yul\":3035:3099   */\n      tag_42\n      jump\t// in\n    tag_82:\n        /* \"#utility.yul\":3122:3129   */\n      dup1\n        /* \"#utility.yul\":3153:3154   */\n      0x00\n        /* \"#utility.yul\":3138:3446   */\n    tag_83:\n        /* \"#utility.yul\":3163:3169   */\n      dup4\n        /* \"#utility.yul\":3160:3161   */\n      dup2\n        /* \"#utility.yul\":3157:3170   */\n      lt\n        /* \"#utility.yul\":3138:3446   */\n      iszero\n      tag_85\n      jumpi\n        /* \"#utility.yul\":3239:3245   */\n      dup2\n        /* \"#utility.yul\":3233:3246   */\n      mload\n        /* \"#utility.yul\":3266:3345   */\n      tag_86\n        /* \"#utility.yul\":3341:3344   */\n      dup9\n        /* \"#utility.yul\":3326:3339   */\n      dup3\n        /* \"#utility.yul\":3266:3345   */\n      tag_44\n      jump\t// in\n    tag_86:\n        /* \"#utility.yul\":3259:3345   */\n      swap8\n      pop\n        /* \"#utility.yul\":3368:3436   */\n      tag_87\n        /* \"#utility.yul\":3429:3435   */\n      dup4\n        /* \"#utility.yul\":3368:3436   */\n      tag_45\n      jump\t// in\n    tag_87:\n        /* \"#utility.yul\":3358:3436   */\n      swap3\n      pop\n        /* \"#utility.yul\":3198:3446   */\n      pop\n        /* \"#utility.yul\":3185:3186   */\n      0x01\n        /* \"#utility.yul\":3182:3183   */\n      dup2\n        /* \"#utility.yul\":3178:3187   */\n      add\n        /* \"#utility.yul\":3173:3187   */\n      swap1\n      pop\n        /* \"#utility.yul\":3138:3446   */\n      jump(tag_83)\n    tag_85:\n        /* \"#utility.yul\":3142:3156   */\n      pop\n        /* \"#utility.yul\":3462:3465   */\n      dup6\n        /* \"#utility.yul\":3455:3465   */\n      swap4\n      pop\n        /* \"#utility.yul\":2815:3471   */\n      pop\n      pop\n      pop\n        /* \"#utility.yul\":2675:3471   */\n      swap3\n      swap2\n      pop\n      pop\n      jump\t// out\n        /* \"#utility.yul\":3477:3882   */\n    tag_18:\n        /* \"#utility.yul\":3636:3640   */\n      0x00\n        /* \"#utility.yul\":3674:3676   */\n      0x20\n        /* \"#utility.yul\":3663:3672   */\n      dup3\n        /* \"#utility.yul\":3659:3677   */\n      add\n        /* \"#utility.yul\":3651:3677   */\n      swap1\n      pop\n        /* \"#utility.yul\":3723:3732   */\n      dup2\n        /* \"#utility.yul\":3717:3721   */\n      dup2\n        /* \"#utility.yul\":3713:3733   */\n      sub\n        /* \"#utility.yul\":3709:3710   */\n      0x00\n        /* \"#utility.yul\":3698:3707   */\n      dup4\n        /* \"#utility.yul\":3694:3711   */\n      add\n        /* \"#utility.yul\":3687:3734   */\n      mstore\n        /* \"#utility.yul\":3751:3875   */\n      tag_89\n        /* \"#utility.yul\":3870:3874   */\n      dup2\n        /* \"#utility.yul\":3861:3867   */\n      dup5\n        /* \"#utility.yul\":3751:3875   */\n      tag_46\n      jump\t// in\n    tag_89:\n        /* \"#utility.yul\":3743:3875   */\n      swap1\n      pop\n        /* \"#utility.yul\":3477:3882   */\n      swap3\n      swap2\n      pop\n      pop\n      jump\t// out\n        /* \"#utility.yul\":3888:3984   */\n    tag_47:\n        /* \"#utility.yul\":3925:3932   */\n      0x00\n        /* \"#utility.yul\":3954:3978   */\n      tag_91\n        /* \"#utility.yul\":3972:3977   */\n      dup3\n        /* \"#utility.yul\":3954:3978   */\n      tag_37\n      jump\t// in\n    tag_91:\n        /* \"#utility.yul\":3943:3978   */\n      swap1\n      pop\n        /* \"#utility.yul\":3888:3984   */\n      swap2\n      swap1\n      pop\n      jump\t// out\n        /* \"#utility.yul\":3990:4108   */\n    tag_48:\n        /* \"#utility.yul\":4077:4101   */\n      tag_93\n        /* \"#utility.yul\":4095:4100   */\n      dup2\n        /* \"#utility.yul\":4077:4101   */\n      tag_47\n      jump\t// in\n    tag_93:\n        /* \"#utility.yul\":4072:4075   */\n      dup3\n        /* \"#utility.yul\":4065:4102   */\n      mstore\n        /* \"#utility.yul\":3990:4108   */\n      pop\n      pop\n      jump\t// out\n        /* \"#utility.yul\":4114:4232   */\n    tag_49:\n        /* \"#utility.yul\":4201:4225   */\n      tag_95\n        /* \"#utility.yul\":4219:4224   */\n      dup2\n        /* \"#utility.yul\":4201:4225   */\n      tag_34\n      jump\t// in\n    tag_95:\n        /* \"#utility.yul\":4196:4199   */\n      dup3\n        /* \"#utility.yul\":4189:4226   */\n      mstore\n        /* \"#utility.yul\":4114:4232   */\n      pop\n      pop\n      jump\t// out\n        /* \"#utility.yul\":4238:4570   */\n    tag_25:\n        /* \"#utility.yul\":4359:4363   */\n      0x00\n        /* \"#utility.yul\":4397:4399   */\n      0x40\n        /* \"#utility.yul\":4386:4395   */\n      dup3\n        /* \"#utility.yul\":4382:4400   */\n      add\n        /* \"#utility.yul\":4374:4400   */\n      swap1\n      pop\n        /* \"#utility.yul\":4410:4481   */\n      tag_97\n        /* \"#utility.yul\":4478:4479   */\n      0x00\n        /* \"#utility.yul\":4467:4476   */\n      dup4\n        /* \"#utility.yul\":4463:4480   */\n      add\n        /* \"#utility.yul\":4454:4460   */\n      dup6\n        /* \"#utility.yul\":4410:4481   */\n      tag_48\n      jump\t// in\n    tag_97:\n        /* \"#utility.yul\":4491:4563   */\n      tag_98\n        /* \"#utility.yul\":4559:4561   */\n      0x20\n        /* \"#utility.yul\":4548:4557   */\n      dup4\n        /* \"#utility.yul\":4544:4562   */\n      add\n        /* \"#utility.yul\":4535:4541   */\n      dup5\n        /* \"#utility.yul\":4491:4563   */\n      tag_49\n      jump\t// in\n    tag_98:\n        /* \"#utility.yul\":4238:4570   */\n      swap4\n      swap3\n      pop\n      pop\n      pop\n      jump\t// out\n    stop\n\n    sub_0: assembly {\n            /* \"Campaign.sol\":433:2625  contract Campaign {... */\n          mstore(0x40, 0x80)\n            /* \"Campaign.sol\":832:967  constructor(address creator, uint minimumContribution){... */\n          callvalue\n          dup1\n          iszero\n          tag_1\n          jumpi\n          0x00\n          dup1\n          revert\n        tag_1:\n          pop\n          mload(0x40)\n          sub(codesize, bytecodeSize)\n          dup1\n          bytecodeSize\n          dup4\n          codecopy\n          dup2\n          dup2\n          add\n          0x40\n          mstore\n          dup2\n          add\n          swap1\n          tag_2\n          swap2\n          swap1\n          tag_3\n          jump\t// in\n        tag_2:\n            /* \"Campaign.sol\":906:913  creator */\n          dup2\n            /* \"Campaign.sol\":896:903  manager */\n          0x00\n          dup1\n            /* \"Campaign.sol\":896:913  manager = creator */\n          0x0100\n          exp\n          dup2\n          sload\n          dup2\n          0xffffffffffffffffffffffffffffffffffffffff\n          mul\n          not\n          and\n          swap1\n          dup4\n          0xffffffffffffffffffffffffffffffffffffffff\n          and\n          mul\n          or\n          swap1\n          sstore\n          pop\n            /* \"Campaign.sol\":941:960  minimumContribution */\n          dup1\n            /* \"Campaign.sol\":923:938  minContribution */\n          0x01\n            /* \"Campaign.sol\":923:960  minContribution = minimumContribution */\n          dup2\n          swap1\n          sstore\n          pop\n            /* \"Campaign.sol\":832:967  constructor(address creator, uint minimumContribution){... */\n          pop\n          pop\n            /* \"Campaign.sol\":433:2625  contract Campaign {... */\n          jump(tag_6)\n            /* \"#utility.yul\":88:205   */\n        tag_8:\n            /* \"#utility.yul\":197:198   */\n          0x00\n            /* \"#utility.yul\":194:195   */\n          dup1\n            /* \"#utility.yul\":187:199   */\n          revert\n            /* \"#utility.yul\":334:460   */\n        tag_10:\n            /* \"#utility.yul\":371:378   */\n          0x00\n            /* \"#utility.yul\":411:453   */\n          0xffffffffffffffffffffffffffffffffffffffff\n            /* \"#utility.yul\":404:409   */\n          dup3\n            /* \"#utility.yul\":400:454   */\n          and\n            /* \"#utility.yul\":389:454   */\n          swap1\n          pop\n            /* \"#utility.yul\":334:460   */\n          swap2\n          swap1\n          pop\n          jump\t// out\n            /* \"#utility.yul\":466:562   */\n        tag_11:\n            /* \"#utility.yul\":503:510   */\n          0x00\n            /* \"#utility.yul\":532:556   */\n          tag_23\n            /* \"#utility.yul\":550:555   */\n          dup3\n            /* \"#utility.yul\":532:556   */\n          tag_10\n          jump\t// in\n        tag_23:\n            /* \"#utility.yul\":521:556   */\n          swap1\n          pop\n            /* \"#utility.yul\":466:562   */\n          swap2\n          swap1\n          pop\n          jump\t// out\n            /* \"#utility.yul\":568:690   */\n        tag_12:\n            /* \"#utility.yul\":641:665   */\n          tag_25\n            /* \"#utility.yul\":659:664   */\n          dup2\n            /* \"#utility.yul\":641:665   */\n          tag_11\n          jump\t// in\n        tag_25:\n            /* \"#utility.yul\":634:639   */\n          dup2\n            /* \"#utility.yul\":631:666   */\n          eq\n            /* \"#utility.yul\":621:684   */\n          tag_26\n          jumpi\n            /* \"#utility.yul\":680:681   */\n          0x00\n            /* \"#utility.yul\":677:678   */\n          dup1\n            /* \"#utility.yul\":670:682   */\n          revert\n            /* \"#utility.yul\":621:684   */\n        tag_26:\n            /* \"#utility.yul\":568:690   */\n          pop\n          jump\t// out\n            /* \"#utility.yul\":696:839   */\n        tag_13:\n            /* \"#utility.yul\":753:758   */\n          0x00\n            /* \"#utility.yul\":784:790   */\n          dup2\n            /* \"#utility.yul\":778:791   */\n          mload\n            /* \"#utility.yul\":769:791   */\n          swap1\n          pop\n            /* \"#utility.yul\":800:833   */\n          tag_28\n            /* \"#utility.yul\":827:832   */\n          dup2\n            /* \"#utility.yul\":800:833   */\n          tag_12\n          jump\t// in\n        tag_28:\n            /* \"#utility.yul\":696:839   */\n          swap3\n          swap2\n          pop\n          pop\n          jump\t// out\n            /* \"#utility.yul\":845:922   */\n        tag_14:\n            /* \"#utility.yul\":882:889   */\n          0x00\n            /* \"#utility.yul\":911:916   */\n          dup2\n            /* \"#utility.yul\":900:916   */\n          swap1\n          pop\n            /* \"#utility.yul\":845:922   */\n          swap2\n          swap1\n          pop\n          jump\t// out\n            /* \"#utility.yul\":928:1050   */\n        tag_15:\n            /* \"#utility.yul\":1001:1025   */\n          tag_31\n            /* \"#utility.yul\":1019:1024   */\n          dup2\n            /* \"#utility.yul\":1001:1025   */\n          tag_14\n          jump\t// in\n        tag_31:\n            /* \"#utility.yul\":994:999   */\n          dup2\n            /* \"#utility.yul\":991:1026   */\n          eq\n            /* \"#utility.yul\":981:1044   */\n          tag_32\n          jumpi\n            /* \"#utility.yul\":1040:1041   */\n          0x00\n            /* \"#utility.yul\":1037:1038   */\n          dup1\n            /* \"#utility.yul\":1030:1042   */\n          revert\n            /* \"#utility.yul\":981:1044   */\n        tag_32:\n            /* \"#utility.yul\":928:1050   */\n          pop\n          jump\t// out\n            /* \"#utility.yul\":1056:1199   */\n        tag_16:\n            /* \"#utility.yul\":1113:1118   */\n          0x00\n            /* \"#utility.yul\":1144:1150   */\n          dup2\n            /* \"#utility.yul\":1138:1151   */\n          mload\n            /* \"#utility.yul\":1129:1151   */\n          swap1\n          pop\n            /* \"#utility.yul\":1160:1193   */\n          tag_34\n            /* \"#utility.yul\":1187:1192   */\n          dup2\n            /* \"#utility.yul\":1160:1193   */\n          tag_15\n          jump\t// in\n        tag_34:\n            /* \"#utility.yul\":1056:1199   */\n          swap3\n          swap2\n          pop\n          pop\n          jump\t// out\n            /* \"#utility.yul\":1205:1712   */\n        tag_3:\n            /* \"#utility.yul\":1284:1290   */\n          0x00\n            /* \"#utility.yul\":1292:1298   */\n          dup1\n            /* \"#utility.yul\":1341:1343   */\n          0x40\n            /* \"#utility.yul\":1329:1338   */\n          dup4\n            /* \"#utility.yul\":1320:1327   */\n          dup6\n            /* \"#utility.yul\":1316:1339   */\n          sub\n            /* \"#utility.yul\":1312:1344   */\n          slt\n            /* \"#utility.yul\":1309:1428   */\n          iszero\n          tag_36\n          jumpi\n            /* \"#utility.yul\":1347:1426   */\n          tag_37\n          tag_8\n          jump\t// in\n        tag_37:\n            /* \"#utility.yul\":1309:1428   */\n        tag_36:\n            /* \"#utility.yul\":1467:1468   */\n          0x00\n            /* \"#utility.yul\":1492:1556   */\n          tag_38\n            /* \"#utility.yul\":1548:1555   */\n          dup6\n            /* \"#utility.yul\":1539:1545   */\n          dup3\n            /* \"#utility.yul\":1528:1537   */\n          dup7\n            /* \"#utility.yul\":1524:1546   */\n          add\n            /* \"#utility.yul\":1492:1556   */\n          tag_13\n          jump\t// in\n        tag_38:\n            /* \"#utility.yul\":1482:1556   */\n          swap3\n          pop\n            /* \"#utility.yul\":1438:1566   */\n          pop\n            /* \"#utility.yul\":1605:1607   */\n          0x20\n            /* \"#utility.yul\":1631:1695   */\n          tag_39\n            /* \"#utility.yul\":1687:1694   */\n          dup6\n            /* \"#utility.yul\":1678:1684   */\n          dup3\n            /* \"#utility.yul\":1667:1676   */\n          dup7\n            /* \"#utility.yul\":1663:1685   */\n          add\n            /* \"#utility.yul\":1631:1695   */\n          tag_16\n          jump\t// in\n        tag_39:\n            /* \"#utility.yul\":1621:1695   */\n          swap2\n          pop\n            /* \"#utility.yul\":1576:1705   */\n          pop\n            /* \"#utility.yul\":1205:1712   */\n          swap3\n          pop\n          swap3\n          swap1\n          pop\n          jump\t// out\n            /* \"Campaign.sol\":433:2625  contract Campaign {... */\n        tag_6:\n          dataSize(sub_0)\n          dup1\n          dataOffset(sub_0)\n          0x00\n          codecopy\n          0x00\n          return\n        stop\n\n        sub_0: assembly {\n                /* \"Campaign.sol\":433:2625  contract Campaign {... */\n              mstore(0x40, 0x80)\n              jumpi(tag_1, lt(calldatasize, 0x04))\n              shr(0xe0, calldataload(0x00))\n              dup1\n              0x481c6a75\n              gt\n              tag_13\n              jumpi\n              dup1\n              0x481c6a75\n              eq\n              tag_7\n              jumpi\n              dup1\n              0x82fde093\n              eq\n              tag_8\n              jumpi\n              dup1\n              0x8a9cfd55\n              eq\n              tag_9\n              jumpi\n              dup1\n              0xaaffadf3\n              eq\n              tag_10\n              jumpi\n              dup1\n              0xd7bb99ba\n              eq\n              tag_11\n              jumpi\n              dup1\n              0xd7d1bbdb\n              eq\n              tag_12\n              jumpi\n              jump(tag_1)\n            tag_13:\n              dup1\n              0x02e9d43b\n              eq\n              tag_2\n              jumpi\n              dup1\n              0x03441006\n              eq\n              tag_3\n              jumpi\n              dup1\n              0x0a144391\n              eq\n              tag_4\n              jumpi\n              dup1\n              0x3fad1834\n              eq\n              tag_5\n              jumpi\n              dup1\n              0x4051ddac\n              eq\n              tag_6\n              jumpi\n            tag_1:\n              0x00\n              dup1\n              revert\n                /* \"Campaign.sol\":718:746  Request[] public requestList */\n            tag_2:\n              callvalue\n              dup1\n              iszero\n              tag_14\n              jumpi\n              0x00\n              dup1\n              revert\n            tag_14:\n              pop\n              tag_15\n              0x04\n              dup1\n              calldatasize\n              sub\n              dup2\n              add\n              swap1\n              tag_16\n              swap2\n              swap1\n              tag_17\n              jump\t// in\n            tag_16:\n              tag_18\n              jump\t// in\n            tag_15:\n              mload(0x40)\n              tag_19\n              swap6\n              swap5\n              swap4\n              swap3\n              swap2\n              swap1\n              tag_20\n              jump\t// in\n            tag_19:\n              mload(0x40)\n              dup1\n              swap2\n              sub\n              swap1\n              return\n                /* \"Campaign.sol\":1940:2246  function finalizeRequest(uint index)public restricted{... */\n            tag_3:\n              callvalue\n              dup1\n              iszero\n              tag_21\n              jumpi\n              0x00\n              dup1\n              revert\n            tag_21:\n              pop\n              tag_22\n              0x04\n              dup1\n              calldatasize\n              sub\n              dup2\n              add\n              swap1\n              tag_23\n              swap2\n              swap1\n              tag_17\n              jump\t// in\n            tag_23:\n              tag_24\n              jump\t// in\n            tag_22:\n              stop\n                /* \"Campaign.sol\":752:793  mapping(address => bool) public approvers */\n            tag_4:\n              callvalue\n              dup1\n              iszero\n              tag_25\n              jumpi\n              0x00\n              dup1\n              revert\n            tag_25:\n              pop\n              tag_26\n              0x04\n              dup1\n              calldatasize\n              sub\n              dup2\n              add\n              swap1\n              tag_27\n              swap2\n              swap1\n              tag_28\n              jump\t// in\n            tag_27:\n              tag_29\n              jump\t// in\n            tag_26:\n              mload(0x40)\n              tag_30\n              swap2\n              swap1\n              tag_31\n              jump\t// in\n            tag_30:\n              mload(0x40)\n              dup1\n              swap2\n              sub\n              swap1\n              return\n                /* \"Campaign.sol\":2530:2623  function getRequestCount()public view returns(uint){... */\n            tag_5:\n              callvalue\n              dup1\n              iszero\n              tag_32\n              jumpi\n              0x00\n              dup1\n              revert\n            tag_32:\n              pop\n              tag_33\n              tag_34\n              jump\t// in\n            tag_33:\n              mload(0x40)\n              tag_35\n              swap2\n              swap1\n              tag_36\n              jump\t// in\n            tag_35:\n              mload(0x40)\n              dup1\n              swap2\n              sub\n              swap1\n              return\n                /* \"Campaign.sol\":2278:2524  function getSummary()public view returns(uint, uint, uint, uint, address){... */\n            tag_6:\n              callvalue\n              dup1\n              iszero\n              tag_37\n              jumpi\n              0x00\n              dup1\n              revert\n            tag_37:\n              pop\n              tag_38\n              tag_39\n              jump\t// in\n            tag_38:\n              mload(0x40)\n              tag_40\n              swap6\n              swap5\n              swap4\n              swap3\n              swap2\n              swap1\n              tag_41\n              jump\t// in\n            tag_40:\n              mload(0x40)\n              dup1\n              swap2\n              sub\n              swap1\n              return\n                /* \"Campaign.sol\":657:679  address public manager */\n            tag_7:\n              callvalue\n              dup1\n              iszero\n              tag_42\n              jumpi\n              0x00\n              dup1\n              revert\n            tag_42:\n              pop\n              tag_43\n              tag_44\n              jump\t// in\n            tag_43:\n              mload(0x40)\n              tag_45\n              swap2\n              swap1\n              tag_46\n              jump\t// in\n            tag_45:\n              mload(0x40)\n              dup1\n              swap2\n              sub\n              swap1\n              return\n                /* \"Campaign.sol\":799:825  uint public approversCount */\n            tag_8:\n              callvalue\n              dup1\n              iszero\n              tag_47\n              jumpi\n              0x00\n              dup1\n              revert\n            tag_47:\n              pop\n              tag_48\n              tag_49\n              jump\t// in\n            tag_48:\n              mload(0x40)\n              tag_50\n              swap2\n              swap1\n              tag_36\n              jump\t// in\n            tag_50:\n              mload(0x40)\n              dup1\n              swap2\n              sub\n              swap1\n              return\n                /* \"Campaign.sol\":1218:1594  function createRequest(string memory newDescription, uint newValue, address newRecepient)public restricted{... */\n            tag_9:\n              callvalue\n              dup1\n              iszero\n              tag_51\n              jumpi\n              0x00\n              dup1\n              revert\n            tag_51:\n              pop\n              tag_52\n              0x04\n              dup1\n              calldatasize\n              sub\n              dup2\n              add\n              swap1\n              tag_53\n              swap2\n              swap1\n              tag_54\n              jump\t// in\n            tag_53:\n              tag_55\n              jump\t// in\n            tag_52:\n              stop\n                /* \"Campaign.sol\":685:712  uint public minContribution */\n            tag_10:\n              callvalue\n              dup1\n              iszero\n              tag_56\n              jumpi\n              0x00\n              dup1\n              revert\n            tag_56:\n              pop\n              tag_57\n              tag_58\n              jump\t// in\n            tag_57:\n              mload(0x40)\n              tag_59\n              swap2\n              swap1\n              tag_36\n              jump\t// in\n            tag_59:\n              mload(0x40)\n              dup1\n              swap2\n              sub\n              swap1\n              return\n                /* \"Campaign.sol\":1058:1212  function contribute() public payable{... */\n            tag_11:\n              tag_60\n              tag_61\n              jump\t// in\n            tag_60:\n              stop\n                /* \"Campaign.sol\":1626:1908  function approveRequest(uint index)public{... */\n            tag_12:\n              callvalue\n              dup1\n              iszero\n              tag_62\n              jumpi\n              0x00\n              dup1\n              revert\n            tag_62:\n              pop\n              tag_63\n              0x04\n              dup1\n              calldatasize\n              sub\n              dup2\n              add\n              swap1\n              tag_64\n              swap2\n              swap1\n              tag_17\n              jump\t// in\n            tag_64:\n              tag_65\n              jump\t// in\n            tag_63:\n              stop\n                /* \"Campaign.sol\":718:746  Request[] public requestList */\n            tag_18:\n              0x02\n              dup2\n              dup2\n              sload\n              dup2\n              lt\n              tag_66\n              jumpi\n              0x00\n              dup1\n              revert\n            tag_66:\n              swap1\n              0x00\n              mstore\n              keccak256(0x00, 0x20)\n              swap1\n              0x05\n              mul\n              add\n              0x00\n              swap2\n              pop\n              swap1\n              pop\n              dup1\n              0x00\n              add\n              dup1\n              sload\n              tag_68\n              swap1\n              tag_69\n              jump\t// in\n            tag_68:\n              dup1\n              0x1f\n              add\n              0x20\n              dup1\n              swap2\n              div\n              mul\n              0x20\n              add\n              mload(0x40)\n              swap1\n              dup2\n              add\n              0x40\n              mstore\n              dup1\n              swap3\n              swap2\n              swap1\n              dup2\n              dup2\n              mstore\n              0x20\n              add\n              dup3\n              dup1\n              sload\n              tag_70\n              swap1\n              tag_69\n              jump\t// in\n            tag_70:\n              dup1\n              iszero\n              tag_71\n              jumpi\n              dup1\n              0x1f\n              lt\n              tag_72\n              jumpi\n              0x0100\n              dup1\n              dup4\n              sload\n              div\n              mul\n              dup4\n              mstore\n              swap2\n              0x20\n              add\n              swap2\n              jump(tag_71)\n            tag_72:\n              dup3\n              add\n              swap2\n              swap1\n              0x00\n              mstore\n              keccak256(0x00, 0x20)\n              swap1\n            tag_73:\n              dup2\n              sload\n              dup2\n              mstore\n              swap1\n              0x01\n              add\n              swap1\n              0x20\n              add\n              dup1\n              dup4\n              gt\n              tag_73\n              jumpi\n              dup3\n              swap1\n              sub\n              0x1f\n              and\n              dup3\n              add\n              swap2\n            tag_71:\n              pop\n              pop\n              pop\n              pop\n              pop\n              swap1\n              dup1\n              0x01\n              add\n              sload\n              swap1\n              dup1\n              0x02\n              add\n              0x00\n              swap1\n              sload\n              swap1\n              0x0100\n              exp\n              swap1\n              div\n              0xffffffffffffffffffffffffffffffffffffffff\n              and\n              swap1\n              dup1\n              0x02\n              add\n              0x14\n              swap1\n              sload\n              swap1\n              0x0100\n              exp\n              swap1\n              div\n              0xff\n              and\n              swap1\n              dup1\n              0x03\n              add\n              sload\n              swap1\n              pop\n              dup6\n              jump\t// out\n                /* \"Campaign.sol\":1940:2246  function finalizeRequest(uint index)public restricted{... */\n            tag_24:\n                /* \"Campaign.sol\":1026:1033  manager */\n              0x00\n              dup1\n              sload\n              swap1\n              0x0100\n              exp\n              swap1\n              div\n              0xffffffffffffffffffffffffffffffffffffffff\n              and\n                /* \"Campaign.sol\":1012:1033  msg.sender == manager */\n              0xffffffffffffffffffffffffffffffffffffffff\n              and\n                /* \"Campaign.sol\":1012:1022  msg.sender */\n              caller\n                /* \"Campaign.sol\":1012:1033  msg.sender == manager */\n              0xffffffffffffffffffffffffffffffffffffffff\n              and\n              eq\n                /* \"Campaign.sol\":1004:1034  require(msg.sender == manager) */\n              tag_75\n              jumpi\n              0x00\n              dup1\n              revert\n            tag_75:\n                /* \"Campaign.sol\":2003:2026  Request storage request */\n              0x00\n                /* \"Campaign.sol\":2029:2040  requestList */\n              0x02\n                /* \"Campaign.sol\":2041:2046  index */\n              dup3\n                /* \"Campaign.sol\":2029:2047  requestList[index] */\n              dup2\n              sload\n              dup2\n              lt\n              tag_77\n              jumpi\n              tag_78\n              tag_79\n              jump\t// in\n            tag_78:\n            tag_77:\n              swap1\n              0x00\n              mstore\n              keccak256(0x00, 0x20)\n              swap1\n              0x05\n              mul\n              add\n                /* \"Campaign.sol\":2003:2047  Request storage request = requestList[index] */\n              swap1\n              pop\n                /* \"Campaign.sol\":2106:2107  2 */\n              0x02\n                /* \"Campaign.sol\":2091:2105  approversCount */\n              sload(0x04)\n                /* \"Campaign.sol\":2091:2107  approversCount/2 */\n              tag_81\n              swap2\n              swap1\n              tag_82\n              jump\t// in\n            tag_81:\n                /* \"Campaign.sol\":2066:2073  request */\n              dup2\n                /* \"Campaign.sol\":2066:2087  request.approvalCount */\n              0x03\n              add\n              sload\n                /* \"Campaign.sol\":2066:2108  request.approvalCount > (approversCount/2) */\n              gt\n                /* \"Campaign.sol\":2058:2109  require(request.approvalCount > (approversCount/2)) */\n              tag_83\n              jumpi\n              0x00\n              dup1\n              revert\n            tag_83:\n                /* \"Campaign.sol\":2128:2135  request */\n              dup1\n                /* \"Campaign.sol\":2128:2144  request.complete */\n              0x02\n              add\n              0x14\n              swap1\n              sload\n              swap1\n              0x0100\n              exp\n              swap1\n              div\n              0xff\n              and\n                /* \"Campaign.sol\":2127:2144  !request.complete */\n              iszero\n                /* \"Campaign.sol\":2119:2145  require(!request.complete) */\n              tag_84\n              jumpi\n              0x00\n              dup1\n              revert\n            tag_84:\n                /* \"Campaign.sol\":2164:2171  request */\n              dup1\n                /* \"Campaign.sol\":2164:2181  request.recepient */\n              0x02\n              add\n              0x00\n              swap1\n              sload\n              swap1\n              0x0100\n              exp\n              swap1\n              div\n              0xffffffffffffffffffffffffffffffffffffffff\n              and\n                /* \"Campaign.sol\":2156:2191  payable(request.recepient).transfer */\n              0xffffffffffffffffffffffffffffffffffffffff\n              and\n                /* \"Campaign.sol\":2156:2206  payable(request.recepient).transfer(request.value) */\n              0x08fc\n                /* \"Campaign.sol\":2192:2199  request */\n              dup3\n                /* \"Campaign.sol\":2192:2205  request.value */\n              0x01\n              add\n              sload\n                /* \"Campaign.sol\":2156:2206  payable(request.recepient).transfer(request.value) */\n              swap1\n              dup2\n              iszero\n              mul\n              swap1\n              mload(0x40)\n              0x00\n              mload(0x40)\n              dup1\n              dup4\n              sub\n              dup2\n              dup6\n              dup9\n              dup9\n              call\n              swap4\n              pop\n              pop\n              pop\n              pop\n              iszero\n              dup1\n              iszero\n              tag_86\n              jumpi\n              returndatasize\n              0x00\n              dup1\n              returndatacopy\n              revert(0x00, returndatasize)\n            tag_86:\n              pop\n                /* \"Campaign.sol\":2235:2239  true */\n              0x01\n                /* \"Campaign.sol\":2216:2223  request */\n              dup2\n                /* \"Campaign.sol\":2216:2232  request.complete */\n              0x02\n              add\n              0x14\n                /* \"Campaign.sol\":2216:2239  request.complete = true */\n              0x0100\n              exp\n              dup2\n              sload\n              dup2\n              0xff\n              mul\n              not\n              and\n              swap1\n              dup4\n              iszero\n              iszero\n              mul\n              or\n              swap1\n              sstore\n              pop\n                /* \"Campaign.sol\":1993:2246  {... */\n              pop\n                /* \"Campaign.sol\":1940:2246  function finalizeRequest(uint index)public restricted{... */\n              pop\n              jump\t// out\n                /* \"Campaign.sol\":752:793  mapping(address => bool) public approvers */\n            tag_29:\n              mstore(0x20, 0x03)\n              dup1\n              0x00\n              mstore\n              keccak256(0x00, 0x40)\n              0x00\n              swap2\n              pop\n              sload\n              swap1\n              0x0100\n              exp\n              swap1\n              div\n              0xff\n              and\n              dup2\n              jump\t// out\n                /* \"Campaign.sol\":2530:2623  function getRequestCount()public view returns(uint){... */\n            tag_34:\n                /* \"Campaign.sol\":2576:2580  uint */\n              0x00\n                /* \"Campaign.sol\":2598:2609  requestList */\n              0x02\n                /* \"Campaign.sol\":2598:2616  requestList.length */\n              dup1\n              sload\n              swap1\n              pop\n                /* \"Campaign.sol\":2591:2616  return requestList.length */\n              swap1\n              pop\n                /* \"Campaign.sol\":2530:2623  function getRequestCount()public view returns(uint){... */\n              swap1\n              jump\t// out\n                /* \"Campaign.sol\":2278:2524  function getSummary()public view returns(uint, uint, uint, uint, address){... */\n            tag_39:\n                /* \"Campaign.sol\":2319:2323  uint */\n              0x00\n                /* \"Campaign.sol\":2325:2329  uint */\n              dup1\n                /* \"Campaign.sol\":2331:2335  uint */\n              0x00\n                /* \"Campaign.sol\":2337:2341  uint */\n              dup1\n                /* \"Campaign.sol\":2343:2350  address */\n              0x00\n                /* \"Campaign.sol\":2369:2384  minContribution */\n              sload(0x01)\n                /* \"Campaign.sol\":2402:2423  address(this).balance */\n              selfbalance\n                /* \"Campaign.sol\":2441:2452  requestList */\n              0x02\n                /* \"Campaign.sol\":2441:2459  requestList.length */\n              dup1\n              sload\n              swap1\n              pop\n                /* \"Campaign.sol\":2477:2491  approversCount */\n              sload(0x04)\n                /* \"Campaign.sol\":2509:2516  manager */\n              0x00\n              dup1\n              sload\n              swap1\n              0x0100\n              exp\n              swap1\n              div\n              0xffffffffffffffffffffffffffffffffffffffff\n              and\n                /* \"Campaign.sol\":2361:2517  return (minContribution,... */\n              swap5\n              pop\n              swap5\n              pop\n              swap5\n              pop\n              swap5\n              pop\n              swap5\n              pop\n                /* \"Campaign.sol\":2278:2524  function getSummary()public view returns(uint, uint, uint, uint, address){... */\n              swap1\n              swap2\n              swap3\n              swap4\n              swap5\n              jump\t// out\n                /* \"Campaign.sol\":657:679  address public manager */\n            tag_44:\n              0x00\n              dup1\n              sload\n              swap1\n              0x0100\n              exp\n              swap1\n              div\n              0xffffffffffffffffffffffffffffffffffffffff\n              and\n              dup2\n              jump\t// out\n                /* \"Campaign.sol\":799:825  uint public approversCount */\n            tag_49:\n              sload(0x04)\n              dup2\n              jump\t// out\n                /* \"Campaign.sol\":1218:1594  function createRequest(string memory newDescription, uint newValue, address newRecepient)public restricted{... */\n            tag_55:\n                /* \"Campaign.sol\":1026:1033  manager */\n              0x00\n              dup1\n              sload\n              swap1\n              0x0100\n              exp\n              swap1\n              div\n              0xffffffffffffffffffffffffffffffffffffffff\n              and\n                /* \"Campaign.sol\":1012:1033  msg.sender == manager */\n              0xffffffffffffffffffffffffffffffffffffffff\n              and\n                /* \"Campaign.sol\":1012:1022  msg.sender */\n              caller\n                /* \"Campaign.sol\":1012:1033  msg.sender == manager */\n              0xffffffffffffffffffffffffffffffffffffffff\n              and\n              eq\n                /* \"Campaign.sol\":1004:1034  require(msg.sender == manager) */\n              tag_90\n              jumpi\n              0x00\n              dup1\n              revert\n            tag_90:\n                /* \"Campaign.sol\":1334:1360  Request storage newRequest */\n              0x00\n                /* \"Campaign.sol\":1363:1374  requestList */\n              0x02\n                /* \"Campaign.sol\":1363:1381  requestList.push() */\n              0x01\n              dup2\n              0x01\n              dup2\n              sload\n              add\n              dup1\n              dup3\n              sstore\n              dup1\n              swap2\n              pop\n              pop\n              sub\n              swap1\n              0x00\n              mstore\n              keccak256(0x00, 0x20)\n              swap1\n              0x05\n              mul\n              add\n                /* \"Campaign.sol\":1334:1381  Request storage newRequest = requestList.push() */\n              swap1\n              pop\n                /* \"Campaign.sol\":1416:1430  newDescription */\n              dup4\n                /* \"Campaign.sol\":1391:1401  newRequest */\n              dup2\n                /* \"Campaign.sol\":1391:1413  newRequest.description */\n              0x00\n              add\n                /* \"Campaign.sol\":1391:1430  newRequest.description = newDescription */\n              swap1\n              dup2\n              tag_93\n              swap2\n              swap1\n              tag_94\n              jump\t// in\n            tag_93:\n              pop\n                /* \"Campaign.sol\":1459:1467  newValue */\n              dup3\n                /* \"Campaign.sol\":1440:1450  newRequest */\n              dup2\n                /* \"Campaign.sol\":1440:1456  newRequest.value */\n              0x01\n              add\n                /* \"Campaign.sol\":1440:1467  newRequest.value = newValue */\n              dup2\n              swap1\n              sstore\n              pop\n                /* \"Campaign.sol\":1500:1512  newRecepient */\n              dup2\n                /* \"Campaign.sol\":1477:1487  newRequest */\n              dup2\n                /* \"Campaign.sol\":1477:1497  newRequest.recepient */\n              0x02\n              add\n              0x00\n                /* \"Campaign.sol\":1477:1512  newRequest.recepient = newRecepient */\n              0x0100\n              exp\n              dup2\n              sload\n              dup2\n              0xffffffffffffffffffffffffffffffffffffffff\n              mul\n              not\n              and\n              swap1\n              dup4\n              0xffffffffffffffffffffffffffffffffffffffff\n              and\n              mul\n              or\n              swap1\n              sstore\n              pop\n                /* \"Campaign.sol\":1544:1549  false */\n              0x00\n                /* \"Campaign.sol\":1522:1532  newRequest */\n              dup2\n                /* \"Campaign.sol\":1522:1541  newRequest.complete */\n              0x02\n              add\n              0x14\n                /* \"Campaign.sol\":1522:1549  newRequest.complete = false */\n              0x0100\n              exp\n              dup2\n              sload\n              dup2\n              0xff\n              mul\n              not\n              and\n              swap1\n              dup4\n              iszero\n              iszero\n              mul\n              or\n              swap1\n              sstore\n              pop\n                /* \"Campaign.sol\":1586:1587  0 */\n              0x00\n                /* \"Campaign.sol\":1559:1569  newRequest */\n              dup2\n                /* \"Campaign.sol\":1559:1583  newRequest.approvalCount */\n              0x03\n              add\n                /* \"Campaign.sol\":1559:1587  newRequest.approvalCount = 0 */\n              dup2\n              swap1\n              sstore\n              pop\n                /* \"Campaign.sol\":1324:1594  {... */\n              pop\n                /* \"Campaign.sol\":1218:1594  function createRequest(string memory newDescription, uint newValue, address newRecepient)public restricted{... */\n              pop\n              pop\n              pop\n              jump\t// out\n                /* \"Campaign.sol\":685:712  uint public minContribution */\n            tag_58:\n              sload(0x01)\n              dup2\n              jump\t// out\n                /* \"Campaign.sol\":1058:1212  function contribute() public payable{... */\n            tag_61:\n                /* \"Campaign.sol\":1124:1139  minContribution */\n              sload(0x01)\n                /* \"Campaign.sol\":1112:1121  msg.value */\n              callvalue\n                /* \"Campaign.sol\":1112:1139  msg.value > minContribution */\n              gt\n                /* \"Campaign.sol\":1104:1140  require(msg.value > minContribution) */\n              tag_96\n              jumpi\n              0x00\n              dup1\n              revert\n            tag_96:\n                /* \"Campaign.sol\":1175:1179  true */\n              0x01\n                /* \"Campaign.sol\":1151:1160  approvers */\n              0x03\n                /* \"Campaign.sol\":1151:1172  approvers[msg.sender] */\n              0x00\n                /* \"Campaign.sol\":1161:1171  msg.sender */\n              caller\n                /* \"Campaign.sol\":1151:1172  approvers[msg.sender] */\n              0xffffffffffffffffffffffffffffffffffffffff\n              and\n              0xffffffffffffffffffffffffffffffffffffffff\n              and\n              dup2\n              mstore\n              0x20\n              add\n              swap1\n              dup2\n              mstore\n              0x20\n              add\n              0x00\n              keccak256\n              0x00\n                /* \"Campaign.sol\":1151:1179  approvers[msg.sender] = true */\n              0x0100\n              exp\n              dup2\n              sload\n              dup2\n              0xff\n              mul\n              not\n              and\n              swap1\n              dup4\n              iszero\n              iszero\n              mul\n              or\n              swap1\n              sstore\n              pop\n                /* \"Campaign.sol\":1189:1203  approversCount */\n              0x04\n              0x00\n                /* \"Campaign.sol\":1189:1205  approversCount++ */\n              dup2\n              sload\n              dup1\n              swap3\n              swap2\n              swap1\n              tag_97\n              swap1\n              tag_98\n              jump\t// in\n            tag_97:\n              swap2\n              swap1\n              pop\n              sstore\n              pop\n                /* \"Campaign.sol\":1058:1212  function contribute() public payable{... */\n              jump\t// out\n                /* \"Campaign.sol\":1626:1908  function approveRequest(uint index)public{... */\n            tag_65:\n                /* \"Campaign.sol\":1677:1700  Request storage request */\n              0x00\n                /* \"Campaign.sol\":1703:1714  requestList */\n              0x02\n                /* \"Campaign.sol\":1715:1720  index */\n              dup3\n                /* \"Campaign.sol\":1703:1721  requestList[index] */\n              dup2\n              sload\n              dup2\n              lt\n              tag_100\n              jumpi\n              tag_101\n              tag_79\n              jump\t// in\n            tag_101:\n            tag_100:\n              swap1\n              0x00\n              mstore\n              keccak256(0x00, 0x20)\n              swap1\n              0x05\n              mul\n              add\n                /* \"Campaign.sol\":1677:1721  Request storage request = requestList[index] */\n              swap1\n              pop\n                /* \"Campaign.sol\":1748:1757  approvers */\n              0x03\n                /* \"Campaign.sol\":1748:1769  approvers[msg.sender] */\n              0x00\n                /* \"Campaign.sol\":1758:1768  msg.sender */\n              caller\n                /* \"Campaign.sol\":1748:1769  approvers[msg.sender] */\n              0xffffffffffffffffffffffffffffffffffffffff\n              and\n              0xffffffffffffffffffffffffffffffffffffffff\n              and\n              dup2\n              mstore\n              0x20\n              add\n              swap1\n              dup2\n              mstore\n              0x20\n              add\n              0x00\n              keccak256\n              0x00\n              swap1\n              sload\n              swap1\n              0x0100\n              exp\n              swap1\n              div\n              0xff\n              and\n                /* \"Campaign.sol\":1740:1770  require(approvers[msg.sender]) */\n              tag_103\n              jumpi\n              0x00\n              dup1\n              revert\n            tag_103:\n                /* \"Campaign.sol\":1790:1797  request */\n              dup1\n                /* \"Campaign.sol\":1790:1807  request.approvals */\n              0x04\n              add\n                /* \"Campaign.sol\":1790:1819  request.approvals[msg.sender] */\n              0x00\n                /* \"Campaign.sol\":1808:1818  msg.sender */\n              caller\n                /* \"Campaign.sol\":1790:1819  request.approvals[msg.sender] */\n              0xffffffffffffffffffffffffffffffffffffffff\n              and\n              0xffffffffffffffffffffffffffffffffffffffff\n              and\n              dup2\n              mstore\n              0x20\n              add\n              swap1\n              dup2\n              mstore\n              0x20\n              add\n              0x00\n              keccak256\n              0x00\n              swap1\n              sload\n              swap1\n              0x0100\n              exp\n              swap1\n              div\n              0xff\n              and\n                /* \"Campaign.sol\":1788:1820  !(request.approvals[msg.sender]) */\n              iszero\n                /* \"Campaign.sol\":1780:1821  require(!(request.approvals[msg.sender])) */\n              tag_104\n              jumpi\n              0x00\n              dup1\n              revert\n            tag_104:\n                /* \"Campaign.sol\":1864:1868  true */\n              0x01\n                /* \"Campaign.sol\":1832:1839  request */\n              dup2\n                /* \"Campaign.sol\":1832:1849  request.approvals */\n              0x04\n              add\n                /* \"Campaign.sol\":1832:1861  request.approvals[msg.sender] */\n              0x00\n                /* \"Campaign.sol\":1850:1860  msg.sender */\n              caller\n                /* \"Campaign.sol\":1832:1861  request.approvals[msg.sender] */\n              0xffffffffffffffffffffffffffffffffffffffff\n              and\n              0xffffffffffffffffffffffffffffffffffffffff\n              and\n              dup2\n              mstore\n              0x20\n              add\n              swap1\n              dup2\n              mstore\n              0x20\n              add\n              0x00\n              keccak256\n              0x00\n                /* \"Campaign.sol\":1832:1868  request.approvals[msg.sender] = true */\n              0x0100\n              exp\n              dup2\n              sload\n              dup2\n              0xff\n              mul\n              not\n              and\n              swap1\n              dup4\n              iszero\n              iszero\n              mul\n              or\n              swap1\n              sstore\n              pop\n                /* \"Campaign.sol\":1878:1885  request */\n              dup1\n                /* \"Campaign.sol\":1878:1899  request.approvalCount */\n              0x03\n              add\n              0x00\n                /* \"Campaign.sol\":1878:1901  request.approvalCount++ */\n              dup2\n              sload\n              dup1\n              swap3\n              swap2\n              swap1\n              tag_105\n              swap1\n              tag_98\n              jump\t// in\n            tag_105:\n              swap2\n              swap1\n              pop\n              sstore\n              pop\n                /* \"Campaign.sol\":1667:1908  {... */\n              pop\n                /* \"Campaign.sol\":1626:1908  function approveRequest(uint index)public{... */\n              pop\n              jump\t// out\n                /* \"#utility.yul\":7:82   */\n            tag_106:\n                /* \"#utility.yul\":40:46   */\n              0x00\n                /* \"#utility.yul\":73:75   */\n              0x40\n                /* \"#utility.yul\":67:76   */\n              mload\n                /* \"#utility.yul\":57:76   */\n              swap1\n              pop\n                /* \"#utility.yul\":7:82   */\n              swap1\n              jump\t// out\n                /* \"#utility.yul\":88:205   */\n            tag_107:\n                /* \"#utility.yul\":197:198   */\n              0x00\n                /* \"#utility.yul\":194:195   */\n              dup1\n                /* \"#utility.yul\":187:199   */\n              revert\n                /* \"#utility.yul\":211:328   */\n            tag_108:\n                /* \"#utility.yul\":320:321   */\n              0x00\n                /* \"#utility.yul\":317:318   */\n              dup1\n                /* \"#utility.yul\":310:322   */\n              revert\n                /* \"#utility.yul\":334:411   */\n            tag_109:\n                /* \"#utility.yul\":371:378   */\n              0x00\n                /* \"#utility.yul\":400:405   */\n              dup2\n                /* \"#utility.yul\":389:405   */\n              swap1\n              pop\n                /* \"#utility.yul\":334:411   */\n              swap2\n              swap1\n              pop\n              jump\t// out\n                /* \"#utility.yul\":417:539   */\n            tag_110:\n                /* \"#utility.yul\":490:514   */\n              tag_158\n                /* \"#utility.yul\":508:513   */\n              dup2\n                /* \"#utility.yul\":490:514   */\n              tag_109\n              jump\t// in\n            tag_158:\n                /* \"#utility.yul\":483:488   */\n              dup2\n                /* \"#utility.yul\":480:515   */\n              eq\n                /* \"#utility.yul\":470:533   */\n              tag_159\n              jumpi\n                /* \"#utility.yul\":529:530   */\n              0x00\n                /* \"#utility.yul\":526:527   */\n              dup1\n                /* \"#utility.yul\":519:531   */\n              revert\n                /* \"#utility.yul\":470:533   */\n            tag_159:\n                /* \"#utility.yul\":417:539   */\n              pop\n              jump\t// out\n                /* \"#utility.yul\":545:684   */\n            tag_111:\n                /* \"#utility.yul\":591:596   */\n              0x00\n                /* \"#utility.yul\":629:635   */\n              dup2\n                /* \"#utility.yul\":616:636   */\n              calldataload\n                /* \"#utility.yul\":607:636   */\n              swap1\n              pop\n                /* \"#utility.yul\":645:678   */\n              tag_161\n                /* \"#utility.yul\":672:677   */\n              dup2\n                /* \"#utility.yul\":645:678   */\n              tag_110\n              jump\t// in\n            tag_161:\n                /* \"#utility.yul\":545:684   */\n              swap3\n              swap2\n              pop\n              pop\n              jump\t// out\n                /* \"#utility.yul\":690:1019   */\n            tag_17:\n                /* \"#utility.yul\":749:755   */\n              0x00\n                /* \"#utility.yul\":798:800   */\n              0x20\n                /* \"#utility.yul\":786:795   */\n              dup3\n                /* \"#utility.yul\":777:784   */\n              dup5\n                /* \"#utility.yul\":773:796   */\n              sub\n                /* \"#utility.yul\":769:801   */\n              slt\n                /* \"#utility.yul\":766:885   */\n              iszero\n              tag_163\n              jumpi\n                /* \"#utility.yul\":804:883   */\n              tag_164\n              tag_107\n              jump\t// in\n            tag_164:\n                /* \"#utility.yul\":766:885   */\n            tag_163:\n                /* \"#utility.yul\":924:925   */\n              0x00\n                /* \"#utility.yul\":949:1002   */\n              tag_165\n                /* \"#utility.yul\":994:1001   */\n              dup5\n                /* \"#utility.yul\":985:991   */\n              dup3\n                /* \"#utility.yul\":974:983   */\n              dup6\n                /* \"#utility.yul\":970:992   */\n              add\n                /* \"#utility.yul\":949:1002   */\n              tag_111\n              jump\t// in\n            tag_165:\n                /* \"#utility.yul\":939:1002   */\n              swap2\n              pop\n                /* \"#utility.yul\":895:1012   */\n              pop\n                /* \"#utility.yul\":690:1019   */\n              swap3\n              swap2\n              pop\n              pop\n              jump\t// out\n                /* \"#utility.yul\":1025:1124   */\n            tag_112:\n                /* \"#utility.yul\":1077:1083   */\n              0x00\n                /* \"#utility.yul\":1111:1116   */\n              dup2\n                /* \"#utility.yul\":1105:1117   */\n              mload\n                /* \"#utility.yul\":1095:1117   */\n              swap1\n              pop\n                /* \"#utility.yul\":1025:1124   */\n              swap2\n              swap1\n              pop\n              jump\t// out\n                /* \"#utility.yul\":1130:1299   */\n            tag_113:\n                /* \"#utility.yul\":1214:1225   */\n              0x00\n                /* \"#utility.yul\":1248:1254   */\n              dup3\n                /* \"#utility.yul\":1243:1246   */\n              dup3\n                /* \"#utility.yul\":1236:1255   */\n              mstore\n                /* \"#utility.yul\":1288:1292   */\n              0x20\n                /* \"#utility.yul\":1283:1286   */\n              dup3\n                /* \"#utility.yul\":1279:1293   */\n              add\n                /* \"#utility.yul\":1264:1293   */\n              swap1\n              pop\n                /* \"#utility.yul\":1130:1299   */\n              swap3\n              swap2\n              pop\n              pop\n              jump\t// out\n                /* \"#utility.yul\":1305:1551   */\n            tag_114:\n                /* \"#utility.yul\":1386:1387   */\n              0x00\n                /* \"#utility.yul\":1396:1509   */\n            tag_169:\n                /* \"#utility.yul\":1410:1416   */\n              dup4\n                /* \"#utility.yul\":1407:1408   */\n              dup2\n                /* \"#utility.yul\":1404:1417   */\n              lt\n                /* \"#utility.yul\":1396:1509   */\n              iszero\n              tag_171\n              jumpi\n                /* \"#utility.yul\":1495:1496   */\n              dup1\n                /* \"#utility.yul\":1490:1493   */\n              dup3\n                /* \"#utility.yul\":1486:1497   */\n              add\n                /* \"#utility.yul\":1480:1498   */\n              mload\n                /* \"#utility.yul\":1476:1477   */\n              dup2\n                /* \"#utility.yul\":1471:1474   */\n              dup5\n                /* \"#utility.yul\":1467:1478   */\n              add\n                /* \"#utility.yul\":1460:1499   */\n              mstore\n                /* \"#utility.yul\":1432:1434   */\n              0x20\n                /* \"#utility.yul\":1429:1430   */\n              dup2\n                /* \"#utility.yul\":1425:1435   */\n              add\n                /* \"#utility.yul\":1420:1435   */\n              swap1\n              pop\n                /* \"#utility.yul\":1396:1509   */\n              jump(tag_169)\n            tag_171:\n                /* \"#utility.yul\":1543:1544   */\n              0x00\n                /* \"#utility.yul\":1534:1540   */\n              dup5\n                /* \"#utility.yul\":1529:1532   */\n              dup5\n                /* \"#utility.yul\":1525:1541   */\n              add\n                /* \"#utility.yul\":1518:1545   */\n              mstore\n                /* \"#utility.yul\":1367:1551   */\n              pop\n                /* \"#utility.yul\":1305:1551   */\n              pop\n              pop\n              pop\n              jump\t// out\n                /* \"#utility.yul\":1557:1659   */\n            tag_115:\n                /* \"#utility.yul\":1598:1604   */\n              0x00\n                /* \"#utility.yul\":1649:1651   */\n              0x1f\n                /* \"#utility.yul\":1645:1652   */\n              not\n                /* \"#utility.yul\":1640:1642   */\n              0x1f\n                /* \"#utility.yul\":1633:1638   */\n              dup4\n                /* \"#utility.yul\":1629:1643   */\n              add\n                /* \"#utility.yul\":1625:1653   */\n              and\n                /* \"#utility.yul\":1615:1653   */\n              swap1\n              pop\n                /* \"#utility.yul\":1557:1659   */\n              swap2\n              swap1\n              pop\n              jump\t// out\n                /* \"#utility.yul\":1665:2042   */\n            tag_116:\n                /* \"#utility.yul\":1753:1756   */\n              0x00\n                /* \"#utility.yul\":1781:1820   */\n              tag_174\n                /* \"#utility.yul\":1814:1819   */\n              dup3\n                /* \"#utility.yul\":1781:1820   */\n              tag_112\n              jump\t// in\n            tag_174:\n                /* \"#utility.yul\":1836:1907   */\n              tag_175\n                /* \"#utility.yul\":1900:1906   */\n              dup2\n                /* \"#utility.yul\":1895:1898   */\n              dup6\n                /* \"#utility.yul\":1836:1907   */\n              tag_113\n              jump\t// in\n            tag_175:\n                /* \"#utility.yul\":1829:1907   */\n              swap4\n              pop\n                /* \"#utility.yul\":1916:1981   */\n              tag_176\n                /* \"#utility.yul\":1974:1980   */\n              dup2\n                /* \"#utility.yul\":1969:1972   */\n              dup6\n                /* \"#utility.yul\":1962:1966   */\n              0x20\n                /* \"#utility.yul\":1955:1960   */\n              dup7\n                /* \"#utility.yul\":1951:1967   */\n              add\n                /* \"#utility.yul\":1916:1981   */\n              tag_114\n              jump\t// in\n            tag_176:\n                /* \"#utility.yul\":2006:2035   */\n              tag_177\n                /* \"#utility.yul\":2028:2034   */\n              dup2\n                /* \"#utility.yul\":2006:2035   */\n              tag_115\n              jump\t// in\n            tag_177:\n                /* \"#utility.yul\":2001:2004   */\n              dup5\n                /* \"#utility.yul\":1997:2036   */\n              add\n                /* \"#utility.yul\":1990:2036   */\n              swap2\n              pop\n                /* \"#utility.yul\":1757:2042   */\n              pop\n                /* \"#utility.yul\":1665:2042   */\n              swap3\n              swap2\n              pop\n              pop\n              jump\t// out\n                /* \"#utility.yul\":2048:2166   */\n            tag_117:\n                /* \"#utility.yul\":2135:2159   */\n              tag_179\n                /* \"#utility.yul\":2153:2158   */\n              dup2\n                /* \"#utility.yul\":2135:2159   */\n              tag_109\n              jump\t// in\n            tag_179:\n                /* \"#utility.yul\":2130:2133   */\n              dup3\n                /* \"#utility.yul\":2123:2160   */\n              mstore\n                /* \"#utility.yul\":2048:2166   */\n              pop\n              pop\n              jump\t// out\n                /* \"#utility.yul\":2172:2298   */\n            tag_118:\n                /* \"#utility.yul\":2209:2216   */\n              0x00\n                /* \"#utility.yul\":2249:2291   */\n              0xffffffffffffffffffffffffffffffffffffffff\n                /* \"#utility.yul\":2242:2247   */\n              dup3\n                /* \"#utility.yul\":2238:2292   */\n              and\n                /* \"#utility.yul\":2227:2292   */\n              swap1\n              pop\n                /* \"#utility.yul\":2172:2298   */\n              swap2\n              swap1\n              pop\n              jump\t// out\n                /* \"#utility.yul\":2304:2400   */\n            tag_119:\n                /* \"#utility.yul\":2341:2348   */\n              0x00\n                /* \"#utility.yul\":2370:2394   */\n              tag_182\n                /* \"#utility.yul\":2388:2393   */\n              dup3\n                /* \"#utility.yul\":2370:2394   */\n              tag_118\n              jump\t// in\n            tag_182:\n                /* \"#utility.yul\":2359:2394   */\n              swap1\n              pop\n                /* \"#utility.yul\":2304:2400   */\n              swap2\n              swap1\n              pop\n              jump\t// out\n                /* \"#utility.yul\":2406:2524   */\n            tag_120:\n                /* \"#utility.yul\":2493:2517   */\n              tag_184\n                /* \"#utility.yul\":2511:2516   */\n              dup2\n                /* \"#utility.yul\":2493:2517   */\n              tag_119\n              jump\t// in\n            tag_184:\n                /* \"#utility.yul\":2488:2491   */\n              dup3\n                /* \"#utility.yul\":2481:2518   */\n              mstore\n                /* \"#utility.yul\":2406:2524   */\n              pop\n              pop\n              jump\t// out\n                /* \"#utility.yul\":2530:2620   */\n            tag_121:\n                /* \"#utility.yul\":2564:2571   */\n              0x00\n                /* \"#utility.yul\":2607:2612   */\n              dup2\n                /* \"#utility.yul\":2600:2613   */\n              iszero\n                /* \"#utility.yul\":2593:2614   */\n              iszero\n                /* \"#utility.yul\":2582:2614   */\n              swap1\n              pop\n                /* \"#utility.yul\":2530:2620   */\n              swap2\n              swap1\n              pop\n              jump\t// out\n                /* \"#utility.yul\":2626:2735   */\n            tag_122:\n                /* \"#utility.yul\":2707:2728   */\n              tag_187\n                /* \"#utility.yul\":2722:2727   */\n              dup2\n                /* \"#utility.yul\":2707:2728   */\n              tag_121\n              jump\t// in\n            tag_187:\n                /* \"#utility.yul\":2702:2705   */\n              dup3\n                /* \"#utility.yul\":2695:2729   */\n              mstore\n                /* \"#utility.yul\":2626:2735   */\n              pop\n              pop\n              jump\t// out\n                /* \"#utility.yul\":2741:3484   */\n            tag_20:\n                /* \"#utility.yul\":2960:2964   */\n              0x00\n                /* \"#utility.yul\":2998:3001   */\n              0xa0\n                /* \"#utility.yul\":2987:2996   */\n              dup3\n                /* \"#utility.yul\":2983:3002   */\n              add\n                /* \"#utility.yul\":2975:3002   */\n              swap1\n              pop\n                /* \"#utility.yul\":3048:3057   */\n              dup2\n                /* \"#utility.yul\":3042:3046   */\n              dup2\n                /* \"#utility.yul\":3038:3058   */\n              sub\n                /* \"#utility.yul\":3034:3035   */\n              0x00\n                /* \"#utility.yul\":3023:3032   */\n              dup4\n                /* \"#utility.yul\":3019:3036   */\n              add\n                /* \"#utility.yul\":3012:3059   */\n              mstore\n                /* \"#utility.yul\":3076:3154   */\n              tag_189\n                /* \"#utility.yul\":3149:3153   */\n              dup2\n                /* \"#utility.yul\":3140:3146   */\n              dup9\n                /* \"#utility.yul\":3076:3154   */\n              tag_116\n              jump\t// in\n            tag_189:\n                /* \"#utility.yul\":3068:3154   */\n              swap1\n              pop\n                /* \"#utility.yul\":3164:3236   */\n              tag_190\n                /* \"#utility.yul\":3232:3234   */\n              0x20\n                /* \"#utility.yul\":3221:3230   */\n              dup4\n                /* \"#utility.yul\":3217:3235   */\n              add\n                /* \"#utility.yul\":3208:3214   */\n              dup8\n                /* \"#utility.yul\":3164:3236   */\n              tag_117\n              jump\t// in\n            tag_190:\n                /* \"#utility.yul\":3246:3318   */\n              tag_191\n                /* \"#utility.yul\":3314:3316   */\n              0x40\n                /* \"#utility.yul\":3303:3312   */\n              dup4\n                /* \"#utility.yul\":3299:3317   */\n              add\n                /* \"#utility.yul\":3290:3296   */\n              dup7\n                /* \"#utility.yul\":3246:3318   */\n              tag_120\n              jump\t// in\n            tag_191:\n                /* \"#utility.yul\":3328:3394   */\n              tag_192\n                /* \"#utility.yul\":3390:3392   */\n              0x60\n                /* \"#utility.yul\":3379:3388   */\n              dup4\n                /* \"#utility.yul\":3375:3393   */\n              add\n                /* \"#utility.yul\":3366:3372   */\n              dup6\n                /* \"#utility.yul\":3328:3394   */\n              tag_122\n              jump\t// in\n            tag_192:\n                /* \"#utility.yul\":3404:3477   */\n              tag_193\n                /* \"#utility.yul\":3472:3475   */\n              0x80\n                /* \"#utility.yul\":3461:3470   */\n              dup4\n                /* \"#utility.yul\":3457:3476   */\n              add\n                /* \"#utility.yul\":3448:3454   */\n              dup5\n                /* \"#utility.yul\":3404:3477   */\n              tag_117\n              jump\t// in\n            tag_193:\n                /* \"#utility.yul\":2741:3484   */\n              swap7\n              swap6\n              pop\n              pop\n              pop\n              pop\n              pop\n              pop\n              jump\t// out\n                /* \"#utility.yul\":3490:3612   */\n            tag_123:\n                /* \"#utility.yul\":3563:3587   */\n              tag_195\n                /* \"#utility.yul\":3581:3586   */\n              dup2\n                /* \"#utility.yul\":3563:3587   */\n              tag_119\n              jump\t// in\n            tag_195:\n                /* \"#utility.yul\":3556:3561   */\n              dup2\n                /* \"#utility.yul\":3553:3588   */\n              eq\n                /* \"#utility.yul\":3543:3606   */\n              tag_196\n              jumpi\n                /* \"#utility.yul\":3602:3603   */\n              0x00\n                /* \"#utility.yul\":3599:3600   */\n              dup1\n                /* \"#utility.yul\":3592:3604   */\n              revert\n                /* \"#utility.yul\":3543:3606   */\n            tag_196:\n                /* \"#utility.yul\":3490:3612   */\n              pop\n              jump\t// out\n                /* \"#utility.yul\":3618:3757   */\n            tag_124:\n                /* \"#utility.yul\":3664:3669   */\n              0x00\n                /* \"#utility.yul\":3702:3708   */\n              dup2\n                /* \"#utility.yul\":3689:3709   */\n              calldataload\n                /* \"#utility.yul\":3680:3709   */\n              swap1\n              pop\n                /* \"#utility.yul\":3718:3751   */\n              tag_198\n                /* \"#utility.yul\":3745:3750   */\n              dup2\n                /* \"#utility.yul\":3718:3751   */\n              tag_123\n              jump\t// in\n            tag_198:\n                /* \"#utility.yul\":3618:3757   */\n              swap3\n              swap2\n              pop\n              pop\n              jump\t// out\n                /* \"#utility.yul\":3763:4092   */\n            tag_28:\n                /* \"#utility.yul\":3822:3828   */\n              0x00\n                /* \"#utility.yul\":3871:3873   */\n              0x20\n                /* \"#utility.yul\":3859:3868   */\n              dup3\n                /* \"#utility.yul\":3850:3857   */\n              dup5\n                /* \"#utility.yul\":3846:3869   */\n              sub\n                /* \"#utility.yul\":3842:3874   */\n              slt\n                /* \"#utility.yul\":3839:3958   */\n              iszero\n              tag_200\n              jumpi\n                /* \"#utility.yul\":3877:3956   */\n              tag_201\n              tag_107\n              jump\t// in\n            tag_201:\n                /* \"#utility.yul\":3839:3958   */\n            tag_200:\n                /* \"#utility.yul\":3997:3998   */\n              0x00\n                /* \"#utility.yul\":4022:4075   */\n              tag_202\n                /* \"#utility.yul\":4067:4074   */\n              dup5\n                /* \"#utility.yul\":4058:4064   */\n              dup3\n                /* \"#utility.yul\":4047:4056   */\n              dup6\n                /* \"#utility.yul\":4043:4065   */\n              add\n                /* \"#utility.yul\":4022:4075   */\n              tag_124\n              jump\t// in\n            tag_202:\n                /* \"#utility.yul\":4012:4075   */\n              swap2\n              pop\n                /* \"#utility.yul\":3968:4085   */\n              pop\n                /* \"#utility.yul\":3763:4092   */\n              swap3\n              swap2\n              pop\n              pop\n              jump\t// out\n                /* \"#utility.yul\":4098:4308   */\n            tag_31:\n                /* \"#utility.yul\":4185:4189   */\n              0x00\n                /* \"#utility.yul\":4223:4225   */\n              0x20\n                /* \"#utility.yul\":4212:4221   */\n              dup3\n                /* \"#utility.yul\":4208:4226   */\n              add\n                /* \"#utility.yul\":4200:4226   */\n              swap1\n              pop\n                /* \"#utility.yul\":4236:4301   */\n              tag_204\n                /* \"#utility.yul\":4298:4299   */\n              0x00\n                /* \"#utility.yul\":4287:4296   */\n              dup4\n                /* \"#utility.yul\":4283:4300   */\n              add\n                /* \"#utility.yul\":4274:4280   */\n              dup5\n                /* \"#utility.yul\":4236:4301   */\n              tag_122\n              jump\t// in\n            tag_204:\n                /* \"#utility.yul\":4098:4308   */\n              swap3\n              swap2\n              pop\n              pop\n              jump\t// out\n                /* \"#utility.yul\":4314:4536   */\n            tag_36:\n                /* \"#utility.yul\":4407:4411   */\n              0x00\n                /* \"#utility.yul\":4445:4447   */\n              0x20\n                /* \"#utility.yul\":4434:4443   */\n              dup3\n                /* \"#utility.yul\":4430:4448   */\n              add\n                /* \"#utility.yul\":4422:4448   */\n              swap1\n              pop\n                /* \"#utility.yul\":4458:4529   */\n              tag_206\n                /* \"#utility.yul\":4526:4527   */\n              0x00\n                /* \"#utility.yul\":4515:4524   */\n              dup4\n                /* \"#utility.yul\":4511:4528   */\n              add\n                /* \"#utility.yul\":4502:4508   */\n              dup5\n                /* \"#utility.yul\":4458:4529   */\n              tag_117\n              jump\t// in\n            tag_206:\n                /* \"#utility.yul\":4314:4536   */\n              swap3\n              swap2\n              pop\n              pop\n              jump\t// out\n                /* \"#utility.yul\":4542:5206   */\n            tag_41:\n                /* \"#utility.yul\":4747:4751   */\n              0x00\n                /* \"#utility.yul\":4785:4788   */\n              0xa0\n                /* \"#utility.yul\":4774:4783   */\n              dup3\n                /* \"#utility.yul\":4770:4789   */\n              add\n                /* \"#utility.yul\":4762:4789   */\n              swap1\n              pop\n                /* \"#utility.yul\":4799:4870   */\n              tag_208\n                /* \"#utility.yul\":4867:4868   */\n              0x00\n                /* \"#utility.yul\":4856:4865   */\n              dup4\n                /* \"#utility.yul\":4852:4869   */\n              add\n                /* \"#utility.yul\":4843:4849   */\n              dup9\n                /* \"#utility.yul\":4799:4870   */\n              tag_117\n              jump\t// in\n            tag_208:\n                /* \"#utility.yul\":4880:4952   */\n              tag_209\n                /* \"#utility.yul\":4948:4950   */\n              0x20\n                /* \"#utility.yul\":4937:4946   */\n              dup4\n                /* \"#utility.yul\":4933:4951   */\n              add\n                /* \"#utility.yul\":4924:4930   */\n              dup8\n                /* \"#utility.yul\":4880:4952   */\n              tag_117\n              jump\t// in\n            tag_209:\n                /* \"#utility.yul\":4962:5034   */\n              tag_210\n                /* \"#utility.yul\":5030:5032   */\n              0x40\n                /* \"#utility.yul\":5019:5028   */\n              dup4\n                /* \"#utility.yul\":5015:5033   */\n              add\n                /* \"#utility.yul\":5006:5012   */\n              dup7\n                /* \"#utility.yul\":4962:5034   */\n              tag_117\n              jump\t// in\n            tag_210:\n                /* \"#utility.yul\":5044:5116   */\n              tag_211\n                /* \"#utility.yul\":5112:5114   */\n              0x60\n                /* \"#utility.yul\":5101:5110   */\n              dup4\n                /* \"#utility.yul\":5097:5115   */\n              add\n                /* \"#utility.yul\":5088:5094   */\n              dup6\n                /* \"#utility.yul\":5044:5116   */\n              tag_117\n              jump\t// in\n            tag_211:\n                /* \"#utility.yul\":5126:5199   */\n              tag_212\n                /* \"#utility.yul\":5194:5197   */\n              0x80\n                /* \"#utility.yul\":5183:5192   */\n              dup4\n                /* \"#utility.yul\":5179:5198   */\n              add\n                /* \"#utility.yul\":5170:5176   */\n              dup5\n                /* \"#utility.yul\":5126:5199   */\n              tag_120\n              jump\t// in\n            tag_212:\n                /* \"#utility.yul\":4542:5206   */\n              swap7\n              swap6\n              pop\n              pop\n              pop\n              pop\n              pop\n              pop\n              jump\t// out\n                /* \"#utility.yul\":5212:5434   */\n            tag_46:\n                /* \"#utility.yul\":5305:5309   */\n              0x00\n                /* \"#utility.yul\":5343:5345   */\n              0x20\n                /* \"#utility.yul\":5332:5341   */\n              dup3\n                /* \"#utility.yul\":5328:5346   */\n              add\n                /* \"#utility.yul\":5320:5346   */\n              swap1\n              pop\n                /* \"#utility.yul\":5356:5427   */\n              tag_214\n                /* \"#utility.yul\":5424:5425   */\n              0x00\n                /* \"#utility.yul\":5413:5422   */\n              dup4\n                /* \"#utility.yul\":5409:5426   */\n              add\n                /* \"#utility.yul\":5400:5406   */\n              dup5\n                /* \"#utility.yul\":5356:5427   */\n              tag_120\n              jump\t// in\n            tag_214:\n                /* \"#utility.yul\":5212:5434   */\n              swap3\n              swap2\n              pop\n              pop\n              jump\t// out\n                /* \"#utility.yul\":5440:5557   */\n            tag_125:\n                /* \"#utility.yul\":5549:5550   */\n              0x00\n                /* \"#utility.yul\":5546:5547   */\n              dup1\n                /* \"#utility.yul\":5539:5551   */\n              revert\n                /* \"#utility.yul\":5563:5680   */\n            tag_126:\n                /* \"#utility.yul\":5672:5673   */\n              0x00\n                /* \"#utility.yul\":5669:5670   */\n              dup1\n                /* \"#utility.yul\":5662:5674   */\n              revert\n                /* \"#utility.yul\":5686:5866   */\n            tag_127:\n                /* \"#utility.yul\":5734:5811   */\n              0x4e487b7100000000000000000000000000000000000000000000000000000000\n                /* \"#utility.yul\":5731:5732   */\n              0x00\n                /* \"#utility.yul\":5724:5812   */\n              mstore\n                /* \"#utility.yul\":5831:5835   */\n              0x41\n                /* \"#utility.yul\":5828:5829   */\n              0x04\n                /* \"#utility.yul\":5821:5836   */\n              mstore\n                /* \"#utility.yul\":5855:5859   */\n              0x24\n                /* \"#utility.yul\":5852:5853   */\n              0x00\n                /* \"#utility.yul\":5845:5860   */\n              revert\n                /* \"#utility.yul\":5872:6153   */\n            tag_128:\n                /* \"#utility.yul\":5955:5982   */\n              tag_219\n                /* \"#utility.yul\":5977:5981   */\n              dup3\n                /* \"#utility.yul\":5955:5982   */\n              tag_115\n              jump\t// in\n            tag_219:\n                /* \"#utility.yul\":5947:5953   */\n              dup2\n                /* \"#utility.yul\":5943:5983   */\n              add\n                /* \"#utility.yul\":6085:6091   */\n              dup2\n                /* \"#utility.yul\":6073:6083   */\n              dup2\n                /* \"#utility.yul\":6070:6092   */\n              lt\n                /* \"#utility.yul\":6049:6067   */\n              0xffffffffffffffff\n                /* \"#utility.yul\":6037:6047   */\n              dup3\n                /* \"#utility.yul\":6034:6068   */\n              gt\n                /* \"#utility.yul\":6031:6093   */\n              or\n                /* \"#utility.yul\":6028:6116   */\n              iszero\n              tag_220\n              jumpi\n                /* \"#utility.yul\":6096:6114   */\n              tag_221\n              tag_127\n              jump\t// in\n            tag_221:\n                /* \"#utility.yul\":6028:6116   */\n            tag_220:\n                /* \"#utility.yul\":6136:6146   */\n              dup1\n                /* \"#utility.yul\":6132:6134   */\n              0x40\n                /* \"#utility.yul\":6125:6147   */\n              mstore\n                /* \"#utility.yul\":5915:6153   */\n              pop\n                /* \"#utility.yul\":5872:6153   */\n              pop\n              pop\n              jump\t// out\n                /* \"#utility.yul\":6159:6288   */\n            tag_129:\n                /* \"#utility.yul\":6193:6199   */\n              0x00\n                /* \"#utility.yul\":6220:6240   */\n              tag_223\n              tag_106\n              jump\t// in\n            tag_223:\n                /* \"#utility.yul\":6210:6240   */\n              swap1\n              pop\n                /* \"#utility.yul\":6249:6282   */\n              tag_224\n                /* \"#utility.yul\":6277:6281   */\n              dup3\n                /* \"#utility.yul\":6269:6275   */\n              dup3\n                /* \"#utility.yul\":6249:6282   */\n              tag_128\n              jump\t// in\n            tag_224:\n                /* \"#utility.yul\":6159:6288   */\n              swap2\n              swap1\n              pop\n              jump\t// out\n                /* \"#utility.yul\":6294:6602   */\n            tag_130:\n                /* \"#utility.yul\":6356:6360   */\n              0x00\n                /* \"#utility.yul\":6446:6464   */\n              0xffffffffffffffff\n                /* \"#utility.yul\":6438:6444   */\n              dup3\n                /* \"#utility.yul\":6435:6465   */\n              gt\n                /* \"#utility.yul\":6432:6488   */\n              iszero\n              tag_226\n              jumpi\n                /* \"#utility.yul\":6468:6486   */\n              tag_227\n              tag_127\n              jump\t// in\n            tag_227:\n                /* \"#utility.yul\":6432:6488   */\n            tag_226:\n                /* \"#utility.yul\":6506:6535   */\n              tag_228\n                /* \"#utility.yul\":6528:6534   */\n              dup3\n                /* \"#utility.yul\":6506:6535   */\n              tag_115\n              jump\t// in\n            tag_228:\n                /* \"#utility.yul\":6498:6535   */\n              swap1\n              pop\n                /* \"#utility.yul\":6590:6594   */\n              0x20\n                /* \"#utility.yul\":6584:6588   */\n              dup2\n                /* \"#utility.yul\":6580:6595   */\n              add\n                /* \"#utility.yul\":6572:6595   */\n              swap1\n              pop\n                /* \"#utility.yul\":6294:6602   */\n              swap2\n              swap1\n              pop\n              jump\t// out\n                /* \"#utility.yul\":6608:6754   */\n            tag_131:\n                /* \"#utility.yul\":6705:6711   */\n              dup3\n                /* \"#utility.yul\":6700:6703   */\n              dup2\n                /* \"#utility.yul\":6695:6698   */\n              dup4\n                /* \"#utility.yul\":6682:6712   */\n              calldatacopy\n                /* \"#utility.yul\":6746:6747   */\n              0x00\n                /* \"#utility.yul\":6737:6743   */\n              dup4\n                /* \"#utility.yul\":6732:6735   */\n              dup4\n                /* \"#utility.yul\":6728:6744   */\n              add\n                /* \"#utility.yul\":6721:6748   */\n              mstore\n                /* \"#utility.yul\":6608:6754   */\n              pop\n              pop\n              pop\n              jump\t// out\n                /* \"#utility.yul\":6760:7185   */\n            tag_132:\n                /* \"#utility.yul\":6838:6843   */\n              0x00\n                /* \"#utility.yul\":6863:6929   */\n              tag_231\n                /* \"#utility.yul\":6879:6928   */\n              tag_232\n                /* \"#utility.yul\":6921:6927   */\n              dup5\n                /* \"#utility.yul\":6879:6928   */\n              tag_130\n              jump\t// in\n            tag_232:\n                /* \"#utility.yul\":6863:6929   */\n              tag_129\n              jump\t// in\n            tag_231:\n                /* \"#utility.yul\":6854:6929   */\n              swap1\n              pop\n                /* \"#utility.yul\":6952:6958   */\n              dup3\n                /* \"#utility.yul\":6945:6950   */\n              dup2\n                /* \"#utility.yul\":6938:6959   */\n              mstore\n                /* \"#utility.yul\":6990:6994   */\n              0x20\n                /* \"#utility.yul\":6983:6988   */\n              dup2\n                /* \"#utility.yul\":6979:6995   */\n              add\n                /* \"#utility.yul\":7028:7031   */\n              dup5\n                /* \"#utility.yul\":7019:7025   */\n              dup5\n                /* \"#utility.yul\":7014:7017   */\n              dup5\n                /* \"#utility.yul\":7010:7026   */\n              add\n                /* \"#utility.yul\":7007:7032   */\n              gt\n                /* \"#utility.yul\":7004:7116   */\n              iszero\n              tag_233\n              jumpi\n                /* \"#utility.yul\":7035:7114   */\n              tag_234\n              tag_126\n              jump\t// in\n            tag_234:\n                /* \"#utility.yul\":7004:7116   */\n            tag_233:\n                /* \"#utility.yul\":7125:7179   */\n              tag_235\n                /* \"#utility.yul\":7172:7178   */\n              dup5\n                /* \"#utility.yul\":7167:7170   */\n              dup3\n                /* \"#utility.yul\":7162:7165   */\n              dup6\n                /* \"#utility.yul\":7125:7179   */\n              tag_131\n              jump\t// in\n            tag_235:\n                /* \"#utility.yul\":6844:7185   */\n              pop\n                /* \"#utility.yul\":6760:7185   */\n              swap4\n              swap3\n              pop\n              pop\n              pop\n              jump\t// out\n                /* \"#utility.yul\":7205:7545   */\n            tag_133:\n                /* \"#utility.yul\":7261:7266   */\n              0x00\n                /* \"#utility.yul\":7310:7313   */\n              dup3\n                /* \"#utility.yul\":7303:7307   */\n              0x1f\n                /* \"#utility.yul\":7295:7301   */\n              dup4\n                /* \"#utility.yul\":7291:7308   */\n              add\n                /* \"#utility.yul\":7287:7314   */\n              slt\n                /* \"#utility.yul\":7277:7399   */\n              tag_237\n              jumpi\n                /* \"#utility.yul\":7318:7397   */\n              tag_238\n              tag_125\n              jump\t// in\n            tag_238:\n                /* \"#utility.yul\":7277:7399   */\n            tag_237:\n                /* \"#utility.yul\":7435:7441   */\n              dup2\n                /* \"#utility.yul\":7422:7442   */\n              calldataload\n                /* \"#utility.yul\":7460:7539   */\n              tag_239\n                /* \"#utility.yul\":7535:7538   */\n              dup5\n                /* \"#utility.yul\":7527:7533   */\n              dup3\n                /* \"#utility.yul\":7520:7524   */\n              0x20\n                /* \"#utility.yul\":7512:7518   */\n              dup7\n                /* \"#utility.yul\":7508:7525   */\n              add\n                /* \"#utility.yul\":7460:7539   */\n              tag_132\n              jump\t// in\n            tag_239:\n                /* \"#utility.yul\":7451:7539   */\n              swap2\n              pop\n                /* \"#utility.yul\":7267:7545   */\n              pop\n                /* \"#utility.yul\":7205:7545   */\n              swap3\n              swap2\n              pop\n              pop\n              jump\t// out\n                /* \"#utility.yul\":7551:8350   */\n            tag_54:\n                /* \"#utility.yul\":7638:7644   */\n              0x00\n                /* \"#utility.yul\":7646:7652   */\n              dup1\n                /* \"#utility.yul\":7654:7660   */\n              0x00\n                /* \"#utility.yul\":7703:7705   */\n              0x60\n                /* \"#utility.yul\":7691:7700   */\n              dup5\n                /* \"#utility.yul\":7682:7689   */\n              dup7\n                /* \"#utility.yul\":7678:7701   */\n              sub\n                /* \"#utility.yul\":7674:7706   */\n              slt\n                /* \"#utility.yul\":7671:7790   */\n              iszero\n              tag_241\n              jumpi\n                /* \"#utility.yul\":7709:7788   */\n              tag_242\n              tag_107\n              jump\t// in\n            tag_242:\n                /* \"#utility.yul\":7671:7790   */\n            tag_241:\n                /* \"#utility.yul\":7857:7858   */\n              0x00\n                /* \"#utility.yul\":7846:7855   */\n              dup5\n                /* \"#utility.yul\":7842:7859   */\n              add\n                /* \"#utility.yul\":7829:7860   */\n              calldataload\n                /* \"#utility.yul\":7887:7905   */\n              0xffffffffffffffff\n                /* \"#utility.yul\":7879:7885   */\n              dup2\n                /* \"#utility.yul\":7876:7906   */\n              gt\n                /* \"#utility.yul\":7873:7990   */\n              iszero\n              tag_243\n              jumpi\n                /* \"#utility.yul\":7909:7988   */\n              tag_244\n              tag_108\n              jump\t// in\n            tag_244:\n                /* \"#utility.yul\":7873:7990   */\n            tag_243:\n                /* \"#utility.yul\":8014:8077   */\n              tag_245\n                /* \"#utility.yul\":8069:8076   */\n              dup7\n                /* \"#utility.yul\":8060:8066   */\n              dup3\n                /* \"#utility.yul\":8049:8058   */\n              dup8\n                /* \"#utility.yul\":8045:8067   */\n              add\n                /* \"#utility.yul\":8014:8077   */\n              tag_133\n              jump\t// in\n            tag_245:\n                /* \"#utility.yul\":8004:8077   */\n              swap4\n              pop\n                /* \"#utility.yul\":7800:8087   */\n              pop\n                /* \"#utility.yul\":8126:8128   */\n              0x20\n                /* \"#utility.yul\":8152:8205   */\n              tag_246\n                /* \"#utility.yul\":8197:8204   */\n              dup7\n                /* \"#utility.yul\":8188:8194   */\n              dup3\n                /* \"#utility.yul\":8177:8186   */\n              dup8\n                /* \"#utility.yul\":8173:8195   */\n              add\n                /* \"#utility.yul\":8152:8205   */\n              tag_111\n              jump\t// in\n            tag_246:\n                /* \"#utility.yul\":8142:8205   */\n              swap3\n              pop\n                /* \"#utility.yul\":8097:8215   */\n              pop\n                /* \"#utility.yul\":8254:8256   */\n              0x40\n                /* \"#utility.yul\":8280:8333   */\n              tag_247\n                /* \"#utility.yul\":8325:8332   */\n              dup7\n                /* \"#utility.yul\":8316:8322   */\n              dup3\n                /* \"#utility.yul\":8305:8314   */\n              dup8\n                /* \"#utility.yul\":8301:8323   */\n              add\n                /* \"#utility.yul\":8280:8333   */\n              tag_124\n              jump\t// in\n            tag_247:\n                /* \"#utility.yul\":8270:8333   */\n              swap2\n              pop\n                /* \"#utility.yul\":8225:8343   */\n              pop\n                /* \"#utility.yul\":7551:8350   */\n              swap3\n              pop\n              swap3\n              pop\n              swap3\n              jump\t// out\n                /* \"#utility.yul\":8356:8536   */\n            tag_134:\n                /* \"#utility.yul\":8404:8481   */\n              0x4e487b7100000000000000000000000000000000000000000000000000000000\n                /* \"#utility.yul\":8401:8402   */\n              0x00\n                /* \"#utility.yul\":8394:8482   */\n              mstore\n                /* \"#utility.yul\":8501:8505   */\n              0x22\n                /* \"#utility.yul\":8498:8499   */\n              0x04\n                /* \"#utility.yul\":8491:8506   */\n              mstore\n                /* \"#utility.yul\":8525:8529   */\n              0x24\n                /* \"#utility.yul\":8522:8523   */\n              0x00\n                /* \"#utility.yul\":8515:8530   */\n              revert\n                /* \"#utility.yul\":8542:8862   */\n            tag_69:\n                /* \"#utility.yul\":8586:8592   */\n              0x00\n                /* \"#utility.yul\":8623:8624   */\n              0x02\n                /* \"#utility.yul\":8617:8621   */\n              dup3\n                /* \"#utility.yul\":8613:8625   */\n              div\n                /* \"#utility.yul\":8603:8625   */\n              swap1\n              pop\n                /* \"#utility.yul\":8670:8671   */\n              0x01\n                /* \"#utility.yul\":8664:8668   */\n              dup3\n                /* \"#utility.yul\":8660:8672   */\n              and\n                /* \"#utility.yul\":8691:8709   */\n              dup1\n                /* \"#utility.yul\":8681:8762   */\n              tag_250\n              jumpi\n                /* \"#utility.yul\":8747:8751   */\n              0x7f\n                /* \"#utility.yul\":8739:8745   */\n              dup3\n                /* \"#utility.yul\":8735:8752   */\n              and\n                /* \"#utility.yul\":8725:8752   */\n              swap2\n              pop\n                /* \"#utility.yul\":8681:8762   */\n            tag_250:\n                /* \"#utility.yul\":8809:8811   */\n              0x20\n                /* \"#utility.yul\":8801:8807   */\n              dup3\n                /* \"#utility.yul\":8798:8812   */\n              lt\n                /* \"#utility.yul\":8778:8796   */\n              dup2\n                /* \"#utility.yul\":8775:8813   */\n              sub\n                /* \"#utility.yul\":8772:8856   */\n              tag_251\n              jumpi\n                /* \"#utility.yul\":8828:8846   */\n              tag_252\n              tag_134\n              jump\t// in\n            tag_252:\n                /* \"#utility.yul\":8772:8856   */\n            tag_251:\n                /* \"#utility.yul\":8593:8862   */\n              pop\n                /* \"#utility.yul\":8542:8862   */\n              swap2\n              swap1\n              pop\n              jump\t// out\n                /* \"#utility.yul\":8868:9048   */\n            tag_79:\n                /* \"#utility.yul\":8916:8993   */\n              0x4e487b7100000000000000000000000000000000000000000000000000000000\n                /* \"#utility.yul\":8913:8914   */\n              0x00\n                /* \"#utility.yul\":8906:8994   */\n              mstore\n                /* \"#utility.yul\":9013:9017   */\n              0x32\n                /* \"#utility.yul\":9010:9011   */\n              0x04\n                /* \"#utility.yul\":9003:9018   */\n              mstore\n                /* \"#utility.yul\":9037:9041   */\n              0x24\n                /* \"#utility.yul\":9034:9035   */\n              0x00\n                /* \"#utility.yul\":9027:9042   */\n              revert\n                /* \"#utility.yul\":9054:9234   */\n            tag_135:\n                /* \"#utility.yul\":9102:9179   */\n              0x4e487b7100000000000000000000000000000000000000000000000000000000\n                /* \"#utility.yul\":9099:9100   */\n              0x00\n                /* \"#utility.yul\":9092:9180   */\n              mstore\n                /* \"#utility.yul\":9199:9203   */\n              0x12\n                /* \"#utility.yul\":9196:9197   */\n              0x04\n                /* \"#utility.yul\":9189:9204   */\n              mstore\n                /* \"#utility.yul\":9223:9227   */\n              0x24\n                /* \"#utility.yul\":9220:9221   */\n              0x00\n                /* \"#utility.yul\":9213:9228   */\n              revert\n                /* \"#utility.yul\":9240:9420   */\n            tag_136:\n                /* \"#utility.yul\":9288:9365   */\n              0x4e487b7100000000000000000000000000000000000000000000000000000000\n                /* \"#utility.yul\":9285:9286   */\n              0x00\n                /* \"#utility.yul\":9278:9366   */\n              mstore\n                /* \"#utility.yul\":9385:9389   */\n              0x11\n                /* \"#utility.yul\":9382:9383   */\n              0x04\n                /* \"#utility.yul\":9375:9390   */\n              mstore\n                /* \"#utility.yul\":9409:9413   */\n              0x24\n                /* \"#utility.yul\":9406:9407   */\n              0x00\n                /* \"#utility.yul\":9399:9414   */\n              revert\n                /* \"#utility.yul\":9426:9611   */\n            tag_82:\n                /* \"#utility.yul\":9466:9467   */\n              0x00\n                /* \"#utility.yul\":9483:9503   */\n              tag_257\n                /* \"#utility.yul\":9501:9502   */\n              dup3\n                /* \"#utility.yul\":9483:9503   */\n              tag_109\n              jump\t// in\n            tag_257:\n                /* \"#utility.yul\":9478:9503   */\n              swap2\n              pop\n                /* \"#utility.yul\":9517:9537   */\n              tag_258\n                /* \"#utility.yul\":9535:9536   */\n              dup4\n                /* \"#utility.yul\":9517:9537   */\n              tag_109\n              jump\t// in\n            tag_258:\n                /* \"#utility.yul\":9512:9537   */\n              swap3\n              pop\n                /* \"#utility.yul\":9556:9557   */\n              dup3\n                /* \"#utility.yul\":9546:9581   */\n              tag_259\n              jumpi\n                /* \"#utility.yul\":9561:9579   */\n              tag_260\n              tag_135\n              jump\t// in\n            tag_260:\n                /* \"#utility.yul\":9546:9581   */\n            tag_259:\n                /* \"#utility.yul\":9603:9604   */\n              dup3\n                /* \"#utility.yul\":9600:9601   */\n              dup3\n                /* \"#utility.yul\":9596:9605   */\n              div\n                /* \"#utility.yul\":9591:9605   */\n              swap1\n              pop\n                /* \"#utility.yul\":9426:9611   */\n              swap3\n              swap2\n              pop\n              pop\n              jump\t// out\n                /* \"#utility.yul\":9617:9758   */\n            tag_137:\n                /* \"#utility.yul\":9666:9670   */\n              0x00\n                /* \"#utility.yul\":9689:9692   */\n              dup2\n                /* \"#utility.yul\":9681:9692   */\n              swap1\n              pop\n                /* \"#utility.yul\":9712:9715   */\n              dup2\n                /* \"#utility.yul\":9709:9710   */\n              0x00\n                /* \"#utility.yul\":9702:9716   */\n              mstore\n                /* \"#utility.yul\":9746:9750   */\n              0x20\n                /* \"#utility.yul\":9743:9744   */\n              0x00\n                /* \"#utility.yul\":9733:9751   */\n              keccak256\n                /* \"#utility.yul\":9725:9751   */\n              swap1\n              pop\n                /* \"#utility.yul\":9617:9758   */\n              swap2\n              swap1\n              pop\n              jump\t// out\n                /* \"#utility.yul\":9764:9857   */\n            tag_138:\n                /* \"#utility.yul\":9801:9807   */\n              0x00\n                /* \"#utility.yul\":9848:9850   */\n              0x20\n                /* \"#utility.yul\":9843:9845   */\n              0x1f\n                /* \"#utility.yul\":9836:9841   */\n              dup4\n                /* \"#utility.yul\":9832:9846   */\n              add\n                /* \"#utility.yul\":9828:9851   */\n              div\n                /* \"#utility.yul\":9818:9851   */\n              swap1\n              pop\n                /* \"#utility.yul\":9764:9857   */\n              swap2\n              swap1\n              pop\n              jump\t// out\n                /* \"#utility.yul\":9863:9970   */\n            tag_139:\n                /* \"#utility.yul\":9907:9915   */\n              0x00\n                /* \"#utility.yul\":9957:9962   */\n              dup3\n                /* \"#utility.yul\":9951:9955   */\n              dup3\n                /* \"#utility.yul\":9947:9963   */\n              shl\n                /* \"#utility.yul\":9926:9963   */\n              swap1\n              pop\n                /* \"#utility.yul\":9863:9970   */\n              swap3\n              swap2\n              pop\n              pop\n              jump\t// out\n                /* \"#utility.yul\":9976:10369   */\n            tag_140:\n                /* \"#utility.yul\":10045:10051   */\n              0x00\n                /* \"#utility.yul\":10095:10096   */\n              0x08\n                /* \"#utility.yul\":10083:10093   */\n              dup4\n                /* \"#utility.yul\":10079:10097   */\n              mul\n                /* \"#utility.yul\":10118:10215   */\n              tag_265\n                /* \"#utility.yul\":10148:10214   */\n              0xffffffffffffffffffffffffffffffffffffffffffffffffffffffffffffffff\n                /* \"#utility.yul\":10137:10146   */\n              dup3\n                /* \"#utility.yul\":10118:10215   */\n              tag_139\n              jump\t// in\n            tag_265:\n                /* \"#utility.yul\":10236:10275   */\n              tag_266\n                /* \"#utility.yul\":10266:10274   */\n              dup7\n                /* \"#utility.yul\":10255:10264   */\n              dup4\n                /* \"#utility.yul\":10236:10275   */\n              tag_139\n              jump\t// in\n            tag_266:\n                /* \"#utility.yul\":10224:10275   */\n              swap6\n              pop\n                /* \"#utility.yul\":10308:10312   */\n              dup1\n                /* \"#utility.yul\":10304:10313   */\n              not\n                /* \"#utility.yul\":10297:10302   */\n              dup5\n                /* \"#utility.yul\":10293:10314   */\n              and\n                /* \"#utility.yul\":10284:10314   */\n              swap4\n              pop\n                /* \"#utility.yul\":10357:10361   */\n              dup1\n                /* \"#utility.yul\":10347:10355   */\n              dup7\n                /* \"#utility.yul\":10343:10362   */\n              and\n                /* \"#utility.yul\":10336:10341   */\n              dup5\n                /* \"#utility.yul\":10333:10363   */\n              or\n                /* \"#utility.yul\":10323:10363   */\n              swap3\n              pop\n                /* \"#utility.yul\":10052:10369   */\n              pop\n              pop\n                /* \"#utility.yul\":9976:10369   */\n              swap4\n              swap3\n              pop\n              pop\n              pop\n              jump\t// out\n                /* \"#utility.yul\":10375:10435   */\n            tag_141:\n                /* \"#utility.yul\":10403:10406   */\n              0x00\n                /* \"#utility.yul\":10424:10429   */\n              dup2\n                /* \"#utility.yul\":10417:10429   */\n              swap1\n              pop\n                /* \"#utility.yul\":10375:10435   */\n              swap2\n              swap1\n              pop\n              jump\t// out\n                /* \"#utility.yul\":10441:10583   */\n            tag_142:\n                /* \"#utility.yul\":10491:10500   */\n              0x00\n                /* \"#utility.yul\":10524:10577   */\n              tag_269\n                /* \"#utility.yul\":10542:10576   */\n              tag_270\n                /* \"#utility.yul\":10551:10575   */\n              tag_271\n                /* \"#utility.yul\":10569:10574   */\n              dup5\n                /* \"#utility.yul\":10551:10575   */\n              tag_109\n              jump\t// in\n            tag_271:\n                /* \"#utility.yul\":10542:10576   */\n              tag_141\n              jump\t// in\n            tag_270:\n                /* \"#utility.yul\":10524:10577   */\n              tag_109\n              jump\t// in\n            tag_269:\n                /* \"#utility.yul\":10511:10577   */\n              swap1\n              pop\n                /* \"#utility.yul\":10441:10583   */\n              swap2\n              swap1\n              pop\n              jump\t// out\n                /* \"#utility.yul\":10589:10664   */\n            tag_143:\n                /* \"#utility.yul\":10632:10635   */\n              0x00\n                /* \"#utility.yul\":10653:10658   */\n              dup2\n                /* \"#utility.yul\":10646:10658   */\n              swap1\n              pop\n                /* \"#utility.yul\":10589:10664   */\n              swap2\n              swap1\n              pop\n              jump\t// out\n                /* \"#utility.yul\":10670:10939   */\n            tag_144:\n                /* \"#utility.yul\":10780:10819   */\n              tag_274\n                /* \"#utility.yul\":10811:10818   */\n              dup4\n                /* \"#utility.yul\":10780:10819   */\n              tag_142\n              jump\t// in\n            tag_274:\n                /* \"#utility.yul\":10841:10932   */\n              tag_275\n                /* \"#utility.yul\":10890:10931   */\n              tag_276\n                /* \"#utility.yul\":10914:10930   */\n              dup3\n                /* \"#utility.yul\":10890:10931   */\n              tag_143\n              jump\t// in\n            tag_276:\n                /* \"#utility.yul\":10882:10888   */\n              dup5\n                /* \"#utility.yul\":10875:10879   */\n              dup5\n                /* \"#utility.yul\":10869:10880   */\n              sload\n                /* \"#utility.yul\":10841:10932   */\n              tag_140\n              jump\t// in\n            tag_275:\n                /* \"#utility.yul\":10835:10839   */\n              dup3\n                /* \"#utility.yul\":10828:10933   */\n              sstore\n                /* \"#utility.yul\":10746:10939   */\n              pop\n                /* \"#utility.yul\":10670:10939   */\n              pop\n              pop\n              pop\n              jump\t// out\n                /* \"#utility.yul\":10945:11018   */\n            tag_145:\n                /* \"#utility.yul\":10990:10993   */\n              0x00\n                /* \"#utility.yul\":10945:11018   */\n              swap1\n              jump\t// out\n                /* \"#utility.yul\":11024:11213   */\n            tag_146:\n                /* \"#utility.yul\":11101:11133   */\n              tag_279\n              tag_145\n              jump\t// in\n            tag_279:\n                /* \"#utility.yul\":11142:11207   */\n              tag_280\n                /* \"#utility.yul\":11200:11206   */\n              dup2\n                /* \"#utility.yul\":11192:11198   */\n              dup5\n                /* \"#utility.yul\":11186:11190   */\n              dup5\n                /* \"#utility.yul\":11142:11207   */\n              tag_144\n              jump\t// in\n            tag_280:\n                /* \"#utility.yul\":11077:11213   */\n              pop\n                /* \"#utility.yul\":11024:11213   */\n              pop\n              pop\n              jump\t// out\n                /* \"#utility.yul\":11219:11405   */\n            tag_147:\n                /* \"#utility.yul\":11279:11399   */\n            tag_282:\n                /* \"#utility.yul\":11296:11299   */\n              dup2\n                /* \"#utility.yul\":11289:11294   */\n              dup2\n                /* \"#utility.yul\":11286:11300   */\n              lt\n                /* \"#utility.yul\":11279:11399   */\n              iszero\n              tag_284\n              jumpi\n                /* \"#utility.yul\":11350:11389   */\n              tag_285\n                /* \"#utility.yul\":11387:11388   */\n              0x00\n                /* \"#utility.yul\":11380:11385   */\n              dup3\n                /* \"#utility.yul\":11350:11389   */\n              tag_146\n              jump\t// in\n            tag_285:\n                /* \"#utility.yul\":11323:11324   */\n              0x01\n                /* \"#utility.yul\":11316:11321   */\n              dup2\n                /* \"#utility.yul\":11312:11325   */\n              add\n                /* \"#utility.yul\":11303:11325   */\n              swap1\n              pop\n                /* \"#utility.yul\":11279:11399   */\n              jump(tag_282)\n            tag_284:\n                /* \"#utility.yul\":11219:11405   */\n              pop\n              pop\n              jump\t// out\n                /* \"#utility.yul\":11411:11954   */\n            tag_148:\n                /* \"#utility.yul\":11512:11514   */\n              0x1f\n                /* \"#utility.yul\":11507:11510   */\n              dup3\n                /* \"#utility.yul\":11504:11515   */\n              gt\n                /* \"#utility.yul\":11501:11947   */\n              iszero\n              tag_287\n              jumpi\n                /* \"#utility.yul\":11546:11584   */\n              tag_288\n                /* \"#utility.yul\":11578:11583   */\n              dup2\n                /* \"#utility.yul\":11546:11584   */\n              tag_137\n              jump\t// in\n            tag_288:\n                /* \"#utility.yul\":11630:11659   */\n              tag_289\n                /* \"#utility.yul\":11648:11658   */\n              dup5\n                /* \"#utility.yul\":11630:11659   */\n              tag_138\n              jump\t// in\n            tag_289:\n                /* \"#utility.yul\":11620:11628   */\n              dup2\n                /* \"#utility.yul\":11616:11660   */\n              add\n                /* \"#utility.yul\":11813:11815   */\n              0x20\n                /* \"#utility.yul\":11801:11811   */\n              dup6\n                /* \"#utility.yul\":11798:11816   */\n              lt\n                /* \"#utility.yul\":11795:11844   */\n              iszero\n              tag_290\n              jumpi\n                /* \"#utility.yul\":11834:11842   */\n              dup2\n                /* \"#utility.yul\":11819:11842   */\n              swap1\n              pop\n                /* \"#utility.yul\":11795:11844   */\n            tag_290:\n                /* \"#utility.yul\":11857:11937   */\n              tag_291\n                /* \"#utility.yul\":11913:11935   */\n              tag_292\n                /* \"#utility.yul\":11931:11934   */\n              dup6\n                /* \"#utility.yul\":11913:11935   */\n              tag_138\n              jump\t// in\n            tag_292:\n                /* \"#utility.yul\":11903:11911   */\n              dup4\n                /* \"#utility.yul\":11899:11936   */\n              add\n                /* \"#utility.yul\":11886:11897   */\n              dup3\n                /* \"#utility.yul\":11857:11937   */\n              tag_147\n              jump\t// in\n            tag_291:\n                /* \"#utility.yul\":11516:11947   */\n              pop\n              pop\n                /* \"#utility.yul\":11501:11947   */\n            tag_287:\n                /* \"#utility.yul\":11411:11954   */\n              pop\n              pop\n              pop\n              jump\t// out\n                /* \"#utility.yul\":11960:12077   */\n            tag_149:\n                /* \"#utility.yul\":12014:12022   */\n              0x00\n                /* \"#utility.yul\":12064:12069   */\n              dup3\n                /* \"#utility.yul\":12058:12062   */\n              dup3\n                /* \"#utility.yul\":12054:12070   */\n              shr\n                /* \"#utility.yul\":12033:12070   */\n              swap1\n              pop\n                /* \"#utility.yul\":11960:12077   */\n              swap3\n              swap2\n              pop\n              pop\n              jump\t// out\n                /* \"#utility.yul\":12083:12252   */\n            tag_150:\n                /* \"#utility.yul\":12127:12133   */\n              0x00\n                /* \"#utility.yul\":12160:12211   */\n              tag_295\n                /* \"#utility.yul\":12208:12209   */\n              0x00\n                /* \"#utility.yul\":12204:12210   */\n              not\n                /* \"#utility.yul\":12196:12201   */\n              dup5\n                /* \"#utility.yul\":12193:12194   */\n              0x08\n                /* \"#utility.yul\":12189:12202   */\n              mul\n                /* \"#utility.yul\":12160:12211   */\n              tag_149\n              jump\t// in\n            tag_295:\n                /* \"#utility.yul\":12156:12212   */\n              not\n                /* \"#utility.yul\":12241:12245   */\n              dup1\n                /* \"#utility.yul\":12235:12239   */\n              dup4\n                /* \"#utility.yul\":12231:12246   */\n              and\n                /* \"#utility.yul\":12221:12246   */\n              swap2\n              pop\n                /* \"#utility.yul\":12134:12252   */\n              pop\n                /* \"#utility.yul\":12083:12252   */\n              swap3\n              swap2\n              pop\n              pop\n              jump\t// out\n                /* \"#utility.yul\":12257:12552   */\n            tag_151:\n                /* \"#utility.yul\":12333:12337   */\n              0x00\n                /* \"#utility.yul\":12479:12508   */\n              tag_297\n                /* \"#utility.yul\":12504:12507   */\n              dup4\n                /* \"#utility.yul\":12498:12502   */\n              dup4\n                /* \"#utility.yul\":12479:12508   */\n              tag_150\n              jump\t// in\n            tag_297:\n                /* \"#utility.yul\":12471:12508   */\n              swap2\n              pop\n                /* \"#utility.yul\":12541:12544   */\n              dup3\n                /* \"#utility.yul\":12538:12539   */\n              0x02\n                /* \"#utility.yul\":12534:12545   */\n              mul\n                /* \"#utility.yul\":12528:12532   */\n              dup3\n                /* \"#utility.yul\":12525:12546   */\n              or\n                /* \"#utility.yul\":12517:12546   */\n              swap1\n              pop\n                /* \"#utility.yul\":12257:12552   */\n              swap3\n              swap2\n              pop\n              pop\n              jump\t// out\n                /* \"#utility.yul\":12557:13952   */\n            tag_94:\n                /* \"#utility.yul\":12674:12711   */\n              tag_299\n                /* \"#utility.yul\":12707:12710   */\n              dup3\n                /* \"#utility.yul\":12674:12711   */\n              tag_112\n              jump\t// in\n            tag_299:\n                /* \"#utility.yul\":12776:12794   */\n              0xffffffffffffffff\n                /* \"#utility.yul\":12768:12774   */\n              dup2\n                /* \"#utility.yul\":12765:12795   */\n              gt\n                /* \"#utility.yul\":12762:12818   */\n              iszero\n              tag_300\n              jumpi\n                /* \"#utility.yul\":12798:12816   */\n              tag_301\n              tag_127\n              jump\t// in\n            tag_301:\n                /* \"#utility.yul\":12762:12818   */\n            tag_300:\n                /* \"#utility.yul\":12842:12880   */\n              tag_302\n                /* \"#utility.yul\":12874:12878   */\n              dup3\n                /* \"#utility.yul\":12868:12879   */\n              sload\n                /* \"#utility.yul\":12842:12880   */\n              tag_69\n              jump\t// in\n            tag_302:\n                /* \"#utility.yul\":12927:12994   */\n              tag_303\n                /* \"#utility.yul\":12987:12993   */\n              dup3\n                /* \"#utility.yul\":12979:12985   */\n              dup3\n                /* \"#utility.yul\":12973:12977   */\n              dup6\n                /* \"#utility.yul\":12927:12994   */\n              tag_148\n              jump\t// in\n            tag_303:\n                /* \"#utility.yul\":13021:13022   */\n              0x00\n                /* \"#utility.yul\":13045:13049   */\n              0x20\n                /* \"#utility.yul\":13032:13049   */\n              swap1\n              pop\n                /* \"#utility.yul\":13077:13079   */\n              0x1f\n                /* \"#utility.yul\":13069:13075   */\n              dup4\n                /* \"#utility.yul\":13066:13080   */\n              gt\n                /* \"#utility.yul\":13094:13095   */\n              0x01\n                /* \"#utility.yul\":13089:13707   */\n              dup2\n              eq\n              tag_305\n              jumpi\n                /* \"#utility.yul\":13751:13752   */\n              0x00\n                /* \"#utility.yul\":13768:13774   */\n              dup5\n                /* \"#utility.yul\":13765:13842   */\n              iszero\n              tag_306\n              jumpi\n                /* \"#utility.yul\":13817:13826   */\n              dup3\n                /* \"#utility.yul\":13812:13815   */\n              dup8\n                /* \"#utility.yul\":13808:13827   */\n              add\n                /* \"#utility.yul\":13802:13828   */\n              mload\n                /* \"#utility.yul\":13793:13828   */\n              swap1\n              pop\n                /* \"#utility.yul\":13765:13842   */\n            tag_306:\n                /* \"#utility.yul\":13868:13935   */\n              tag_307\n                /* \"#utility.yul\":13928:13934   */\n              dup6\n                /* \"#utility.yul\":13921:13926   */\n              dup3\n                /* \"#utility.yul\":13868:13935   */\n              tag_151\n              jump\t// in\n            tag_307:\n                /* \"#utility.yul\":13862:13866   */\n              dup7\n                /* \"#utility.yul\":13855:13936   */\n              sstore\n                /* \"#utility.yul\":13724:13946   */\n              pop\n                /* \"#utility.yul\":13059:13946   */\n              jump(tag_304)\n                /* \"#utility.yul\":13089:13707   */\n            tag_305:\n                /* \"#utility.yul\":13141:13145   */\n              0x1f\n                /* \"#utility.yul\":13137:13146   */\n              not\n                /* \"#utility.yul\":13129:13135   */\n              dup5\n                /* \"#utility.yul\":13125:13147   */\n              and\n                /* \"#utility.yul\":13175:13212   */\n              tag_308\n                /* \"#utility.yul\":13207:13211   */\n              dup7\n                /* \"#utility.yul\":13175:13212   */\n              tag_137\n              jump\t// in\n            tag_308:\n                /* \"#utility.yul\":13234:13235   */\n              0x00\n                /* \"#utility.yul\":13248:13456   */\n            tag_309:\n                /* \"#utility.yul\":13262:13269   */\n              dup3\n                /* \"#utility.yul\":13259:13260   */\n              dup2\n                /* \"#utility.yul\":13256:13270   */\n              lt\n                /* \"#utility.yul\":13248:13456   */\n              iszero\n              tag_311\n              jumpi\n                /* \"#utility.yul\":13341:13350   */\n              dup5\n                /* \"#utility.yul\":13336:13339   */\n              dup10\n                /* \"#utility.yul\":13332:13351   */\n              add\n                /* \"#utility.yul\":13326:13352   */\n              mload\n                /* \"#utility.yul\":13318:13324   */\n              dup3\n                /* \"#utility.yul\":13311:13353   */\n              sstore\n                /* \"#utility.yul\":13392:13393   */\n              0x01\n                /* \"#utility.yul\":13384:13390   */\n              dup3\n                /* \"#utility.yul\":13380:13394   */\n              add\n                /* \"#utility.yul\":13370:13394   */\n              swap2\n              pop\n                /* \"#utility.yul\":13439:13441   */\n              0x20\n                /* \"#utility.yul\":13428:13437   */\n              dup6\n                /* \"#utility.yul\":13424:13442   */\n              add\n                /* \"#utility.yul\":13411:13442   */\n              swap5\n              pop\n                /* \"#utility.yul\":13285:13289   */\n              0x20\n                /* \"#utility.yul\":13282:13283   */\n              dup2\n                /* \"#utility.yul\":13278:13290   */\n              add\n                /* \"#utility.yul\":13273:13290   */\n              swap1\n              pop\n                /* \"#utility.yul\":13248:13456   */\n              jump(tag_309)\n            tag_311:\n                /* \"#utility.yul\":13484:13490   */\n              dup7\n                /* \"#utility.yul\":13475:13482   */\n              dup4\n                /* \"#utility.yul\":13472:13491   */\n              lt\n                /* \"#utility.yul\":13469:13648   */\n              iszero\n              tag_312\n              jumpi\n                /* \"#utility.yul\":13542:13551   */\n              dup5\n                /* \"#utility.yul\":13537:13540   */\n              dup10\n                /* \"#utility.yul\":13533:13552   */\n              add\n                /* \"#utility.yul\":13527:13553   */\n              mload\n                /* \"#utility.yul\":13585:13633   */\n              tag_313\n                /* \"#utility.yul\":13627:13631   */\n              0x1f\n                /* \"#utility.yul\":13619:13625   */\n              dup10\n                /* \"#utility.yul\":13615:13632   */\n              and\n                /* \"#utility.yul\":13604:13613   */\n              dup3\n                /* \"#utility.yul\":13585:13633   */\n              tag_150\n              jump\t// in\n            tag_313:\n                /* \"#utility.yul\":13577:13583   */\n              dup4\n                /* \"#utility.yul\":13570:13634   */\n              sstore\n                /* \"#utility.yul\":13492:13648   */\n              pop\n                /* \"#utility.yul\":13469:13648   */\n            tag_312:\n                /* \"#utility.yul\":13694:13695   */\n              0x01\n                /* \"#utility.yul\":13690:13691   */\n              0x02\n                /* \"#utility.yul\":13682:13688   */\n              dup9\n                /* \"#utility.yul\":13678:13692   */\n              mul\n                /* \"#utility.yul\":13674:13696   */\n              add\n                /* \"#utility.yul\":13668:13672   */\n              dup9\n                /* \"#utility.yul\":13661:13697   */\n              sstore\n                /* \"#utility.yul\":13096:13707   */\n              pop\n              pop\n              pop\n                /* \"#utility.yul\":13059:13946   */\n            tag_304:\n              pop\n                /* \"#utility.yul\":12649:13952   */\n              pop\n              pop\n              pop\n                /* \"#utility.yul\":12557:13952   */\n              pop\n              pop\n              jump\t// out\n                /* \"#utility.yul\":13958:14191   */\n            tag_98:\n                /* \"#utility.yul\":13997:14000   */\n              0x00\n                /* \"#utility.yul\":14020:14044   */\n              tag_315\n                /* \"#utility.yul\":14038:14043   */\n              dup3\n                /* \"#utility.yul\":14020:14044   */\n              tag_109\n              jump\t// in\n            tag_315:\n                /* \"#utility.yul\":14011:14044   */\n              swap2\n              pop\n                /* \"#utility.yul\":14066:14132   */\n              0xffffffffffffffffffffffffffffffffffffffffffffffffffffffffffffffff\n                /* \"#utility.yul\":14059:14064   */\n              dup3\n                /* \"#utility.yul\":14056:14133   */\n              sub\n                /* \"#utility.yul\":14053:14156   */\n              tag_316\n              jumpi\n                /* \"#utility.yul\":14136:14154   */\n              tag_317\n              tag_136\n              jump\t// in\n            tag_317:\n                /* \"#utility.yul\":14053:14156   */\n            tag_316:\n                /* \"#utility.yul\":14183:14184   */\n              0x01\n                /* \"#utility.yul\":14176:14181   */\n              dup3\n                /* \"#utility.yul\":14172:14185   */\n              add\n                /* \"#utility.yul\":14165:14185   */\n              swap1\n              pop\n                /* \"#utility.yul\":13958:14191   */\n              swap2\n              swap1\n              pop\n              jump\t// out\n\n            auxdata: 0xa264697066735822122060717911c88548506cb6f58da6d8a70f26bd248a1dfd2f8e2c8f94b9a3cf417364736f6c63430008110033\n        }\n    }\n\n    auxdata: 0xa26469706673582212200b4bbad2468021dae62227de566238c34ad35544e4b101295d7154395bb3923a64736f6c63430008110033\n}\n","bytecode":{"linkReferences":{},"object":"608060405234801561001057600080fd5b506116a1806100206000396000f3fe608060405234801561001057600080fd5b50600436106100415760003560e01c8063339d50a514610046578063a3303a7514610076578063aa9a068f14610092575b600080fd5b610060600480360381019061005b9190610266565b6100b0565b60405161006d91906102d4565b60405180910390f35b610090600480360381019061008b9190610266565b6100ef565b005b61009a610190565b6040516100a791906103ad565b60405180910390f35b600081815481106100c057600080fd5b906000526020600020016000915054906101000a900473ffffffffffffffffffffffffffffffffffffffff1681565b600033826040516100ff9061021e565b61010a9291906103ff565b604051809103906000f080158015610126573d6000803e3d6000fd5b5090506000819080600181540180825580915050600190039060005260206000200160009091909190916101000a81548173ffffffffffffffffffffffffffffffffffffffff021916908373ffffffffffffffffffffffffffffffffffffffff1602179055505050565b6060600080548060200260200160405190810160405280929190818152602001828054801561021457602002820191906000526020600020905b8160009054906101000a900473ffffffffffffffffffffffffffffffffffffffff1673ffffffffffffffffffffffffffffffffffffffff16815260200190600101908083116101ca575b5050505050905090565b6112438061042983390190565b600080fd5b6000819050919050565b61024381610230565b811461024e57600080fd5b50565b6000813590506102608161023a565b92915050565b60006020828403121561027c5761027b61022b565b5b600061028a84828501610251565b91505092915050565b600073ffffffffffffffffffffffffffffffffffffffff82169050919050565b60006102be82610293565b9050919050565b6102ce816102b3565b82525050565b60006020820190506102e960008301846102c5565b92915050565b600081519050919050565b600082825260208201905092915050565b6000819050602082019050919050565b610324816102b3565b82525050565b6000610336838361031b565b60208301905092915050565b6000602082019050919050565b600061035a826102ef565b61036481856102fa565b935061036f8361030b565b8060005b838110156103a0578151610387888261032a565b975061039283610342565b925050600181019050610373565b5085935050505092915050565b600060208201905081810360008301526103c7818461034f565b905092915050565b60006103da82610293565b9050919050565b6103ea816103cf565b82525050565b6103f981610230565b82525050565b600060408201905061041460008301856103e1565b61042160208301846103f0565b939250505056fe60806040523480156200001157600080fd5b50604051620012433803806200124383398181016040528101906200003791906200012b565b816000806101000a81548173ffffffffffffffffffffffffffffffffffffffff021916908373ffffffffffffffffffffffffffffffffffffffff16021790555080600181905550505062000172565b600080fd5b600073ffffffffffffffffffffffffffffffffffffffff82169050919050565b6000620000b8826200008b565b9050919050565b620000ca81620000ab565b8114620000d657600080fd5b50565b600081519050620000ea81620000bf565b92915050565b6000819050919050565b6200010581620000f0565b81146200011157600080fd5b50565b6000815190506200012581620000fa565b92915050565b6000806040838503121562000145576200014462000086565b5b60006200015585828601620000d9565b9250506020620001688582860162000114565b9150509250929050565b6110c180620001826000396000f3fe60806040526004361061009c5760003560e01c8063481c6a7511610064578063481c6a75146101a257806382fde093146101cd5780638a9cfd55146101f8578063aaffadf314610221578063d7bb99ba1461024c578063d7d1bbdb146102565761009c565b806302e9d43b146100a157806303441006146100e25780630a1443911461010b5780633fad1834146101485780634051ddac14610173575b600080fd5b3480156100ad57600080fd5b506100c860048036038101906100c39190610884565b61027f565b6040516100d99594939291906109ac565b60405180910390f35b3480156100ee57600080fd5b5061010960048036038101906101049190610884565b61037a565b005b34801561011757600080fd5b50610132600480360381019061012d9190610a32565b6104c2565b60405161013f9190610a5f565b60405180910390f35b34801561015457600080fd5b5061015d6104e2565b60405161016a9190610a7a565b60405180910390f35b34801561017f57600080fd5b506101886104ef565b604051610199959493929190610a95565b60405180910390f35b3480156101ae57600080fd5b506101b7610536565b6040516101c49190610ae8565b60405180910390f35b3480156101d957600080fd5b506101e261055a565b6040516101ef9190610a7a565b60405180910390f35b34801561020457600080fd5b5061021f600480360381019061021a9190610c38565b610560565b005b34801561022d57600080fd5b50610236610667565b6040516102439190610a7a565b60405180910390f35b61025461066d565b005b34801561026257600080fd5b5061027d60048036038101906102789190610884565b6106ed565b005b6002818154811061028f57600080fd5b90600052602060002090600502016000915090508060000180546102b290610cd6565b80601f01602080910402602001604051908101604052809291908181526020018280546102de90610cd6565b801561032b5780601f106103005761010080835404028352916020019161032b565b820191906000526020600020905b81548152906001019060200180831161030e57829003601f168201915b5050505050908060010154908060020160009054906101000a900473ffffffffffffffffffffffffffffffffffffffff16908060020160149054906101000a900460ff16908060030154905085565b60008054906101000a900473ffffffffffffffffffffffffffffffffffffffff1673ffffffffffffffffffffffffffffffffffffffff163373ffffffffffffffffffffffffffffffffffffffff16146103d257600080fd5b6000600282815481106103e8576103e7610d07565b5b9060005260206000209060050201905060026004546104079190610d94565b81600301541161041657600080fd5b8060020160149054906101000a900460ff161561043257600080fd5b8060020160009054906101000a900473ffffffffffffffffffffffffffffffffffffffff1673ffffffffffffffffffffffffffffffffffffffff166108fc82600101549081150290604051600060405180830381858888f193505050501580156104a0573d6000803e3d6000fd5b5060018160020160146101000a81548160ff0219169083151502179055505050565b60036020528060005260406000206000915054906101000a900460ff1681565b6000600280549050905090565b60008060008060006001544760028054905060045460008054906101000a900473ffffffffffffffffffffffffffffffffffffffff16945094509450945094509091929394565b60008054906101000a900473ffffffffffffffffffffffffffffffffffffffff1681565b60045481565b60008054906101000a900473ffffffffffffffffffffffffffffffffffffffff1673ffffffffffffffffffffffffffffffffffffffff163373ffffffffffffffffffffffffffffffffffffffff16146105b857600080fd5b600060026001816001815401808255809150500390600052602060002090600502019050838160000190816105ed9190610f71565b50828160010181905550818160020160006101000a81548173ffffffffffffffffffffffffffffffffffffffff021916908373ffffffffffffffffffffffffffffffffffffffff16021790555060008160020160146101000a81548160ff0219169083151502179055506000816003018190555050505050565b60015481565b600154341161067b57600080fd5b6001600360003373ffffffffffffffffffffffffffffffffffffffff1673ffffffffffffffffffffffffffffffffffffffff16815260200190815260200160002060006101000a81548160ff021916908315150217905550600460008154809291906106e690611043565b9190505550565b60006002828154811061070357610702610d07565b5b90600052602060002090600502019050600360003373ffffffffffffffffffffffffffffffffffffffff1673ffffffffffffffffffffffffffffffffffffffff16815260200190815260200160002060009054906101000a900460ff1661076957600080fd5b8060040160003373ffffffffffffffffffffffffffffffffffffffff1673ffffffffffffffffffffffffffffffffffffffff16815260200190815260200160002060009054906101000a900460ff16156107c257600080fd5b60018160040160003373ffffffffffffffffffffffffffffffffffffffff1673ffffffffffffffffffffffffffffffffffffffff16815260200190815260200160002060006101000a81548160ff02191690831515021790555080600301600081548092919061083190611043565b91905055505050565b6000604051905090565b600080fd5b600080fd5b6000819050919050565b6108618161084e565b811461086c57600080fd5b50565b60008135905061087e81610858565b92915050565b60006020828403121561089a57610899610844565b5b60006108a88482850161086f565b91505092915050565b600081519050919050565b600082825260208201905092915050565b60005b838110156108eb5780820151818401526020810190506108d0565b60008484015250505050565b6000601f19601f8301169050919050565b6000610913826108b1565b61091d81856108bc565b935061092d8185602086016108cd565b610936816108f7565b840191505092915050565b61094a8161084e565b82525050565b600073ffffffffffffffffffffffffffffffffffffffff82169050919050565b600061097b82610950565b9050919050565b61098b81610970565b82525050565b60008115159050919050565b6109a681610991565b82525050565b600060a08201905081810360008301526109c68188610908565b90506109d56020830187610941565b6109e26040830186610982565b6109ef606083018561099d565b6109fc6080830184610941565b9695505050505050565b610a0f81610970565b8114610a1a57600080fd5b50565b600081359050610a2c81610a06565b92915050565b600060208284031215610a4857610a47610844565b5b6000610a5684828501610a1d565b91505092915050565b6000602082019050610a74600083018461099d565b92915050565b6000602082019050610a8f6000830184610941565b92915050565b600060a082019050610aaa6000830188610941565b610ab76020830187610941565b610ac46040830186610941565b610ad16060830185610941565b610ade6080830184610982565b9695505050505050565b6000602082019050610afd6000830184610982565b92915050565b600080fd5b600080fd5b7f4e487b7100000000000000000000000000000000000000000000000000000000600052604160045260246000fd5b610b45826108f7565b810181811067ffffffffffffffff82111715610b6457610b63610b0d565b5b80604052505050565b6000610b7761083a565b9050610b838282610b3c565b919050565b600067ffffffffffffffff821115610ba357610ba2610b0d565b5b610bac826108f7565b9050602081019050919050565b82818337600083830152505050565b6000610bdb610bd684610b88565b610b6d565b905082815260208101848484011115610bf757610bf6610b08565b5b610c02848285610bb9565b509392505050565b600082601f830112610c1f57610c1e610b03565b5b8135610c2f848260208601610bc8565b91505092915050565b600080600060608486031215610c5157610c50610844565b5b600084013567ffffffffffffffff811115610c6f57610c6e610849565b5b610c7b86828701610c0a565b9350506020610c8c8682870161086f565b9250506040610c9d86828701610a1d565b9150509250925092565b7f4e487b7100000000000000000000000000000000000000000000000000000000600052602260045260246000fd5b60006002820490506001821680610cee57607f821691505b602082108103610d0157610d00610ca7565b5b50919050565b7f4e487b7100000000000000000000000000000000000000000000000000000000600052603260045260246000fd5b7f4e487b7100000000000000000000000000000000000000000000000000000000600052601260045260246000fd5b7f4e487b7100000000000000000000000000000000000000000000000000000000600052601160045260246000fd5b6000610d9f8261084e565b9150610daa8361084e565b925082610dba57610db9610d36565b5b828204905092915050565b60008190508160005260206000209050919050565b60006020601f8301049050919050565b600082821b905092915050565b600060088302610e277fffffffffffffffffffffffffffffffffffffffffffffffffffffffffffffffff82610dea565b610e318683610dea565b95508019841693508086168417925050509392505050565b6000819050919050565b6000610e6e610e69610e648461084e565b610e49565b61084e565b9050919050565b6000819050919050565b610e8883610e53565b610e9c610e9482610e75565b848454610df7565b825550505050565b600090565b610eb1610ea4565b610ebc818484610e7f565b505050565b5b81811015610ee057610ed5600082610ea9565b600181019050610ec2565b5050565b601f821115610f2557610ef681610dc5565b610eff84610dda565b81016020851015610f0e578190505b610f22610f1a85610dda565b830182610ec1565b50505b505050565b600082821c905092915050565b6000610f4860001984600802610f2a565b1980831691505092915050565b6000610f618383610f37565b9150826002028217905092915050565b610f7a826108b1565b67ffffffffffffffff811115610f9357610f92610b0d565b5b610f9d8254610cd6565b610fa8828285610ee4565b600060209050601f831160018114610fdb5760008415610fc9578287015190505b610fd38582610f55565b86555061103b565b601f198416610fe986610dc5565b60005b8281101561101157848901518255600182019150602085019450602081019050610fec565b8683101561102e578489015161102a601f891682610f37565b8355505b6001600288020188555050505b505050505050565b600061104e8261084e565b91507fffffffffffffffffffffffffffffffffffffffffffffffffffffffffffffffff82036110805761107f610d65565b5b60018201905091905056fea264697066735822122060717911c88548506cb6f58da6d8a70f26bd248a1dfd2f8e2c8f94b9a3cf417364736f6c63430008110033a26469706673582212200b4bbad2468021dae62227de566238c34ad35544e4b101295d7154395bb3923a64736f6c63430008110033","opcodes":"PUSH1 0x80 PUSH1 0x40 MSTORE CALLVALUE DUP1 ISZERO PUSH2 0x10 JUMPI PUSH1 0x0 DUP1 REVERT JUMPDEST POP PUSH2 0x16A1 DUP1 PUSH2 0x20 PUSH1 0x0 CODECOPY PUSH1 0x0 RETURN INVALID PUSH1 0x80 PUSH1 0x40 MSTORE CALLVALUE DUP1 ISZERO PUSH2 0x10 JUMPI PUSH1 0x0 DUP1 REVERT JUMPDEST POP PUSH1 0x4 CALLDATASIZE LT PUSH2 0x41 JUMPI PUSH1 0x0 CALLDATALOAD PUSH1 0xE0 SHR DUP1 PUSH4 0x339D50A5 EQ PUSH2 0x46 JUMPI DUP1 PUSH4 0xA3303A75 EQ PUSH2 0x76 JUMPI DUP1 PUSH4 0xAA9A068F EQ PUSH2 0x92 JUMPI JUMPDEST PUSH1 0x0 DUP1 REVERT JUMPDEST PUSH2 0x60 PUSH1 0x4 DUP1 CALLDATASIZE SUB DUP2 ADD SWAP1 PUSH2 0x5B SWAP2 SWAP1 PUSH2 0x266 JUMP JUMPDEST PUSH2 0xB0 JUMP JUMPDEST PUSH1 0x40 MLOAD PUSH2 0x6D SWAP2 SWAP1 PUSH2 0x2D4 JUMP JUMPDEST PUSH1 0x40 MLOAD DUP1 SWAP2 SUB SWAP1 RETURN JUMPDEST PUSH2 0x90 PUSH1 0x4 DUP1 CALLDATASIZE SUB DUP2 ADD SWAP1 PUSH2 0x8B SWAP2 SWAP1 PUSH2 0x266 JUMP JUMPDEST PUSH2 0xEF JUMP JUMPDEST STOP JUMPDEST PUSH2 0x9A PUSH2 0x190 JUMP JUMPDEST PUSH1 0x40 MLOAD PUSH2 0xA7 SWAP2 SWAP1 PUSH2 0x3AD JUMP JUMPDEST PUSH1 0x40 MLOAD DUP1 SWAP2 SUB SWAP1 RETURN JUMPDEST PUSH1 0x0 DUP2 DUP2 SLOAD DUP2 LT PUSH2 0xC0 JUMPI PUSH1 0x0 DUP1 REVERT JUMPDEST SWAP1 PUSH1 0x0 MSTORE PUSH1 0x20 PUSH1 0x0 KECCAK256 ADD PUSH1 0x0 SWAP2 POP SLOAD SWAP1 PUSH2 0x100 EXP SWAP1 DIV PUSH20 0xFFFFFFFFFFFFFFFFFFFFFFFFFFFFFFFFFFFFFFFF AND DUP2 JUMP JUMPDEST PUSH1 0x0 CALLER DUP3 PUSH1 0x40 MLOAD PUSH2 0xFF SWAP1 PUSH2 0x21E JUMP JUMPDEST PUSH2 0x10A SWAP3 SWAP2 SWAP1 PUSH2 0x3FF JUMP JUMPDEST PUSH1 0x40 MLOAD DUP1 SWAP2 SUB SWAP1 PUSH1 0x0 CREATE DUP1 ISZERO DUP1 ISZERO PUSH2 0x126 JUMPI RETURNDATASIZE PUSH1 0x0 DUP1 RETURNDATACOPY RETURNDATASIZE PUSH1 0x0 REVERT JUMPDEST POP SWAP1 POP PUSH1 0x0 DUP2 SWAP1 DUP1 PUSH1 0x1 DUP2 SLOAD ADD DUP1 DUP3 SSTORE DUP1 SWAP2 POP POP PUSH1 0x1 SWAP1 SUB SWAP1 PUSH1 0x0 MSTORE PUSH1 0x20 PUSH1 0x0 KECCAK256 ADD PUSH1 0x0 SWAP1 SWAP2 SWAP1 SWAP2 SWAP1 SWAP2 PUSH2 0x100 EXP DUP2 SLOAD DUP2 PUSH20 0xFFFFFFFFFFFFFFFFFFFFFFFFFFFFFFFFFFFFFFFF MUL NOT AND SWAP1 DUP4 PUSH20 0xFFFFFFFFFFFFFFFFFFFFFFFFFFFFFFFFFFFFFFFF AND MUL OR SWAP1 SSTORE POP POP POP JUMP JUMPDEST PUSH1 0x60 PUSH1 0x0 DUP1 SLOAD DUP1 PUSH1 0x20 MUL PUSH1 0x20 ADD PUSH1 0x40 MLOAD SWAP1 DUP2 ADD PUSH1 0x40 MSTORE DUP1 SWAP3 SWAP2 SWAP1 DUP2 DUP2 MSTORE PUSH1 0x20 ADD DUP3 DUP1 SLOAD DUP1 ISZERO PUSH2 0x214 JUMPI PUSH1 0x20 MUL DUP3 ADD SWAP2 SWAP1 PUSH1 0x0 MSTORE PUSH1 0x20 PUSH1 0x0 KECCAK256 SWAP1 JUMPDEST DUP2 PUSH1 0x0 SWAP1 SLOAD SWAP1 PUSH2 0x100 EXP SWAP1 DIV PUSH20 0xFFFFFFFFFFFFFFFFFFFFFFFFFFFFFFFFFFFFFFFF AND PUSH20 0xFFFFFFFFFFFFFFFFFFFFFFFFFFFFFFFFFFFFFFFF AND DUP2 MSTORE PUSH1 0x20 ADD SWAP1 PUSH1 0x1 ADD SWAP1 DUP1 DUP4 GT PUSH2 0x1CA JUMPI JUMPDEST POP POP POP POP POP SWAP1 POP SWAP1 JUMP JUMPDEST PUSH2 0x1243 DUP1 PUSH2 0x429 DUP4 CODECOPY ADD SWAP1 JUMP JUMPDEST PUSH1 0x0 DUP1 REVERT JUMPDEST PUSH1 0x0 DUP2 SWAP1 POP SWAP2 SWAP1 POP JUMP JUMPDEST PUSH2 0x243 DUP2 PUSH2 0x230 JUMP JUMPDEST DUP2 EQ PUSH2 0x24E JUMPI PUSH1 0x0 DUP1 REVERT JUMPDEST POP JUMP JUMPDEST PUSH1 0x0 DUP2 CALLDATALOAD SWAP1 POP PUSH2 0x260 DUP2 PUSH2 0x23A JUMP JUMPDEST SWAP3 SWAP2 POP POP JUMP JUMPDEST PUSH1 0x0 PUSH1 0x20 DUP3 DUP5 SUB SLT ISZERO PUSH2 0x27C JUMPI PUSH2 0x27B PUSH2 0x22B JUMP JUMPDEST JUMPDEST PUSH1 0x0 PUSH2 0x28A DUP5 DUP3 DUP6 ADD PUSH2 0x251 JUMP JUMPDEST SWAP2 POP POP SWAP3 SWAP2 POP POP JUMP JUMPDEST PUSH1 0x0 PUSH20 0xFFFFFFFFFFFFFFFFFFFFFFFFFFFFFFFFFFFFFFFF DUP3 AND SWAP1 POP SWAP2 SWAP1 POP JUMP JUMPDEST PUSH1 0x0 PUSH2 0x2BE DUP3 PUSH2 0x293 JUMP JUMPDEST SWAP1 POP SWAP2 SWAP1 POP JUMP JUMPDEST PUSH2 0x2CE DUP2 PUSH2 0x2B3 JUMP JUMPDEST DUP3 MSTORE POP POP JUMP JUMPDEST PUSH1 0x0 PUSH1 0x20 DUP3 ADD SWAP1 POP PUSH2 0x2E9 PUSH1 0x0 DUP4 ADD DUP5 PUSH2 0x2C5 JUMP JUMPDEST SWAP3 SWAP2 POP POP JUMP JUMPDEST PUSH1 0x0 DUP2 MLOAD SWAP1 POP SWAP2 SWAP1 POP JUMP JUMPDEST PUSH1 0x0 DUP3 DUP3 MSTORE PUSH1 0x20 DUP3 ADD SWAP1 POP SWAP3 SWAP2 POP POP JUMP JUMPDEST PUSH1 0x0 DUP2 SWAP1 POP PUSH1 0x20 DUP3 ADD SWAP1 POP SWAP2 SWAP1 POP JUMP JUMPDEST PUSH2 0x324 DUP2 PUSH2 0x2B3 JUMP JUMPDEST DUP3 MSTORE POP POP JUMP JUMPDEST PUSH1 0x0 PUSH2 0x336 DUP4 DUP4 PUSH2 0x31B JUMP JUMPDEST PUSH1 0x20 DUP4 ADD SWAP1 POP SWAP3 SWAP2 POP POP JUMP JUMPDEST PUSH1 0x0 PUSH1 0x20 DUP3 ADD SWAP1 POP SWAP2 SWAP1 POP JUMP JUMPDEST PUSH1 0x0 PUSH2 0x35A DUP3 PUSH2 0x2EF JUMP JUMPDEST PUSH2 0x364 DUP2 DUP6 PUSH2 0x2FA JUMP JUMPDEST SWAP4 POP PUSH2 0x36F DUP4 PUSH2 0x30B JUMP JUMPDEST DUP1 PUSH1 0x0 JUMPDEST DUP4 DUP2 LT ISZERO PUSH2 0x3A0 JUMPI DUP2 MLOAD PUSH2 0x387 DUP9 DUP3 PUSH2 0x32A JUMP JUMPDEST SWAP8 POP PUSH2 0x392 DUP4 PUSH2 0x342 JUMP JUMPDEST SWAP3 POP POP PUSH1 0x1 DUP2 ADD SWAP1 POP PUSH2 0x373 JUMP JUMPDEST POP DUP6 SWAP4 POP POP POP POP SWAP3 SWAP2 POP POP JUMP JUMPDEST PUSH1 0x0 PUSH1 0x20 DUP3 ADD SWAP1 POP DUP2 DUP2 SUB PUSH1 0x0 DUP4 ADD MSTORE PUSH2 0x3C7 DUP2 DUP5 PUSH2 0x34F JUMP JUMPDEST SWAP1 POP SWAP3 SWAP2 POP POP JUMP JUMPDEST PUSH1 0x0 PUSH2 0x3DA DUP3 PUSH2 0x293 JUMP JUMPDEST SWAP1 POP SWAP2 SWAP1 POP JUMP JUMPDEST PUSH2 0x3EA DUP2 PUSH2 0x3CF JUMP JUMPDEST DUP3 MSTORE POP POP JUMP JUMPDEST PUSH2 0x3F9 DUP2 PUSH2 0x230 JUMP JUMPDEST DUP3 MSTORE POP POP JUMP JUMPDEST PUSH1 0x0 PUSH1 0x40 DUP3 ADD SWAP1 POP PUSH2 0x414 PUSH1 0x0 DUP4 ADD DUP6 PUSH2 0x3E1 JUMP JUMPDEST PUSH2 0x421 PUSH1 0x20 DUP4 ADD DUP5 PUSH2 0x3F0 JUMP JUMPDEST SWAP4 SWAP3 POP POP POP JUMP INVALID PUSH1 0x80 PUSH1 0x40 MSTORE CALLVALUE DUP1 ISZERO PUSH3 0x11 JUMPI PUSH1 0x0 DUP1 REVERT JUMPDEST POP PUSH1 0x40 MLOAD PUSH3 0x1243 CODESIZE SUB DUP1 PUSH3 0x1243 DUP4 CODECOPY DUP2 DUP2 ADD PUSH1 0x40 MSTORE DUP2 ADD SWAP1 PUSH3 0x37 SWAP2 SWAP1 PUSH3 0x12B JUMP JUMPDEST DUP2 PUSH1 0x0 DUP1 PUSH2 0x100 EXP DUP2 SLOAD DUP2 PUSH20 0xFFFFFFFFFFFFFFFFFFFFFFFFFFFFFFFFFFFFFFFF MUL NOT AND SWAP1 DUP4 PUSH20 0xFFFFFFFFFFFFFFFFFFFFFFFFFFFFFFFFFFFFFFFF AND MUL OR SWAP1 SSTORE POP DUP1 PUSH1 0x1 DUP2 SWAP1 SSTORE POP POP POP PUSH3 0x172 JUMP JUMPDEST PUSH1 0x0 DUP1 REVERT JUMPDEST PUSH1 0x0 PUSH20 0xFFFFFFFFFFFFFFFFFFFFFFFFFFFFFFFFFFFFFFFF DUP3 AND SWAP1 POP SWAP2 SWAP1 POP JUMP JUMPDEST PUSH1 0x0 PUSH3 0xB8 DUP3 PUSH3 0x8B JUMP JUMPDEST SWAP1 POP SWAP2 SWAP1 POP JUMP JUMPDEST PUSH3 0xCA DUP2 PUSH3 0xAB JUMP JUMPDEST DUP2 EQ PUSH3 0xD6 JUMPI PUSH1 0x0 DUP1 REVERT JUMPDEST POP JUMP JUMPDEST PUSH1 0x0 DUP2 MLOAD SWAP1 POP PUSH3 0xEA DUP2 PUSH3 0xBF JUMP JUMPDEST SWAP3 SWAP2 POP POP JUMP JUMPDEST PUSH1 0x0 DUP2 SWAP1 POP SWAP2 SWAP1 POP JUMP JUMPDEST PUSH3 0x105 DUP2 PUSH3 0xF0 JUMP JUMPDEST DUP2 EQ PUSH3 0x111 JUMPI PUSH1 0x0 DUP1 REVERT JUMPDEST POP JUMP JUMPDEST PUSH1 0x0 DUP2 MLOAD SWAP1 POP PUSH3 0x125 DUP2 PUSH3 0xFA JUMP JUMPDEST SWAP3 SWAP2 POP POP JUMP JUMPDEST PUSH1 0x0 DUP1 PUSH1 0x40 DUP4 DUP6 SUB SLT ISZERO PUSH3 0x145 JUMPI PUSH3 0x144 PUSH3 0x86 JUMP JUMPDEST JUMPDEST PUSH1 0x0 PUSH3 0x155 DUP6 DUP3 DUP7 ADD PUSH3 0xD9 JUMP JUMPDEST SWAP3 POP POP PUSH1 0x20 PUSH3 0x168 DUP6 DUP3 DUP7 ADD PUSH3 0x114 JUMP JUMPDEST SWAP2 POP POP SWAP3 POP SWAP3 SWAP1 POP JUMP JUMPDEST PUSH2 0x10C1 DUP1 PUSH3 0x182 PUSH1 0x0 CODECOPY PUSH1 0x0 RETURN INVALID PUSH1 0x80 PUSH1 0x40 MSTORE PUSH1 0x4 CALLDATASIZE LT PUSH2 0x9C JUMPI PUSH1 0x0 CALLDATALOAD PUSH1 0xE0 SHR DUP1 PUSH4 0x481C6A75 GT PUSH2 0x64 JUMPI DUP1 PUSH4 0x481C6A75 EQ PUSH2 0x1A2 JUMPI DUP1 PUSH4 0x82FDE093 EQ PUSH2 0x1CD JUMPI DUP1 PUSH4 0x8A9CFD55 EQ PUSH2 0x1F8 JUMPI DUP1 PUSH4 0xAAFFADF3 EQ PUSH2 0x221 JUMPI DUP1 PUSH4 0xD7BB99BA EQ PUSH2 0x24C JUMPI DUP1 PUSH4 0xD7D1BBDB EQ PUSH2 0x256 JUMPI PUSH2 0x9C JUMP JUMPDEST DUP1 PUSH4 0x2E9D43B EQ PUSH2 0xA1 JUMPI DUP1 PUSH4 0x3441006 EQ PUSH2 0xE2 JUMPI DUP1 PUSH4 0xA144391 EQ PUSH2 0x10B JUMPI DUP1 PUSH4 0x3FAD1834 EQ PUSH2 0x148 JUMPI DUP1 PUSH4 0x4051DDAC EQ PUSH2 0x173 JUMPI JUMPDEST PUSH1 0x0 DUP1 REVERT JUMPDEST CALLVALUE DUP1 ISZERO PUSH2 0xAD JUMPI PUSH1 0x0 DUP1 REVERT JUMPDEST POP PUSH2 0xC8 PUSH1 0x4 DUP1 CALLDATASIZE SUB DUP2 ADD SWAP1 PUSH2 0xC3 SWAP2 SWAP1 PUSH2 0x884 JUMP JUMPDEST PUSH2 0x27F JUMP JUMPDEST PUSH1 0x40 MLOAD PUSH2 0xD9 SWAP6 SWAP5 SWAP4 SWAP3 SWAP2 SWAP1 PUSH2 0x9AC JUMP JUMPDEST PUSH1 0x40 MLOAD DUP1 SWAP2 SUB SWAP1 RETURN JUMPDEST CALLVALUE DUP1 ISZERO PUSH2 0xEE JUMPI PUSH1 0x0 DUP1 REVERT JUMPDEST POP PUSH2 0x109 PUSH1 0x4 DUP1 CALLDATASIZE SUB DUP2 ADD SWAP1 PUSH2 0x104 SWAP2 SWAP1 PUSH2 0x884 JUMP JUMPDEST PUSH2 0x37A JUMP JUMPDEST STOP JUMPDEST CALLVALUE DUP1 ISZERO PUSH2 0x117 JUMPI PUSH1 0x0 DUP1 REVERT JUMPDEST POP PUSH2 0x132 PUSH1 0x4 DUP1 CALLDATASIZE SUB DUP2 ADD SWAP1 PUSH2 0x12D SWAP2 SWAP1 PUSH2 0xA32 JUMP JUMPDEST PUSH2 0x4C2 JUMP JUMPDEST PUSH1 0x40 MLOAD PUSH2 0x13F SWAP2 SWAP1 PUSH2 0xA5F JUMP JUMPDEST PUSH1 0x40 MLOAD DUP1 SWAP2 SUB SWAP1 RETURN JUMPDEST CALLVALUE DUP1 ISZERO PUSH2 0x154 JUMPI PUSH1 0x0 DUP1 REVERT JUMPDEST POP PUSH2 0x15D PUSH2 0x4E2 JUMP JUMPDEST PUSH1 0x40 MLOAD PUSH2 0x16A SWAP2 SWAP1 PUSH2 0xA7A JUMP JUMPDEST PUSH1 0x40 MLOAD DUP1 SWAP2 SUB SWAP1 RETURN JUMPDEST CALLVALUE DUP1 ISZERO PUSH2 0x17F JUMPI PUSH1 0x0 DUP1 REVERT JUMPDEST POP PUSH2 0x188 PUSH2 0x4EF JUMP JUMPDEST PUSH1 0x40 MLOAD PUSH2 0x199 SWAP6 SWAP5 SWAP4 SWAP3 SWAP2 SWAP1 PUSH2 0xA95 JUMP JUMPDEST PUSH1 0x40 MLOAD DUP1 SWAP2 SUB SWAP1 RETURN JUMPDEST CALLVALUE DUP1 ISZERO PUSH2 0x1AE JUMPI PUSH1 0x0 DUP1 REVERT JUMPDEST POP PUSH2 0x1B7 PUSH2 0x536 JUMP JUMPDEST PUSH1 0x40 MLOAD PUSH2 0x1C4 SWAP2 SWAP1 PUSH2 0xAE8 JUMP JUMPDEST PUSH1 0x40 MLOAD DUP1 SWAP2 SUB SWAP1 RETURN JUMPDEST CALLVALUE DUP1 ISZERO PUSH2 0x1D9 JUMPI PUSH1 0x0 DUP1 REVERT JUMPDEST POP PUSH2 0x1E2 PUSH2 0x55A JUMP JUMPDEST PUSH1 0x40 MLOAD PUSH2 0x1EF SWAP2 SWAP1 PUSH2 0xA7A JUMP JUMPDEST PUSH1 0x40 MLOAD DUP1 SWAP2 SUB SWAP1 RETURN JUMPDEST CALLVALUE DUP1 ISZERO PUSH2 0x204 JUMPI PUSH1 0x0 DUP1 REVERT JUMPDEST POP PUSH2 0x21F PUSH1 0x4 DUP1 CALLDATASIZE SUB DUP2 ADD SWAP1 PUSH2 0x21A SWAP2 SWAP1 PUSH2 0xC38 JUMP JUMPDEST PUSH2 0x560 JUMP JUMPDEST STOP JUMPDEST CALLVALUE DUP1 ISZERO PUSH2 0x22D JUMPI PUSH1 0x0 DUP1 REVERT JUMPDEST POP PUSH2 0x236 PUSH2 0x667 JUMP JUMPDEST PUSH1 0x40 MLOAD PUSH2 0x243 SWAP2 SWAP1 PUSH2 0xA7A JUMP JUMPDEST PUSH1 0x40 MLOAD DUP1 SWAP2 SUB SWAP1 RETURN JUMPDEST PUSH2 0x254 PUSH2 0x66D JUMP JUMPDEST STOP JUMPDEST CALLVALUE DUP1 ISZERO PUSH2 0x262 JUMPI PUSH1 0x0 DUP1 REVERT JUMPDEST POP PUSH2 0x27D PUSH1 0x4 DUP1 CALLDATASIZE SUB DUP2 ADD SWAP1 PUSH2 0x278 SWAP2 SWAP1 PUSH2 0x884 JUMP JUMPDEST PUSH2 0x6ED JUMP JUMPDEST STOP JUMPDEST PUSH1 0x2 DUP2 DUP2 SLOAD DUP2 LT PUSH2 0x28F JUMPI PUSH1 0x0 DUP1 REVERT JUMPDEST SWAP1 PUSH1 0x0 MSTORE PUSH1 0x20 PUSH1 0x0 KECCAK256 SWAP1 PUSH1 0x5 MUL ADD PUSH1 0x0 SWAP2 POP SWAP1 POP DUP1 PUSH1 0x0 ADD DUP1 SLOAD PUSH2 0x2B2 SWAP1 PUSH2 0xCD6 JUMP JUMPDEST DUP1 PUSH1 0x1F ADD PUSH1 0x20 DUP1 SWAP2 DIV MUL PUSH1 0x20 ADD PUSH1 0x40 MLOAD SWAP1 DUP2 ADD PUSH1 0x40 MSTORE DUP1 SWAP3 SWAP2 SWAP1 DUP2 DUP2 MSTORE PUSH1 0x20 ADD DUP3 DUP1 SLOAD PUSH2 0x2DE SWAP1 PUSH2 0xCD6 JUMP JUMPDEST DUP1 ISZERO PUSH2 0x32B JUMPI DUP1 PUSH1 0x1F LT PUSH2 0x300 JUMPI PUSH2 0x100 DUP1 DUP4 SLOAD DIV MUL DUP4 MSTORE SWAP2 PUSH1 0x20 ADD SWAP2 PUSH2 0x32B JUMP JUMPDEST DUP3 ADD SWAP2 SWAP1 PUSH1 0x0 MSTORE PUSH1 0x20 PUSH1 0x0 KECCAK256 SWAP1 JUMPDEST DUP2 SLOAD DUP2 MSTORE SWAP1 PUSH1 0x1 ADD SWAP1 PUSH1 0x20 ADD DUP1 DUP4 GT PUSH2 0x30E JUMPI DUP3 SWAP1 SUB PUSH1 0x1F AND DUP3 ADD SWAP2 JUMPDEST POP POP POP POP POP SWAP1 DUP1 PUSH1 0x1 ADD SLOAD SWAP1 DUP1 PUSH1 0x2 ADD PUSH1 0x0 SWAP1 SLOAD SWAP1 PUSH2 0x100 EXP SWAP1 DIV PUSH20 0xFFFFFFFFFFFFFFFFFFFFFFFFFFFFFFFFFFFFFFFF AND SWAP1 DUP1 PUSH1 0x2 ADD PUSH1 0x14 SWAP1 SLOAD SWAP1 PUSH2 0x100 EXP SWAP1 DIV PUSH1 0xFF AND SWAP1 DUP1 PUSH1 0x3 ADD SLOAD SWAP1 POP DUP6 JUMP JUMPDEST PUSH1 0x0 DUP1 SLOAD SWAP1 PUSH2 0x100 EXP SWAP1 DIV PUSH20 0xFFFFFFFFFFFFFFFFFFFFFFFFFFFFFFFFFFFFFFFF AND PUSH20 0xFFFFFFFFFFFFFFFFFFFFFFFFFFFFFFFFFFFFFFFF AND CALLER PUSH20 0xFFFFFFFFFFFFFFFFFFFFFFFFFFFFFFFFFFFFFFFF AND EQ PUSH2 0x3D2 JUMPI PUSH1 0x0 DUP1 REVERT JUMPDEST PUSH1 0x0 PUSH1 0x2 DUP3 DUP2 SLOAD DUP2 LT PUSH2 0x3E8 JUMPI PUSH2 0x3E7 PUSH2 0xD07 JUMP JUMPDEST JUMPDEST SWAP1 PUSH1 0x0 MSTORE PUSH1 0x20 PUSH1 0x0 KECCAK256 SWAP1 PUSH1 0x5 MUL ADD SWAP1 POP PUSH1 0x2 PUSH1 0x4 SLOAD PUSH2 0x407 SWAP2 SWAP1 PUSH2 0xD94 JUMP JUMPDEST DUP2 PUSH1 0x3 ADD SLOAD GT PUSH2 0x416 JUMPI PUSH1 0x0 DUP1 REVERT JUMPDEST DUP1 PUSH1 0x2 ADD PUSH1 0x14 SWAP1 SLOAD SWAP1 PUSH2 0x100 EXP SWAP1 DIV PUSH1 0xFF AND ISZERO PUSH2 0x432 JUMPI PUSH1 0x0 DUP1 REVERT JUMPDEST DUP1 PUSH1 0x2 ADD PUSH1 0x0 SWAP1 SLOAD SWAP1 PUSH2 0x100 EXP SWAP1 DIV PUSH20 0xFFFFFFFFFFFFFFFFFFFFFFFFFFFFFFFFFFFFFFFF AND PUSH20 0xFFFFFFFFFFFFFFFFFFFFFFFFFFFFFFFFFFFFFFFF AND PUSH2 0x8FC DUP3 PUSH1 0x1 ADD SLOAD SWAP1 DUP2 ISZERO MUL SWAP1 PUSH1 0x40 MLOAD PUSH1 0x0 PUSH1 0x40 MLOAD DUP1 DUP4 SUB DUP2 DUP6 DUP9 DUP9 CALL SWAP4 POP POP POP POP ISZERO DUP1 ISZERO PUSH2 0x4A0 JUMPI RETURNDATASIZE PUSH1 0x0 DUP1 RETURNDATACOPY RETURNDATASIZE PUSH1 0x0 REVERT JUMPDEST POP PUSH1 0x1 DUP2 PUSH1 0x2 ADD PUSH1 0x14 PUSH2 0x100 EXP DUP2 SLOAD DUP2 PUSH1 0xFF MUL NOT AND SWAP1 DUP4 ISZERO ISZERO MUL OR SWAP1 SSTORE POP POP POP JUMP JUMPDEST PUSH1 0x3 PUSH1 0x20 MSTORE DUP1 PUSH1 0x0 MSTORE PUSH1 0x40 PUSH1 0x0 KECCAK256 PUSH1 0x0 SWAP2 POP SLOAD SWAP1 PUSH2 0x100 EXP SWAP1 DIV PUSH1 0xFF AND DUP2 JUMP JUMPDEST PUSH1 0x0 PUSH1 0x2 DUP1 SLOAD SWAP1 POP SWAP1 POP SWAP1 JUMP JUMPDEST PUSH1 0x0 DUP1 PUSH1 0x0 DUP1 PUSH1 0x0 PUSH1 0x1 SLOAD SELFBALANCE PUSH1 0x2 DUP1 SLOAD SWAP1 POP PUSH1 0x4 SLOAD PUSH1 0x0 DUP1 SLOAD SWAP1 PUSH2 0x100 EXP SWAP1 DIV PUSH20 0xFFFFFFFFFFFFFFFFFFFFFFFFFFFFFFFFFFFFFFFF AND SWAP5 POP SWAP5 POP SWAP5 POP SWAP5 POP SWAP5 POP SWAP1 SWAP2 SWAP3 SWAP4 SWAP5 JUMP JUMPDEST PUSH1 0x0 DUP1 SLOAD SWAP1 PUSH2 0x100 EXP SWAP1 DIV PUSH20 0xFFFFFFFFFFFFFFFFFFFFFFFFFFFFFFFFFFFFFFFF AND DUP2 JUMP JUMPDEST PUSH1 0x4 SLOAD DUP2 JUMP JUMPDEST PUSH1 0x0 DUP1 SLOAD SWAP1 PUSH2 0x100 EXP SWAP1 DIV PUSH20 0xFFFFFFFFFFFFFFFFFFFFFFFFFFFFFFFFFFFFFFFF AND PUSH20 0xFFFFFFFFFFFFFFFFFFFFFFFFFFFFFFFFFFFFFFFF AND CALLER PUSH20 0xFFFFFFFFFFFFFFFFFFFFFFFFFFFFFFFFFFFFFFFF AND EQ PUSH2 0x5B8 JUMPI PUSH1 0x0 DUP1 REVERT JUMPDEST PUSH1 0x0 PUSH1 0x2 PUSH1 0x1 DUP2 PUSH1 0x1 DUP2 SLOAD ADD DUP1 DUP3 SSTORE DUP1 SWAP2 POP POP SUB SWAP1 PUSH1 0x0 MSTORE PUSH1 0x20 PUSH1 0x0 KECCAK256 SWAP1 PUSH1 0x5 MUL ADD SWAP1 POP DUP4 DUP2 PUSH1 0x0 ADD SWAP1 DUP2 PUSH2 0x5ED SWAP2 SWAP1 PUSH2 0xF71 JUMP JUMPDEST POP DUP3 DUP2 PUSH1 0x1 ADD DUP2 SWAP1 SSTORE POP DUP2 DUP2 PUSH1 0x2 ADD PUSH1 0x0 PUSH2 0x100 EXP DUP2 SLOAD DUP2 PUSH20 0xFFFFFFFFFFFFFFFFFFFFFFFFFFFFFFFFFFFFFFFF MUL NOT AND SWAP1 DUP4 PUSH20 0xFFFFFFFFFFFFFFFFFFFFFFFFFFFFFFFFFFFFFFFF AND MUL OR SWAP1 SSTORE POP PUSH1 0x0 DUP2 PUSH1 0x2 ADD PUSH1 0x14 PUSH2 0x100 EXP DUP2 SLOAD DUP2 PUSH1 0xFF MUL NOT AND SWAP1 DUP4 ISZERO ISZERO MUL OR SWAP1 SSTORE POP PUSH1 0x0 DUP2 PUSH1 0x3 ADD DUP2 SWAP1 SSTORE POP POP POP POP POP JUMP JUMPDEST PUSH1 0x1 SLOAD DUP2 JUMP JUMPDEST PUSH1 0x1 SLOAD CALLVALUE GT PUSH2 0x67B JUMPI PUSH1 0x0 DUP1 REVERT JUMPDEST PUSH1 0x1 PUSH1 0x3 PUSH1 0x0 CALLER PUSH20 0xFFFFFFFFFFFFFFFFFFFFFFFFFFFFFFFFFFFFFFFF AND PUSH20 0xFFFFFFFFFFFFFFFFFFFFFFFFFFFFFFFFFFFFFFFF AND DUP2 MSTORE PUSH1 0x20 ADD SWAP1 DUP2 MSTORE PUSH1 0x20 ADD PUSH1 0x0 KECCAK256 PUSH1 0x0 PUSH2 0x100 EXP DUP2 SLOAD DUP2 PUSH1 0xFF MUL NOT AND SWAP1 DUP4 ISZERO ISZERO MUL OR SWAP1 SSTORE POP PUSH1 0x4 PUSH1 0x0 DUP2 SLOAD DUP1 SWAP3 SWAP2 SWAP1 PUSH2 0x6E6 SWAP1 PUSH2 0x1043 JUMP JUMPDEST SWAP2 SWAP1 POP SSTORE POP JUMP JUMPDEST PUSH1 0x0 PUSH1 0x2 DUP3 DUP2 SLOAD DUP2 LT PUSH2 0x703 JUMPI PUSH2 0x702 PUSH2 0xD07 JUMP JUMPDEST JUMPDEST SWAP1 PUSH1 0x0 MSTORE PUSH1 0x20 PUSH1 0x0 KECCAK256 SWAP1 PUSH1 0x5 MUL ADD SWAP1 POP PUSH1 0x3 PUSH1 0x0 CALLER PUSH20 0xFFFFFFFFFFFFFFFFFFFFFFFFFFFFFFFFFFFFFFFF AND PUSH20 0xFFFFFFFFFFFFFFFFFFFFFFFFFFFFFFFFFFFFFFFF AND DUP2 MSTORE PUSH1 0x20 ADD SWAP1 DUP2 MSTORE PUSH1 0x20 ADD PUSH1 0x0 KECCAK256 PUSH1 0x0 SWAP1 SLOAD SWAP1 PUSH2 0x100 EXP SWAP1 DIV PUSH1 0xFF AND PUSH2 0x769 JUMPI PUSH1 0x0 DUP1 REVERT JUMPDEST DUP1 PUSH1 0x4 ADD PUSH1 0x0 CALLER PUSH20 0xFFFFFFFFFFFFFFFFFFFFFFFFFFFFFFFFFFFFFFFF AND PUSH20 0xFFFFFFFFFFFFFFFFFFFFFFFFFFFFFFFFFFFFFFFF AND DUP2 MSTORE PUSH1 0x20 ADD SWAP1 DUP2 MSTORE PUSH1 0x20 ADD PUSH1 0x0 KECCAK256 PUSH1 0x0 SWAP1 SLOAD SWAP1 PUSH2 0x100 EXP SWAP1 DIV PUSH1 0xFF AND ISZERO PUSH2 0x7C2 JUMPI PUSH1 0x0 DUP1 REVERT JUMPDEST PUSH1 0x1 DUP2 PUSH1 0x4 ADD PUSH1 0x0 CALLER PUSH20 0xFFFFFFFFFFFFFFFFFFFFFFFFFFFFFFFFFFFFFFFF AND PUSH20 0xFFFFFFFFFFFFFFFFFFFFFFFFFFFFFFFFFFFFFFFF AND DUP2 MSTORE PUSH1 0x20 ADD SWAP1 DUP2 MSTORE PUSH1 0x20 ADD PUSH1 0x0 KECCAK256 PUSH1 0x0 PUSH2 0x100 EXP DUP2 SLOAD DUP2 PUSH1 0xFF MUL NOT AND SWAP1 DUP4 ISZERO ISZERO MUL OR SWAP1 SSTORE POP DUP1 PUSH1 0x3 ADD PUSH1 0x0 DUP2 SLOAD DUP1 SWAP3 SWAP2 SWAP1 PUSH2 0x831 SWAP1 PUSH2 0x1043 JUMP JUMPDEST SWAP2 SWAP1 POP SSTORE POP POP POP JUMP JUMPDEST PUSH1 0x0 PUSH1 0x40 MLOAD SWAP1 POP SWAP1 JUMP JUMPDEST PUSH1 0x0 DUP1 REVERT JUMPDEST PUSH1 0x0 DUP1 REVERT JUMPDEST PUSH1 0x0 DUP2 SWAP1 POP SWAP2 SWAP1 POP JUMP JUMPDEST PUSH2 0x861 DUP2 PUSH2 0x84E JUMP JUMPDEST DUP2 EQ PUSH2 0x86C JUMPI PUSH1 0x0 DUP1 REVERT JUMPDEST POP JUMP JUMPDEST PUSH1 0x0 DUP2 CALLDATALOAD SWAP1 POP PUSH2 0x87E DUP2 PUSH2 0x858 JUMP JUMPDEST SWAP3 SWAP2 POP POP JUMP JUMPDEST PUSH1 0x0 PUSH1 0x20 DUP3 DUP5 SUB SLT ISZERO PUSH2 0x89A JUMPI PUSH2 0x899 PUSH2 0x844 JUMP JUMPDEST JUMPDEST PUSH1 0x0 PUSH2 0x8A8 DUP5 DUP3 DUP6 ADD PUSH2 0x86F JUMP JUMPDEST SWAP2 POP POP SWAP3 SWAP2 POP POP JUMP JUMPDEST PUSH1 0x0 DUP2 MLOAD SWAP1 POP SWAP2 SWAP1 POP JUMP JUMPDEST PUSH1 0x0 DUP3 DUP3 MSTORE PUSH1 0x20 DUP3 ADD SWAP1 POP SWAP3 SWAP2 POP POP JUMP JUMPDEST PUSH1 0x0 JUMPDEST DUP4 DUP2 LT ISZERO PUSH2 0x8EB JUMPI DUP1 DUP3 ADD MLOAD DUP2 DUP5 ADD MSTORE PUSH1 0x20 DUP2 ADD SWAP1 POP PUSH2 0x8D0 JUMP JUMPDEST PUSH1 0x0 DUP5 DUP5 ADD MSTORE POP POP POP POP JUMP JUMPDEST PUSH1 0x0 PUSH1 0x1F NOT PUSH1 0x1F DUP4 ADD AND SWAP1 POP SWAP2 SWAP1 POP JUMP JUMPDEST PUSH1 0x0 PUSH2 0x913 DUP3 PUSH2 0x8B1 JUMP JUMPDEST PUSH2 0x91D DUP2 DUP6 PUSH2 0x8BC JUMP JUMPDEST SWAP4 POP PUSH2 0x92D DUP2 DUP6 PUSH1 0x20 DUP7 ADD PUSH2 0x8CD JUMP JUMPDEST PUSH2 0x936 DUP2 PUSH2 0x8F7 JUMP JUMPDEST DUP5 ADD SWAP2 POP POP SWAP3 SWAP2 POP POP JUMP JUMPDEST PUSH2 0x94A DUP2 PUSH2 0x84E JUMP JUMPDEST DUP3 MSTORE POP POP JUMP JUMPDEST PUSH1 0x0 PUSH20 0xFFFFFFFFFFFFFFFFFFFFFFFFFFFFFFFFFFFFFFFF DUP3 AND SWAP1 POP SWAP2 SWAP1 POP JUMP JUMPDEST PUSH1 0x0 PUSH2 0x97B DUP3 PUSH2 0x950 JUMP JUMPDEST SWAP1 POP SWAP2 SWAP1 POP JUMP JUMPDEST PUSH2 0x98B DUP2 PUSH2 0x970 JUMP JUMPDEST DUP3 MSTORE POP POP JUMP JUMPDEST PUSH1 0x0 DUP2 ISZERO ISZERO SWAP1 POP SWAP2 SWAP1 POP JUMP JUMPDEST PUSH2 0x9A6 DUP2 PUSH2 0x991 JUMP JUMPDEST DUP3 MSTORE POP POP JUMP JUMPDEST PUSH1 0x0 PUSH1 0xA0 DUP3 ADD SWAP1 POP DUP2 DUP2 SUB PUSH1 0x0 DUP4 ADD MSTORE PUSH2 0x9C6 DUP2 DUP9 PUSH2 0x908 JUMP JUMPDEST SWAP1 POP PUSH2 0x9D5 PUSH1 0x20 DUP4 ADD DUP8 PUSH2 0x941 JUMP JUMPDEST PUSH2 0x9E2 PUSH1 0x40 DUP4 ADD DUP7 PUSH2 0x982 JUMP JUMPDEST PUSH2 0x9EF PUSH1 0x60 DUP4 ADD DUP6 PUSH2 0x99D JUMP JUMPDEST PUSH2 0x9FC PUSH1 0x80 DUP4 ADD DUP5 PUSH2 0x941 JUMP JUMPDEST SWAP7 SWAP6 POP POP POP POP POP POP JUMP JUMPDEST PUSH2 0xA0F DUP2 PUSH2 0x970 JUMP JUMPDEST DUP2 EQ PUSH2 0xA1A JUMPI PUSH1 0x0 DUP1 REVERT JUMPDEST POP JUMP JUMPDEST PUSH1 0x0 DUP2 CALLDATALOAD SWAP1 POP PUSH2 0xA2C DUP2 PUSH2 0xA06 JUMP JUMPDEST SWAP3 SWAP2 POP POP JUMP JUMPDEST PUSH1 0x0 PUSH1 0x20 DUP3 DUP5 SUB SLT ISZERO PUSH2 0xA48 JUMPI PUSH2 0xA47 PUSH2 0x844 JUMP JUMPDEST JUMPDEST PUSH1 0x0 PUSH2 0xA56 DUP5 DUP3 DUP6 ADD PUSH2 0xA1D JUMP JUMPDEST SWAP2 POP POP SWAP3 SWAP2 POP POP JUMP JUMPDEST PUSH1 0x0 PUSH1 0x20 DUP3 ADD SWAP1 POP PUSH2 0xA74 PUSH1 0x0 DUP4 ADD DUP5 PUSH2 0x99D JUMP JUMPDEST SWAP3 SWAP2 POP POP JUMP JUMPDEST PUSH1 0x0 PUSH1 0x20 DUP3 ADD SWAP1 POP PUSH2 0xA8F PUSH1 0x0 DUP4 ADD DUP5 PUSH2 0x941 JUMP JUMPDEST SWAP3 SWAP2 POP POP JUMP JUMPDEST PUSH1 0x0 PUSH1 0xA0 DUP3 ADD SWAP1 POP PUSH2 0xAAA PUSH1 0x0 DUP4 ADD DUP9 PUSH2 0x941 JUMP JUMPDEST PUSH2 0xAB7 PUSH1 0x20 DUP4 ADD DUP8 PUSH2 0x941 JUMP JUMPDEST PUSH2 0xAC4 PUSH1 0x40 DUP4 ADD DUP7 PUSH2 0x941 JUMP JUMPDEST PUSH2 0xAD1 PUSH1 0x60 DUP4 ADD DUP6 PUSH2 0x941 JUMP JUMPDEST PUSH2 0xADE PUSH1 0x80 DUP4 ADD DUP5 PUSH2 0x982 JUMP JUMPDEST SWAP7 SWAP6 POP POP POP POP POP POP JUMP JUMPDEST PUSH1 0x0 PUSH1 0x20 DUP3 ADD SWAP1 POP PUSH2 0xAFD PUSH1 0x0 DUP4 ADD DUP5 PUSH2 0x982 JUMP JUMPDEST SWAP3 SWAP2 POP POP JUMP JUMPDEST PUSH1 0x0 DUP1 REVERT JUMPDEST PUSH1 0x0 DUP1 REVERT JUMPDEST PUSH32 0x4E487B7100000000000000000000000000000000000000000000000000000000 PUSH1 0x0 MSTORE PUSH1 0x41 PUSH1 0x4 MSTORE PUSH1 0x24 PUSH1 0x0 REVERT JUMPDEST PUSH2 0xB45 DUP3 PUSH2 0x8F7 JUMP JUMPDEST DUP2 ADD DUP2 DUP2 LT PUSH8 0xFFFFFFFFFFFFFFFF DUP3 GT OR ISZERO PUSH2 0xB64 JUMPI PUSH2 0xB63 PUSH2 0xB0D JUMP JUMPDEST JUMPDEST DUP1 PUSH1 0x40 MSTORE POP POP POP JUMP JUMPDEST PUSH1 0x0 PUSH2 0xB77 PUSH2 0x83A JUMP JUMPDEST SWAP1 POP PUSH2 0xB83 DUP3 DUP3 PUSH2 0xB3C JUMP JUMPDEST SWAP2 SWAP1 POP JUMP JUMPDEST PUSH1 0x0 PUSH8 0xFFFFFFFFFFFFFFFF DUP3 GT ISZERO PUSH2 0xBA3 JUMPI PUSH2 0xBA2 PUSH2 0xB0D JUMP JUMPDEST JUMPDEST PUSH2 0xBAC DUP3 PUSH2 0x8F7 JUMP JUMPDEST SWAP1 POP PUSH1 0x20 DUP2 ADD SWAP1 POP SWAP2 SWAP1 POP JUMP JUMPDEST DUP3 DUP2 DUP4 CALLDATACOPY PUSH1 0x0 DUP4 DUP4 ADD MSTORE POP POP POP JUMP JUMPDEST PUSH1 0x0 PUSH2 0xBDB PUSH2 0xBD6 DUP5 PUSH2 0xB88 JUMP JUMPDEST PUSH2 0xB6D JUMP JUMPDEST SWAP1 POP DUP3 DUP2 MSTORE PUSH1 0x20 DUP2 ADD DUP5 DUP5 DUP5 ADD GT ISZERO PUSH2 0xBF7 JUMPI PUSH2 0xBF6 PUSH2 0xB08 JUMP JUMPDEST JUMPDEST PUSH2 0xC02 DUP5 DUP3 DUP6 PUSH2 0xBB9 JUMP JUMPDEST POP SWAP4 SWAP3 POP POP POP JUMP JUMPDEST PUSH1 0x0 DUP3 PUSH1 0x1F DUP4 ADD SLT PUSH2 0xC1F JUMPI PUSH2 0xC1E PUSH2 0xB03 JUMP JUMPDEST JUMPDEST DUP2 CALLDATALOAD PUSH2 0xC2F DUP5 DUP3 PUSH1 0x20 DUP7 ADD PUSH2 0xBC8 JUMP JUMPDEST SWAP2 POP POP SWAP3 SWAP2 POP POP JUMP JUMPDEST PUSH1 0x0 DUP1 PUSH1 0x0 PUSH1 0x60 DUP5 DUP7 SUB SLT ISZERO PUSH2 0xC51 JUMPI PUSH2 0xC50 PUSH2 0x844 JUMP JUMPDEST JUMPDEST PUSH1 0x0 DUP5 ADD CALLDATALOAD PUSH8 0xFFFFFFFFFFFFFFFF DUP2 GT ISZERO PUSH2 0xC6F JUMPI PUSH2 0xC6E PUSH2 0x849 JUMP JUMPDEST JUMPDEST PUSH2 0xC7B DUP7 DUP3 DUP8 ADD PUSH2 0xC0A JUMP JUMPDEST SWAP4 POP POP PUSH1 0x20 PUSH2 0xC8C DUP7 DUP3 DUP8 ADD PUSH2 0x86F JUMP JUMPDEST SWAP3 POP POP PUSH1 0x40 PUSH2 0xC9D DUP7 DUP3 DUP8 ADD PUSH2 0xA1D JUMP JUMPDEST SWAP2 POP POP SWAP3 POP SWAP3 POP SWAP3 JUMP JUMPDEST PUSH32 0x4E487B7100000000000000000000000000000000000000000000000000000000 PUSH1 0x0 MSTORE PUSH1 0x22 PUSH1 0x4 MSTORE PUSH1 0x24 PUSH1 0x0 REVERT JUMPDEST PUSH1 0x0 PUSH1 0x2 DUP3 DIV SWAP1 POP PUSH1 0x1 DUP3 AND DUP1 PUSH2 0xCEE JUMPI PUSH1 0x7F DUP3 AND SWAP2 POP JUMPDEST PUSH1 0x20 DUP3 LT DUP2 SUB PUSH2 0xD01 JUMPI PUSH2 0xD00 PUSH2 0xCA7 JUMP JUMPDEST JUMPDEST POP SWAP2 SWAP1 POP JUMP JUMPDEST PUSH32 0x4E487B7100000000000000000000000000000000000000000000000000000000 PUSH1 0x0 MSTORE PUSH1 0x32 PUSH1 0x4 MSTORE PUSH1 0x24 PUSH1 0x0 REVERT JUMPDEST PUSH32 0x4E487B7100000000000000000000000000000000000000000000000000000000 PUSH1 0x0 MSTORE PUSH1 0x12 PUSH1 0x4 MSTORE PUSH1 0x24 PUSH1 0x0 REVERT JUMPDEST PUSH32 0x4E487B7100000000000000000000000000000000000000000000000000000000 PUSH1 0x0 MSTORE PUSH1 0x11 PUSH1 0x4 MSTORE PUSH1 0x24 PUSH1 0x0 REVERT JUMPDEST PUSH1 0x0 PUSH2 0xD9F DUP3 PUSH2 0x84E JUMP JUMPDEST SWAP2 POP PUSH2 0xDAA DUP4 PUSH2 0x84E JUMP JUMPDEST SWAP3 POP DUP3 PUSH2 0xDBA JUMPI PUSH2 0xDB9 PUSH2 0xD36 JUMP JUMPDEST JUMPDEST DUP3 DUP3 DIV SWAP1 POP SWAP3 SWAP2 POP POP JUMP JUMPDEST PUSH1 0x0 DUP2 SWAP1 POP DUP2 PUSH1 0x0 MSTORE PUSH1 0x20 PUSH1 0x0 KECCAK256 SWAP1 POP SWAP2 SWAP1 POP JUMP JUMPDEST PUSH1 0x0 PUSH1 0x20 PUSH1 0x1F DUP4 ADD DIV SWAP1 POP SWAP2 SWAP1 POP JUMP JUMPDEST PUSH1 0x0 DUP3 DUP3 SHL SWAP1 POP SWAP3 SWAP2 POP POP JUMP JUMPDEST PUSH1 0x0 PUSH1 0x8 DUP4 MUL PUSH2 0xE27 PUSH32 0xFFFFFFFFFFFFFFFFFFFFFFFFFFFFFFFFFFFFFFFFFFFFFFFFFFFFFFFFFFFFFFFF DUP3 PUSH2 0xDEA JUMP JUMPDEST PUSH2 0xE31 DUP7 DUP4 PUSH2 0xDEA JUMP JUMPDEST SWAP6 POP DUP1 NOT DUP5 AND SWAP4 POP DUP1 DUP7 AND DUP5 OR SWAP3 POP POP POP SWAP4 SWAP3 POP POP POP JUMP JUMPDEST PUSH1 0x0 DUP2 SWAP1 POP SWAP2 SWAP1 POP JUMP JUMPDEST PUSH1 0x0 PUSH2 0xE6E PUSH2 0xE69 PUSH2 0xE64 DUP5 PUSH2 0x84E JUMP JUMPDEST PUSH2 0xE49 JUMP JUMPDEST PUSH2 0x84E JUMP JUMPDEST SWAP1 POP SWAP2 SWAP1 POP JUMP JUMPDEST PUSH1 0x0 DUP2 SWAP1 POP SWAP2 SWAP1 POP JUMP JUMPDEST PUSH2 0xE88 DUP4 PUSH2 0xE53 JUMP JUMPDEST PUSH2 0xE9C PUSH2 0xE94 DUP3 PUSH2 0xE75 JUMP JUMPDEST DUP5 DUP5 SLOAD PUSH2 0xDF7 JUMP JUMPDEST DUP3 SSTORE POP POP POP POP JUMP JUMPDEST PUSH1 0x0 SWAP1 JUMP JUMPDEST PUSH2 0xEB1 PUSH2 0xEA4 JUMP JUMPDEST PUSH2 0xEBC DUP2 DUP5 DUP5 PUSH2 0xE7F JUMP JUMPDEST POP POP POP JUMP JUMPDEST JUMPDEST DUP2 DUP2 LT ISZERO PUSH2 0xEE0 JUMPI PUSH2 0xED5 PUSH1 0x0 DUP3 PUSH2 0xEA9 JUMP JUMPDEST PUSH1 0x1 DUP2 ADD SWAP1 POP PUSH2 0xEC2 JUMP JUMPDEST POP POP JUMP JUMPDEST PUSH1 0x1F DUP3 GT ISZERO PUSH2 0xF25 JUMPI PUSH2 0xEF6 DUP2 PUSH2 0xDC5 JUMP JUMPDEST PUSH2 0xEFF DUP5 PUSH2 0xDDA JUMP JUMPDEST DUP2 ADD PUSH1 0x20 DUP6 LT ISZERO PUSH2 0xF0E JUMPI DUP2 SWAP1 POP JUMPDEST PUSH2 0xF22 PUSH2 0xF1A DUP6 PUSH2 0xDDA JUMP JUMPDEST DUP4 ADD DUP3 PUSH2 0xEC1 JUMP JUMPDEST POP POP JUMPDEST POP POP POP JUMP JUMPDEST PUSH1 0x0 DUP3 DUP3 SHR SWAP1 POP SWAP3 SWAP2 POP POP JUMP JUMPDEST PUSH1 0x0 PUSH2 0xF48 PUSH1 0x0 NOT DUP5 PUSH1 0x8 MUL PUSH2 0xF2A JUMP JUMPDEST NOT DUP1 DUP4 AND SWAP2 POP POP SWAP3 SWAP2 POP POP JUMP JUMPDEST PUSH1 0x0 PUSH2 0xF61 DUP4 DUP4 PUSH2 0xF37 JUMP JUMPDEST SWAP2 POP DUP3 PUSH1 0x2 MUL DUP3 OR SWAP1 POP SWAP3 SWAP2 POP POP JUMP JUMPDEST PUSH2 0xF7A DUP3 PUSH2 0x8B1 JUMP JUMPDEST PUSH8 0xFFFFFFFFFFFFFFFF DUP2 GT ISZERO PUSH2 0xF93 JUMPI PUSH2 0xF92 PUSH2 0xB0D JUMP JUMPDEST JUMPDEST PUSH2 0xF9D DUP3 SLOAD PUSH2 0xCD6 JUMP JUMPDEST PUSH2 0xFA8 DUP3 DUP3 DUP6 PUSH2 0xEE4 JUMP JUMPDEST PUSH1 0x0 PUSH1 0x20 SWAP1 POP PUSH1 0x1F DUP4 GT PUSH1 0x1 DUP2 EQ PUSH2 0xFDB JUMPI PUSH1 0x0 DUP5 ISZERO PUSH2 0xFC9 JUMPI DUP3 DUP8 ADD MLOAD SWAP1 POP JUMPDEST PUSH2 0xFD3 DUP6 DUP3 PUSH2 0xF55 JUMP JUMPDEST DUP7 SSTORE POP PUSH2 0x103B JUMP JUMPDEST PUSH1 0x1F NOT DUP5 AND PUSH2 0xFE9 DUP7 PUSH2 0xDC5 JUMP JUMPDEST PUSH1 0x0 JUMPDEST DUP3 DUP2 LT ISZERO PUSH2 0x1011 JUMPI DUP5 DUP10 ADD MLOAD DUP3 SSTORE PUSH1 0x1 DUP3 ADD SWAP2 POP PUSH1 0x20 DUP6 ADD SWAP5 POP PUSH1 0x20 DUP2 ADD SWAP1 POP PUSH2 0xFEC JUMP JUMPDEST DUP7 DUP4 LT ISZERO PUSH2 0x102E JUMPI DUP5 DUP10 ADD MLOAD PUSH2 0x102A PUSH1 0x1F DUP10 AND DUP3 PUSH2 0xF37 JUMP JUMPDEST DUP4 SSTORE POP JUMPDEST PUSH1 0x1 PUSH1 0x2 DUP9 MUL ADD DUP9 SSTORE POP POP POP JUMPDEST POP POP POP POP POP POP JUMP JUMPDEST PUSH1 0x0 PUSH2 0x104E DUP3 PUSH2 0x84E JUMP JUMPDEST SWAP2 POP PUSH32 0xFFFFFFFFFFFFFFFFFFFFFFFFFFFFFFFFFFFFFFFFFFFFFFFFFFFFFFFFFFFFFFFF DUP3 SUB PUSH2 0x1080 JUMPI PUSH2 0x107F PUSH2 0xD65 JUMP JUMPDEST JUMPDEST PUSH1 0x1 DUP3 ADD SWAP1 POP SWAP2 SWAP1 POP JUMP INVALID LOG2 PUSH5 0x6970667358 0x22 SLT KECCAK256 PUSH1 0x71 PUSH26 0x11C88548506CB6F58DA6D8A70F26BD248A1DFD2F8E2C8F94B9A3 0xCF COINBASE PUSH20 0x64736F6C63430008110033A26469706673582212 KECCAK256 SIGNEXTEND 0x4B 0xBA 0xD2 CHAINID DUP1 0x21 0xDA 0xE6 0x22 0x27 0xDE JUMP PUSH3 0x38C34A 0xD3 SSTORE DIFFICULTY 0xE4 0xB1 ADD 0x29 0x5D PUSH18 0x54395BB3923A64736F6C6343000811003300 "},"gasEstimates":{"creation":{"codeDepositCost":"1158600","executionCost":"1207","totalCost":"1159807"},"external":{"createCampaign(uint256)":"infinite","deployedCampaigns(uint256)":"4934","getDeployedContracts()":"infinite"}},"methodIdentifiers":{"createCampaign(uint256)":"a3303a75","deployedCampaigns(uint256)":"339d50a5","getDeployedContracts()":"aa9a068f"}},"storageLayout":{"storage":[{"astId":4,"contract":"Campaign.sol:CampaignFactory","label":"deployedCampaigns","offset":0,"slot":"0","type":"t_array(t_address_payable)dyn_storage"}],"types":{"t_address_payable":{"encoding":"inplace","label":"address payable","numberOfBytes":"20"},"t_array(t_address_payable)dyn_storage":{"base":"t_address_payable","encoding":"dynamic_array","label":"address payable[]","numberOfBytes":"32"}}},"userdoc":{"kind":"user","methods":{},"version":1}}